:100000000C9499020C94CA020C94CA020C94CA0271
:100010000C94CA020C94CA020C94CA020C94CA0230
:100020000C94CA020C94CA020C94CA020C94CA0220
:100030000C94CA020C94CA020C94CA020C94CA0210
:100040000C94CA020C94CA020C94CA020C94CA0200
:100050000C94CA020C94CA020C94CA020C949F1D00
:100060000C94CA020C94691D0C943F1D0C94CA0296
:100070000C94CA020C94CA020C94CA020C94CA02D0
:100080000C94CA020C94CA020C94CA020C94CA02C0
:100090000C94CA020C94CA020C94CA020C94CA02B0
:1000A0000C94CA020C94CA020C94CA020C94CA02A0
:1000B0000C94CA020C94CA020C94CA020C94CA0290
:1000C0000C94CA020C94CA020C94CA020C94CA0280
:1000D0000C94CA020C94CA020C94CA020C94CA0270
:1000E0000C94CA020C9496040C94D3020C94A304AE
:1000F0000C94810F0C94F7080C9413080C94660967
:100100000C94A6070C94CF020C949A040C94810CC6
:100110000C9481110C94BD070C943D120C94F403C3
:100120000C9482040C946F030C9402130C943E0301
:100130000C947E040C9461030C94A4040C94750438
:100140000C949B070C9469040C94A8040C9430162E
:100150000C9444100C949E040C94A3160C944D0320
:100160000C94F5080C94F4070C94792C0C948804E6
:100170000C9411030C942E1E0C94FA080C94190E76
:100180000C943E0F0C9467110C94EB080C948507AB
:100190000C94260C0C94E7080C94290F0C947413FF
:1001A0000C94470F0C9471040C94480C0C940C089C
:1001B0000C9478040C94010D0C9439130C948C0459
:1001C0000C94B01A0C94FC070C94F8070C94D712FA
:1001D0000C945B120C943D110C941E110C94A7030B
:1001E0000C94100D0C946D040C9490040C94630406
:1001F0000C940D0C00002200250028002B002E007E
:100200003100340002010000050108010B0100006B
:100210002100240027002A002D00300033000101B6
:100220000000040107010A014661696C65642074DD
:100230006F20636F6E6669677572652045746865C7
:10024000726E657400636F6E6E656374696E672E9F
:100250002E2E0061757468436F64653A20005D3A24
:10026000200073657269616C5F646174615F7263C1
:1002700076645F66726F6D5F736C6176655B005D5F
:10028000005B0073657269616C5F646174615F72C9
:100290006376645F66726F6D5F636C6F75645B300D
:1002A0005D3A2000706C65617365207265676973E3
:1002B00074657220796F757220436944206F6E20D7
:1002C000796F7572206D6F62696C65206170700A5C
:1002D000616E6420616E6420706F77657220726554
:1002E00073657420796F757220626F617264004962
:1002F0006E76616C696420726573706F6E736500F1
:10030000556E657870656374656420726573706F8F
:100310006E73653A20004661696C656420746F20D5
:1003200073656E64207265717565737400436F6EDA
:100330006E656374696F6E3A20636C6F7365004815
:100340006F73743A200020485454502F312E3100DE
:100350002673657269616C5F646174613D00267526
:100360007074696D653D00266C6F63616C69703DEA
:100370000026626F617264747970653D002666695B
:10038000726D7761726576657273696F6E3D002676
:1003900068756D3D002674656D703D003F6369644E
:1003A0003D004745542000207365636F6E64732ED3
:1003B0002E2E00736C656570696E6720666F722003
:1003C00000646973636F6E6E65637465642E2E2EB0
:1003D00000646973636F6E6E656374696E672E2E59
:1003E0002E0073006D20006820006420007570747A
:1003F000696D653A20005D004552525F4E4F5F5275
:1004000045504C595F534C4156455B0045746865F7
:10041000726E65742E6C6F63616C495028293A20A6
:1004200000426F617264204369443A2000696E693A
:100430007469616C697A6528737563636573732980
:100440000000000020002300260029002C002F00BF
:100450003200000100000301060109010505050540
:10046000070508080808020202020A0A080804042C
:10047000040401010101010101010303030303035A
:100480000303040707070C0C0C0C0C0C0C0C0202E9
:10049000020206060606060606060B0B0B0B0B0BE6
:1004A0000B0B010210202008081020401020408073
:1004B0000201020108040201010204081020408028
:1004C00080402010080402018004020180402010B6
:1004D00008040201080402010102040810204080FF
:1004E000010204081020408000000A0B02090C0DD4
:1004F0000E080703040100000000000000000000D7
:1005000000000000000000000000000000000000EB
:1005100000000000121110000000000000000000A8
:1005200000000000000000000000000000002E1E7F
:10053000792C11241FBECFEFD1E2DEBFCDBF00E08A
:100540000CBF14E0A0E0B2E0E6E5FAE600E00BBF85
:1005500002C007900D92A431B107D9F728E0A4E1B9
:10056000B4E001C01D92AE3AB207E1F712E0C8E96B
:10057000D2E000E006C021970109802FFE010E9411
:100580000130C739D10780E00807A9F70E94C81ECB
:100590000C9419350C9400008CBD9DBD0895FC0190
:1005A000818D928D0895089520E3FC012083329679
:1005B000862F82958F706F706A3030F4605D629321
:1005C000682F8111F5CF0895695CF9CFDC01ED91B9
:1005D000FC910190F081E02D1994EF92FF920F931E
:1005E0001F93CF93DF938C017B01D0E0C0E0F70134
:1005F000EC0FFD1F6491662361F0D801ED91FC9131
:100600000190F081E02DC8011995892B11F02196F8
:10061000EECFCE01DF91CF911F910F91FF90EF9020
:100620000895AF92BF92CF92DF92EF92FF920F9315
:100630001F93CF93DF936C017B018B01040F151F78
:10064000EB015E01AE18BF08C017D10759F06991E0
:10065000D601ED91FC910190F081E02DC601199534
:10066000892B79F7C501DF91CF911F910F91FF90F1
:10067000EF90DF90CF90BF90AF900895FC01538D25
:10068000448D252F30E0842F90E0821B930B54176C
:1006900010F0CF96089501970895FC01918D828DF9
:1006A000981761F0A28DAE0FBF2FB11D5D968C9192
:1006B000928D9F5F9F73928F90E008958FEF9FEFD1
:1006C0000895FC01918D828D981731F0828DE80F8D
:1006D000F11D858D90E008958FEF9FEF0895FC0147
:1006E000918D228D892F90E0805C9F4F821B910914
:1006F0008F739927089589EA97E00E946F0321E09C
:10070000892B09F420E0822F0895FC01A48DA80F05
:10071000B92FB11DA35ABF4F2C91848D90E0019643
:100720008F739927848FA689B7892C93A089B18963
:100730008C91837080648C93938D848D981306C004
:100740000288F389E02D80818F7D80830895EF9268
:10075000FF920F931F93CF93DF93EC0181E0888F7B
:100760009B8D8C8D98131AC0E889F989808185FF4B
:1007700015C09FB7F894EE89FF896083E889F989ED
:1007800080818370806480839FBF81E090E0DF91EF
:10079000CF911F910F91FF90EF900895F62E0B8D42
:1007A00010E00F5F1F4F0F731127E02E8C8D8E11FD
:1007B0000CC00FB607FCFACFE889F989808185FF64
:1007C000F5CFCE010E948503F1CFEB8DEC0FFD2F0D
:1007D000F11DE35AFF4FF0829FB7F8940B8FEA891F
:1007E000FB8980818062CFCFCF93DF93EC01888D2E
:1007F0008823B9F0AA89BB89E889F9898C9185FD9C
:1008000003C0808186FD0DC00FB607FCF7CF8C9129
:1008100085FFF2CF808185FFEDCFCE010E94850359
:10082000E9CFDF91CF91089580E090E0892B29F006
:100830000E947B0381110E94000080E090E0892BE0
:1008400049F080E090E0892B29F00E94000081119E
:100850000E94000080E090E0892B49F080E090E069
:10086000892B29F00E94000081110E94000080E085
:1008700090E0892B49F080E090E0892B29F00E94DC
:10088000000081110C94000008958150823108F01D
:100890005AC0E82FF0E08827EF5AFB4F8F4F0C9497
:1008A000013071047504630469046D04A3047804C1
:1008B0007E04820488048C04900496049A04A304A1
:1008C0009E04A404A804809180008F778093800008
:1008D0000895809180008F7DF9CF80918000877F7F
:1008E000F5CF84B58F7784BD089584B58F7DFBCF18
:1008F0008091B0008F778093B00008958091B00010
:100900008F7DF9CF809190008F778093900008952C
:10091000809190008F7DF9CF80919000877FF5CFF7
:100920008091A0008F778093A00008958091A0000F
:100930008F7DF9CF8091A000877FF5CF8091200136
:100940008F77809320010895809120018F7DF9CFCA
:1009500080912001877FF5CF1F93CF93DF93282FBE
:1009600030E0F901E851FB4F8491F901EE55FB4F5E
:10097000D491F901E45AFB4FC491CC23A9F0162F6E
:1009800081110E944504EC2FF0E0EE0FFF1FEC50A8
:10099000FE4FA591B4918FB7F894EC91111108C056
:1009A000D095DE23DC938FBFDF91CF911F91089507
:1009B000DE2BF8CFCF93DF9390E0FC01EE55FB4F99
:1009C0002491845A9B4FFC0184918823C9F090E0C4
:1009D000880F991FFC01E25FFD4FA591B491FC01C6
:1009E000EC50FE4FC591D49161110DC09FB7F894A2
:1009F0008C91209582238C938881282328839FBF04
:100A0000DF91CF910895623051F49FB7F8943C91F3
:100A1000822F809583238C93E8812E2BEFCF8FB785
:100A2000F894EC912E2B2C938FBFEACF3FB7F8941C
:100A30008091310490913204A0913304B091340438
:100A400026B5A89B05C02F3F19F00196A11DB11D29
:100A50003FBFBA2FA92F982F8827BC01CD01620F65
:100A6000711D811D911D42E0660F771F881F991F20
:100A70004A95D1F708952F923F924F925F926F92CD
:100A80007F928F929F92AF92BF92CF92DF92EF921E
:100A9000FF920F931F93CF93DF93C82F062F490127
:100AA0005A010E9416056B017C01D0E0CE018851ED
:100AB0009B4F2C01FE01EE55FB4F3F01C45ADB4F0B
:100AC00010E0F2018491F3013490FE012490222081
:100AD00029F181110E944504E22DF0E0EE0FFF1F85
:100AE000EE5BFB4FA591B4918C91382231E020E070
:100AF00009F430E0832F922F0817190791F40E9410
:100B000016056C197D098E099F0986169706A80699
:100B1000B906B8F660E070E0CB0109C090E080E073
:100B2000EBCF0E9416056C197D098E099F09DF9194
:100B3000CF911F910F91FF90EF90DF90CF90BF90DA
:100B4000AF909F908F907F906F905F904F903F906D
:100B50002F9008958F929F92AF92BF92CF92DF9283
:100B6000EF92FF924B015C010E9416056B017C0124
:100B70000E9416056C197D098E099F09683E734015
:100B800081059105A8F321E0821A9108A108B10816
:100B900088EEC80E83E0D81EE11CF11C811491047C
:100BA000A104B10429F7FF90EF90DF90CF90BF90A0
:100BB000AF909F908F9008952FB7F89460912D0477
:100BC00070912E0480912F04909130042FBF0895CE
:100BD0000F931F93CF93DF93EC010E94DC0568878E
:100BE00079878A879B87E881F9810284F385E02DE4
:100BF000CE01199597FF15C00E94DC05088519855F
:100C00002A853B85601B710B820B930B0C811D8128
:100C10002E813F81601771078207930720F38FEFC2
:100C20009FEFDF91CF911F910F910895CF93DF93A5
:100C3000EB010E94E80597FD06C0888381E090E003
:100C4000DF91CF91089590E080E0FACFFC01208100
:100C50002EBD9B012150310941F051810DB407FE99
:100C6000FDCF4EB55EBD4193F5CF61507109860F42
:100C7000971F0DB407FEFDCF2EB5FC01208308950C
:100C8000E0913604F0913704808190913504892BEE
:100C900080830895E0913604F0913704908180912B
:100CA000350480958923808308958EBD00000DB49E
:100CB00007FEFDCF8EB50895AF92BF92CF92DF921F
:100CC000EF92FF920F931F93CF93DF9300D000D04A
:100CD0001F921F92CDB7DEB78C017B016A01809114
:100CE000A8078333E1F45801A40EB51EA016B1067F
:100CF00009F46FC00E944A0680EF0E945506812FBA
:100D00000E945506802F0E9455060F5F1F4FF70166
:100D100081917F010E9455060E944006E7CF5B014A
:100D2000A40EB51E8433C1F40E944A0619830A83B7
:100D30008D2D80688B83CC8264E070E0CE010196BB
:100D40000E942606AE14BF0409F441C0F701819148
:100D50007F010E945506F6CF0E944A060F3F1105FB
:100D600009F028F419820A8384E08B830CC017FDF4
:100D700017C019820A8333E0169507953A95E1F773
:100D8000007E0C600B8386E0C816D104A0F5F70145
:100D9000DE011496EA15FB0599F081918D93FACF47
:100DA000C80126E0969587952A95E1F7807E1983FC
:100DB0000A830115104C10F48461D7CF8C61D5CF14
:100DC000B6016D5F7F4FCE0101960E9426060E94FC
:100DD0004006C60128960FB6F894DEBF0FBECDBF01
:100DE000DF91CF911F910F91FF90EF90DF90CF9007
:100DF000BF90AF90089563E070E0CE0101960E942D
:100E00002606F70181917F010E945506AE14BF04AA
:100E1000C1F7DDCFCF93DF931F92CDB7DEB78983C4
:100E200041E050E0BE016F5F7F4F90E080E00E94A4
:100E30005C060F90DF91CF91089590E02091A80774
:100E4000233339F40C96982F990F990F990F80E05E
:100E500008954896F8CFDA01E0913904F0E0FE2FCA
:100E6000EE27E60FF71F90E0982F8827A901BD0114
:100E70008E0F9F1F0C945C06CF93DF931F921F92DF
:100E8000CDB7DEB779836A8322E030E0AE014F5FF1
:100E90005F4F60E170E00E942B070F900F90DF9191
:100EA000CF910895CF93DF931F921F92CDB7DEB7F6
:100EB00079836A8322E030E0AE014F5F5F4F64E0E8
:100EC00070E00E942B070F900F90DF91CF91089553
:100ED000CF93DF931F92CDB7DEB72091390430E076
:100EE000322F2227260F371F90E0982F882749831B
:100EF00041E050E0BE016F5F7F4F820F931F0E9461
:100F00005C060F90DF91CF910895CF93DF931F92EE
:100F1000CDB7DEB76983DC01ED91FC910280F381EE
:100F2000E02D41E050E0BE016F5F7F4F19950F90BB
:100F3000DF91CF910895FC019485FB01848598137E
:100F400003C081E0983008F080E00895CF93DF93EC
:100F50001F92CDB7DEB76983DC01ED91FC91028071
:100F6000F381E02D41E050E0BE016F5F7F4F1995A6
:100F70000F90DF91CF9108950895FF920F931F93E3
:100F8000CF93DF93EB01FC01178A168A2A81211186
:100F900009C02B81211106C02C81211103C02D8194
:100FA000222301F141155105E9F08A01FC01F08C81
:100FB00080E591E00E94CC02AE014E5F5F4F24E0DD
:100FC00030E06CE070E08F2D0E942B07B8018F2D70
:100FD0000E943C0781E090E0DF91CF911F910F913B
:100FE000FF90089580E0F7CFFC01848595850895F2
:100FF000FC0184899589089528E932E0FC01318358
:101000002083FB014089518962897389FC014283F5
:101010005383648375830895DC01ED91FC91048C06
:10102000F58DE02D199490E080E0089580912404DE
:1010300081110BC0109221041092200410922304FD
:101040001092220481E08093240480E294E00895C9
:101050008091180481110BC0109215041092140491
:10106000109217041092160481E08093180484E112
:1010700094E00895DB01109749F0ED91FC911197F0
:101080000190F081E02DBC01CD01199490E080E049
:1010900008950F931F93CF93DF931F92CDB7DEB7C1
:1010A0008C01FC01828181110BC0808191811982A8
:1010B000BE016F5F7F4F0E9416068981F80182830F
:1010C000F80182810F90DF91CF911F910F910895C8
:1010D0000F931F93CF93DF931F92CDB7DEB78C0191
:1010E000C8010E9449088D3021F044F489508230B3
:1010F00048F4F801838182831382F2CF8032C9F3EE
:101100008F3231F00F90DF91CF911F910F910895A1
:10111000F801838181110BC0808191811982BE0108
:101120006F5F7F4F0E9416068981F8018383F80163
:1011300083818A3289F08F3229F7F8018381828393
:101140001382C8010E9449088823E1F2C8010E9465
:1011500049088A3091F7C4CF1382F80183818283D2
:101160001382C8010E944908882361F2C8010E94C5
:1011700049088A3291F7F801838181110BC080817F
:1011800091811982BE016F5F7F4F0E94160689818F
:10119000F8018383F80183818F32F9F6138212827A
:1011A0009FCF1F93CF93DF93EC01162F0E94680807
:1011B000CE010E944908811308C08B818A831B825B
:1011C00081E0DF91CF911F91089580E0FACFFC017B
:1011D000768765870895DC01ED91FC91068CF78D8B
:1011E000E02D199591E089270895862F089581E0D3
:1011F0008627089521E0FC018485883008F020E0EE
:10120000822F0895FB0101900020E9F73197AF018B
:10121000461B570BDC01ED91FC910280F381E02D20
:1012200019948F929F92AF92BF92EF92FF920F9379
:101230001F93CF93DF93CDB7DEB7A1970FB6F89486
:10124000DEBF0FBECDBF7C01FA01CB0119A2223057
:1012500008F42AE08E010F5D1F4F822E912CB12CD5
:10126000A12CBF01A50194010E94B12EF901CA0170
:101270006A300CF5605DD8016E938D01232B242B11
:10128000252B79F790E080E0109721F0BD01C70190
:101290000E940209A1960FB6F894DEBF0FBECDBF23
:1012A000DF91CF911F910F91FF90EF90BF90AF9082
:1012B0009F908F900895695CDECFAC01990F660B0B
:1012C000770B2AE089EA97E00C9411098F929F929C
:1012D000AF92BF92CF92DF92EF92FF920F931F9344
:1012E000CF93DF937C018B016C0182E0C80ED11C8F
:1012F0004701E5E08E0E911CD0E0C0E0F60141917F
:101300006F0150E070E060E02AE0C8010E9411091E
:101310005C016EE2C8010E94E6028A0D9B1DC80FA7
:10132000D91FC814D90451F7F701458150E070E086
:1013300060E02AE0C8010E9411098C0F9D1FDF9117
:10134000CF911F910F91FF90EF90DF90CF90BF90C2
:10135000AF909F908F9008958F929F92AF92BF927F
:10136000CF92DF92EF92FF920F931F93CF93DF9371
:10137000EC016A017B01AB019601CB01B6010E9431
:10138000FC2F6AE972E0811126C046015701E894FA
:10139000B7F82FEF3FEF4FE75FE7C501B4010E94B9
:1013A000FC2F81110CC02FEF3FEF4FE75FE7C50126
:1013B000B4010E945B2D6EE972E0181664F02FEF05
:1013C0003FEF4FE75FE4C701B6010E94F72F181601
:1013D0008CF462EA72E0CE01DF91CF911F910F9100
:1013E000FF90EF90DF90CF90BF90AF909F908F9045
:1013F0000C9402092FEF3FEF4FE75FECC701B601F6
:101400000E945B2D87FDE5CF20E030E0A901C701F8
:10141000B6010E945B2D10E000E087FF09C06DE27D
:10142000CE010E94E6028C01F7FAF094F7F8F094EE
:101430002AE037ED43EA5BE3C701B6010E94E32EE1
:101440006B017C010E94C82F4B015C010E94602D42
:101450009B01AC01C701B6010E94E22E6B017C0129
:101460002AE0B501A401CE010E941109080F191F3D
:101470006EE2CE010E94E602080F191F20E030E064
:1014800040E251E4C701B6010E94C12D4B015C014D
:101490000E94C82F6B01F12CE12C2AE0B701A601B4
:1014A000CE010E941109080F191FC701B6010E9441
:1014B000602D9B01AC01C501B4010E94E22E20E029
:1014C00030E040E251E40E94C12D0E94C82FAB01E0
:1014D00070E060E02AE0CE010E941109800F911FA8
:1014E000DF91CF911F910F91FF90EF90DF90CF9000
:1014F000BF90AF909F908F9008950F931F93CF93BD
:10150000DF938C01D0E0C0E06115710519F00E94F5
:101510000209EC0160E174E0C8010E9402098C0F2D
:101520009D1FDF91CF911F910F9108950F931F93EE
:10153000CF93DF93EC010E94ED028C0160E174E037
:10154000CE010E940209800F911FDF91CF911F9160
:101550000F9108956115710511F00C94020990E046
:1015600080E008950F931F93CF93DF938B01FC01CD
:10157000C281D381209759F06A817B8101151105C1
:1015800019F06115710549F46017710759F4CE011E
:10159000DF91CF911F910F910895C8010E943332BE
:1015A000892BA9F30990D881C02DE4CF0E94B20AFB
:1015B000009749F0FC01248135812730310519F469
:1015C0008681978108950C94160866EA72E00E945D
:1015D000B20AFC01892B09F43FC0848195818330D4
:1015E000910548F5019708F445C00680F781E02D84
:1015F000309709F43FC0808161E070E0843749F1A1
:101600008B3291F18D3289F5319691E070E060E096
:101610004AE0819120ED280F2A3048F5469F90013D
:10162000479F300D1124682F880F770B6053710985
:10163000620F731FEECF8530910548F0059771F06A
:1016400066817781808591850E94C12F02C0668165
:10165000778181E0672B09F480E0089566817781C6
:10166000719561957109F5CF319690E0CFCF9111C9
:10167000F7CFEFCF70E060E0ECCFAF92BF92CF92A8
:10168000DF92EF92FF920F931F93CF93DF9300D0DF
:101690001F92CDB7DEB78C016B017A018091A8074C
:1016A0008333E9F45B016801C40ED51EC016D10670
:1016B000A9F10E944A068FE00E945506812F0E94E0
:1016C0005506802F0E9455060F5F1F4F80E00E9435
:1016D0005506F50181935F010E944006E7CF8433F0
:1016E00069F50E944A0619830A838F2D8F778B83B1
:1016F000EC8264E070E0CE0101960E942606A7010C
:1017000070E060E0C6010E942C32E114F10421F087
:10171000B701C6010E9426060E944006C7010F902D
:101720000F900F900F90DF91CF911F910F91FF902D
:10173000EF90DF90CF90BF90AF9008950E944A063F
:101740000F3F110509F030F419820A831B8263E010
:1017500070E0D1CF17FD0BC019820A8333E01695D4
:1017600007953A95E1F7007E08600B83F0CFC8013A
:1017700026E0969587952A95E1F7807E19830A835E
:101780000115104C18F480618B83E1CF8861FCCF88
:10179000CF93DF931F92CDB7DEB72091390430E0AD
:1017A000322F2227260F371F90E0982F882741E0FD
:1017B00050E0BE016F5F7F4F820F931F0E943D0B71
:1017C00089810F90DF91CF910895CF93C82F462F35
:1017D00061E070E00E94680761E070E08C2F0E9479
:1017E000C80B8111F9CFCF910895CF93C82F80E511
:1017F00091E00E94CC0268E070E08C2FCF910C94B5
:10180000E50BCF93C82F80E591E00E94CC0260E108
:1018100070E08C2FCF910C94E50BCF93DF93EC010C
:10182000888D883020F40E94010C88E0888FDF9139
:10183000CF910895CF93C82F80E591E00E94CC020C
:1018400063E070E08C2FCF910C94C80BCF93DF93A3
:10185000EC018C858830D0F40E941A0C843189F018
:10186000882379F0883169F021E08C3159F4E881DE
:10187000F9810084F185E02DCE01199521E0892BB5
:1018800009F420E0822FDF91CF91089580E0FBCF13
:10189000CF92DF92EF92FF92CF93DF93EC018C8592
:1018A000883068F40E94F50B0E94DC056B017C0116
:1018B0008C850E941A0C811109C088E08C87DF9109
:1018C000CF91FF90EF90DF90CF90089561E070E0AE
:1018D00080E090E00E94AA050E94DC05AB01BC01FB
:1018E0004C195D096E097F098D859E85B0E0A0E0E9
:1018F000481759076A077B07D8F28C850E94010CAC
:10190000DCCFCF93FC01C08D80E591E00E94CC023A
:1019100060E270E08C2F0E94E50B62E070E08C2F9B
:101920000E94C80B84FD16C062E070E08C2F0E94FC
:10193000C80B83FF0AC048E162E070E08C2F0E9470
:10194000680780E090E0CF91089580E591E00E94E3
:10195000CC02E3CF40E162E070E08C2F0E94680788
:1019600081E0F0CFCF93DF931F92CDB7DEB741E098
:1019700050E0BE016F5F7F4F90E080E00E943D0B22
:1019800089810F90DF91CF910895CF93DF93C4E1C8
:10199000D0E00E94B20C882361F061E070E080E04A
:1019A00090E00E94AA052197A1F780E0DF91CF91F6
:1019B000089581E0FBCF1F93CF93DF931F92CDB7A4
:1019C000DEB7182F80E591E00E94CC02812F0E94A3
:1019D0001D0727E0129FF0011124E059F84F2281E2
:1019E0003381377041E050E0BE016F5F7F4F820F5F
:1019F000931F0E943D0B89810F90DF91CF911F9122
:101A00000895FC01808D883040F4218D328D232B88
:101A100021F00E94DB0C90E008958FEF9FEF089576
:101A2000CF93DF93FC012485283028F08FEF9FEFC0
:101A3000DF91CF910895EC010190F081E02D0084B9
:101A4000F185E02D1995892B89F38C850E94DB0C9B
:101A500090E0EECFDA01E0913904F0E0FE2FEE27BE
:101A6000E60FF71F90E0982F8827A901BD018E0F80
:101A70009F1F0C943D0B8F929F92AF92BF92CF927B
:101A8000DF92EF92FF920F931F93CF93DF93CDB727
:101A9000DEB760970FB6F894DEBF0FBECDBF7C01F6
:101AA0009091A807911115C018E0812F60960FB68C
:101AB000F894DEBF0FBECDBFDF91CF911F910F9184
:101AC000FF90EF90DF90CF90BF90AF909F908F905E
:101AD000089508E0933309F404E06B0180E591E098
:101AE0000E94CC029E012F5F3F4F5901490110E037
:101AF00063E070E0812F0E94C80BF40181934F01D5
:101B00008823C1F01F5F0113F3CF00E0F50181913D
:101B10005F018D3149F0883139F08A51823020F0EF
:101B20000F5F1013F3CFC0CF60E170E0802F0E94F1
:101B3000E50B102FA12EB12C83EE93E00197F1F766
:101B400042E870E060E0812F0E9468074FEF62E09A
:101B500070E0812F0E946807B601C114D10491F48E
:101B6000809112029091130201968115F0EC9F076B
:101B700008F45CC0909313028093120260911202E9
:101B800070911302812F0E94520786E0EEE1F2E08D
:101B9000DE01199601900D928A95E1F7F701838194
:101BA0008F778C8784818D8785818E87A7014E5F93
:101BB0005F4F24E030E06CE070E0812F0E942B0743
:101BC000B601812F0E943C0726E030E0AE01475F5E
:101BD0005F4F66E070E0812F0E942B0761E070E0AC
:101BE000812F0E94E50B27E02A9DC0012B9D900DBF
:101BF00011249C012059384F7901F901118210827A
:101C000022E030E0AE01415F5F4F68E270E0812F7B
:101C10000E942A0D8F859889982789279827F70190
:101C2000938382831682158214823FCF80E090ECEA
:101C3000A1CFCF92DF92EF92FF920F931F93CF939A
:101C4000DF9300D000D0CDB7DEB78C016B017A01F5
:101C5000FC01808D883010F40E94010C88E992E02C
:101C60009A838983F60182819381A481B5818B83D4
:101C70009C83AD83BE83B701CE0101960E943B0DCC
:101C8000F801808F8830A0F4F586E486128E118EDC
:101C900081E026960FB6F894DEBF0FBECDBFDF9170
:101CA000CF911F910F91FF90EF90DF90CF9008950B
:101CB00080E0EFCF7F928F929F92AF92BF92CF92B0
:101CC000DF92EF92FF920F931F93CF93DF931F92B8
:101CD0001F92CDB7DEB7782E8B014A01590122E061
:101CE00030E0AE014F5F5F4F64E270E00E942A0D6A
:101CF000E980FA80FE24EF24FE24E00EF11E970115
:101D000037704091A807072D10E0433309F042C017
:101D1000085F1F4F102F0027110F110F110FC9015E
:101D2000800F911F4733C9F1A9014A0D5B1D413056
:101D3000584098F160E078E06B01C21AD30AA6011E
:101D4000B4010E945C06A5014C195D09B4016C0D3B
:101D50007D1DC8010E945C06EA0CFB1CF982EA8228
:101D600022E030E0AE014F5F5F4F64E270E0872D0C
:101D70000E942B070F900F90DF91CF911F910F9131
:101D8000FF90EF90DF90CF90BF90AF909F908F909B
:101D90007F900895005F1F4FBDCFA501B401DACF3A
:101DA000EF92FF921F93CF93DF931F921F92CDB7B5
:101DB000DEB7182F22E030E0AE014F5F5F4F60E2E8
:101DC00070E00E942A0DE980FA80FE24EF24FE24B0
:101DD00022E030E0AE014F5F5F4F60E270E0812FA4
:101DE0000E942A0D89819A81982789279827E816C9
:101DF000F90689F487E0189FF0011124E059F84FA3
:101E0000F582E482C7010F900F90DF91CF911F916F
:101E1000FF90EF9008957C01DBCF1F93CF93DF936A
:101E2000182F80E591E00E94CC02812F0E94D00EF5
:101E3000EC0163E070E0812F0E94C80B873121F034
:101E40008C3111F0D0E0C0E0CE01DF91CF911F9135
:101E50000895CF93DF93EC018C85883060F40E9465
:101E60001A0C873111F08C3131F48C850E940D0FE2
:101E70008115984088F3DF91CF910895FC01848506
:101E8000883010F40C940D0F90E080E008959F923C
:101E9000AF92BF92CF92DF92EF92FF920F931F9378
:101EA000CF93DF938C015B01942EE52EFC01C68855
:101EB000D788F08C80E591E00E94CC028F2D0E94A3
:101EC000D00EC92DDE2D8C179D0708F4EC019E0164
:101ED000A501B6018F2D0E945A0EF80186899789B7
:101EE0008C0F9D1F978B868BCE01DF91CF911F9119
:101EF0000F91FF90EF90DF90CF90BF90AF909F90A9
:101F000008958F929F92AF92BF92CF92DF92EF92FD
:101F1000FF920F931F93CF936C015B018A01FC0129
:101F2000C485C830F0F57A014130584018F0E12CF2
:101F300088E0F82E80E591E00E94CC028C2F0E9470
:101F4000D00E4C0163E070E08C2F0E94C80B8731EB
:101F500011F08C3149F58E149F0460F380E591E017
:101F60000E94CC029701A50170E060E08C2F0E94D6
:101F70005A0E60E270E08C2F0E94E50B62E070E088
:101F80008C2F0E94C80B84FD17C063E070E08C2F7B
:101F90000E94C80B81110BC081E090E0F601938391
:101FA000828310E000E010C0F12CE12CD7CF80E557
:101FB00091E00E94CC02E2CF40E162E070E08C2F21
:101FC0000E946807EF2841F3C801CF911F910F913C
:101FD000FF90EF90DF90CF90BF90AF909F908F9049
:101FE0000895FF920F931F93CF93DF931F921F9239
:101FF000CDB7DEB7F82E22E030E0AE014F5F5F4F85
:1020000066E270E00E942A0D09811A8110270127DB
:10201000102722E030E0AE014F5F5F4F66E270E0D4
:102020008F2D0E942A0D89819A81982789279827C8
:102030000817190749F4C8010F900F90DF91CF914D
:102040001F910F91FF9008958C01E3CF1F93CF93C1
:10205000DF93182F87E0189FE0011124C059D84F53
:1020600088819981009761F480E591E00E94CC021B
:10207000812F0E94F10F2E81821B91099983888301
:10208000DF91CF911F910895FC018485883010F471
:102090000C94261090E080E008954F925F927F921A
:1020A0008F929F92AF92BF92CF92DF92EF92FF9268
:1020B0000F931F93CF93DF931F921F92CDB7DEB77D
:1020C000782E6B014A01A82EB12C27E0829FC00117
:1020D0001124FC01E059F84F7F010081118180E556
:1020E00091E00E94CC020815190554F4872D0E9436
:1020F000F10FF70126818C01021B11091183008366
:102100000115110529F563E070E0872D0E94C80BC9
:10211000843159F0882349F001E010E08C3111F44A
:1021200010E000E0119501951109C8010F900F9082
:10213000DF91CF911F910F91FF90EF90DF90CF90A3
:10214000BF90AF909F908F907F905F904F90089539
:10215000801691060CF4840187E08A9DF0018B9D26
:10216000F00D1124E059F84FE280F380C114D1043E
:1021700051F12701F7E05F22872D0E941D07840D92
:10218000951D2091A807273309F453C09801240D09
:10219000351D2130384008F44CC020E038E04901BA
:1021A00084189508A401B6010E943D0B2601480C35
:1021B000591C6801C818D908872D0E941D07A6015F
:1021C000B2010E943D0BE00EF11E87E08A9DF001F6
:1021D0008B9DF00D1124E059F84FF382E2822081AB
:1021E0003181201B310B318320838681800F912F19
:1021F000911D8A3F910510F4232BF1F487E08A9D0D
:10220000F0018B9DF00D1124E059F84F1682F982F0
:10221000EA8222E030E0AE014F5F5F4F68E270E09B
:10222000872D0E942B0760E470E0872D0E94E50B4C
:102230007CCFA801B601C5CF868377CFCF93DF933C
:10224000FC01218D328D2115310529F48FEF9FEF8F
:10225000DF91CF910895EC01808D4217530708F06C
:10226000A9010E944D101816190684F7298D3A8D80
:10227000281B390B3A8F298FEBCF0F931F93CF93E6
:10228000DF931F92CDB7DEB7FC01218D328D232B5A
:1022900041F48FEF9FEF0F90DF91CF911F910F913E
:1022A00008958C0141E050E0BE016F5F7F4FFC015B
:1022B000808D0E944D10181619065CF7F801818D6B
:1022C000928D0197928F818F898190E0E4CFCF9397
:1022D000DF931F92CDB7DEB741E050E0BE016F5FE4
:1022E0007F4FFC0184850E944D101816190634F4A6
:1022F000898190E00F90DF91CF9108958FEF9FEF4C
:10230000F9CFFC018485883010F40C944D1090E0D6
:1023100080E008958F929F92AF92BF92CF92DF920A
:10232000EF92FF920F931F93CF93DF9300D000D0D3
:1023300000D01F92CDB7DEB79091A807911115C0BC
:1023400018E0812F2A960FB6F894DEBF0FBECDBFDE
:10235000DF91CF911F910F91FF90EF90DF90CF9081
:10236000BF90AF909F908F90089528E0F22E933306
:1023700011F494E0F92E6B01082F80E591E00E94A2
:10238000CC029E012F5F3F4F5901490110E063E0ED
:1023900070E0812F0E94C80BF40181934F018823C4
:1023A000C1F01F5FF112F3CFF12CF50191915F01A4
:1023B0009D3149F0983139F09A51923020F0F394E0
:1023C0001F11F3CFBDCF60E170E08F2D0E94E50BB0
:1023D0001F2DE12EF12C83EE93E00197F1F7402FB2
:1023E00070E060E0812F0E9468074FEF62E070E0CC
:1023F000812F0E946807B601CD2889F480911202CE
:102400009091130201968115F0EC9F0798F190933B
:102410001302809312026091120270911302812FB5
:102420000E94520761E070E0812F0E94E50B27E0D7
:102430002E9DC0012F9D900D11249C012059384FD5
:102440007901F9011182108222E030E0AE01475F8C
:102450005F4F68E270E0812F0E942A0D89859A857E
:10246000982789279827F7019383828316821582FC
:10247000148267CF80E090ECCACF0F931F93CF9365
:10248000DF93EC018B01888D883010F40E94010CE1
:10249000B80182E00E948A11888F883050F41D872D
:1024A0000C871A8E198E81E0DF91CF911F910F91C9
:1024B000089580E0F9CFCF92DF92EF92FF921F93C1
:1024C000CF93DF93EC017B016A018C85883048F45F
:1024D0000E941A0C882319F08C850E94F50B88E065
:1024E0008C87F70182819381A481B5810097A10532
:1024F000B10551F490E080E0DF91CF911F91FF9002
:10250000EF90DF90CF9008958F3F9F4FAF4FBF4F19
:1025100089F370E060E081E20E948A11182F8C87B5
:10252000883040F780E591E00E94CC02A7014E5F21
:102530005F4F24E030E06CE070E0812F0E942B07B9
:10254000B601812F0E943C0764E070E0812F0E9459
:10255000E50B0E94DC056B017C018C850E941A0C46
:10256000873111F18C3101F1882321F20E94DC05C1
:10257000AB01BC014C195D096E097F098D859E85F3
:10258000B0E0A0E084179507A607B70738F061E030
:1025900070E080E090E00E94AA05DFCF8C850E9469
:1025A000010C88E08C87A6CF81E090E0A5CF0F9347
:1025B0001F93CF93DF931F921F92CDB7DEB7FC011D
:1025C00024852830E0F48C0180E591E00E94CC0263
:1025D00022E030E0AE014F5F5F4F60E170E0F80154
:1025E00084850E942A0D89819A81982789279827B6
:1025F0000F900F90DF91CF911F910F91089590E070
:1026000080E0F6CF0F931F93CF93DF931F921F921B
:10261000CDB7DEB7FC0124852830E0F48C0180E5DD
:1026200091E00E94CC0222E030E0AE014F5F5F4FAC
:1026300064E070E0F80184850E942A0D89819A8106
:102640009827892798270F900F90DF91CF911F919E
:102650000F91089590E080E0F6CFDC0188E992E0E8
:102660008D939D9384E0FB0101900D928A95E1F793
:102670000895EF92FF920F931F93CF93DF9300D0B3
:102680001F92CDB7DEB78C017B01FB0184858830BA
:10269000A8F088E992E0F801918380831282138286
:1026A00014821582C8010F900F900F900F90DF9148
:1026B000CF911F910F91FF90EF90089580E591E0E9
:1026C0000E94CC0224E030E0AE014F5F5F4F6CE02F
:1026D00070E0F70184850E942A0DBE016F5F7F4F75
:1026E000C8010E942D13DECF0F931F93CF93DF936A
:1026F00000D000D01F921F92CDB7DEB78C01D80159
:1027000059964D915C915A974115510551F0ED91B3
:10271000FC91048CF58DE02D70E060E0C801199506
:10272000EECFF801808D0E942610892BB1F148E090
:1027300050E0BE016F5F7F4FD80158968C910E9488
:102740004D1018161906F4F4D801509684E0FE01D5
:10275000319601900D928A95E1F78D8190E0982F46
:1027600088272E81820F911DF801958B848B8F8194
:10277000282F30E0322F22278885820F932F911D3A
:10278000928F818F28960FB6F894DEBF0FBECDBF13
:10279000DF91CF911F910F91089590E080E0F2CFEB
:1027A0004F925F926F927F928F929F92AF92BF9261
:1027B000CF92DF92EF92FF920F931F93CF93DF930D
:1027C000CDB7DEB763970FB6F894DEBF0FBECDBFAF
:1027D0007C016B013A01FB0120E090E080E06AE0BF
:1027E0003191332309F461C040ED430F4A3008F0C2
:1027F0004DC0689FA001699F500D1124CA01C09768
:10280000830F911D37FD9A958F3F910549F340F352
:10281000F7014281538164817581809172089091A2
:102820007308A0917408B0917508481759076A0792
:102830007B0709F40DC28701085F1F4F0E94DC056A
:102840006F7077277C5FC8010E943D12813009F0CC
:1028500004C288E992E09A838983F7018281938197
:10286000A481B5818B839C83AD83BE8345E350E017
:10287000BE016F5F7F4FC8010E94BD07892BA9F57C
:10288000D12CC12CC8010E940D0C17C03E3209F09A
:10289000BFCF233009F4BCCFD301A20FB11D1296D4
:1028A0008C932F5F90E080E09BCF233009F0B0CF76
:1028B000F3018583CC24C394D12CC60163960FB653
:1028C000F894DEBF0FBECDBFDF91CF911F910F9166
:1028D000FF90EF90DF90CF90BF90AF909F908F9040
:1028E0007F906F905F904F9008950E94DC05F701F4
:1028F0007783668342E050E0B7016A5F7F4FC8018B
:102900000E94470F81E090E09A83898342E050E083
:10291000BE016F5F7F4FC8010E94470F80E091E0CA
:102920009A83898342E050E0BE016F5F7F4FC80108
:102930000E94470F1A82198242E050E0BE016F5F89
:102940007F4FC8010E94470F42E050E0BE016F5F19
:102950007F4FC8010E94470F42E050E0BE016F5F09
:102960007F4FC8010E94470F5601F60180818823DE
:1029700001F16501F60181912F01882311F08E325A
:10298000B1F446018A189B081814190474F48D8652
:1029900041E050E0BE01635F7F4FC8010E94470FD6
:1029A000A401B501C8010E94470F5201DECF6201A8
:1029B000E1CF1D8641E050E0BE01635F7F4FC8015B
:1029C0000E94470FC12CDD24D394DA82C98242E0F1
:1029D00050E0BE016F5F7F4FC8010E94470FDA824F
:1029E000C98242E050E0BE016F5F7F4FC8010E9484
:1029F000470FC8010E94810C892B09F441CFF3E0F5
:102A0000AF2EB12C230122E0420E511CD4C0F7019D
:102A10004281538164817581808D918DA28DB38DAA
:102A2000481759076A077B0709F008C1848D958DFF
:102A3000C59709F003C181A192A15DEFC52EDD24E8
:102A4000DA940C970CF4ADC04CE050E0BE016F5F1F
:102A50007F4FC8010E941E118B819C819827892776
:102A600098279A8B898BF7014681578129813A8172
:102A70004217530709F0E7C097FFE5C08F709270C7
:102A80003BEFC32EDD24DA94892B09F08AC06F80D6
:102A900078847624672476242AEFC22EDD24DA9403
:102AA0006114710409F47DC0D12CC12C8D819E81EB
:102AB000982789279827C816D906F8F441E050E0EE
:102AC000BE01635F7F4FC8010E941E114D854423E4
:102AD00031F050E070E060E0C8010E941E118D8569
:102AE0008111ECCF44E050E070E060E0C8010E944A
:102AF0001E11FFEFCF1ADF0AD9CF912C812C41E0B4
:102B000050E0BE016D5E7F4FC8010E941E114B89CF
:102B1000842F807C09F06CC0442331F050E070E0D9
:102B200060E0C8010E941E118B898111E8CF42E04C
:102B300050E0BE01615F7F4FC8010E941E1142E05C
:102B400050E0BE01635F7F4FC8010E941E1144E048
:102B500050E070E060E0C8010E941E1142E050E0C9
:102B6000BE016F5E7F4FC8010E941E118F8598893C
:102B700049895A898115914009F043C0CD84DE848A
:102B8000DC24CD24DC2481E0C816D104D1F5411524
:102B9000544009F04AC044E050E0B201C8010E942C
:102BA0001E1121E0A21AB10809F46CCEFFEFCF1676
:102BB000DF0609F067CE0E94DC053B014C01C8012D
:102BC0000E947413181619060CF421CF0E94DC051C
:102BD0006619770988099909693873418105910552
:102BE00048F562E370E080E090E00E94AA05E7CF3C
:102BF00041E050E070E060E0C8010E941E111B8AB5
:102C000093CF54274527542770E060E0C8010E9405
:102C10001E11FFEF8F1A9F0A6814790409F06FCF15
:102C200096EFC92EDD24DA94BCCFE7EFCE2EDD245B
:102C3000DA94B7CFCC24CA94DC2CB3CF6EEFC62E77
:102C4000DD24DA94AECF4CEFC42EDD24DA94A9CF84
:102C50008EEFC82EDD24DA9430CED12CC12C2DCEAF
:102C6000CF92DF92EF92FF920F931F93CF93DF9358
:102C7000CDB7DEB7AF970FB6F894DEBF0FBECDBFAE
:102C80007C016A0108E912E01A8309831C861B860D
:102C900088EE93E0A0E0B0E08D879E87AF87B88B89
:102CA00088E292E09A878987188F0F8B198E1A8E87
:102CB0001B8E1C8E88E089A31BA70AA71CA61DA635
:102CC0001EA61FA68091660890916708A0916808CB
:102CD000B09169088EA39FA3A8A7B9A78B839C83F3
:102CE000AD83BE8318861F82AE01465D5F4FCE0165
:102CF00001960E94D01381309105B1F4D701ED9176
:102D0000FC910488F589E02D1DA30CA38CA59DA53D
:102D1000AEA5BFA58EA39FA3A8A7B9A7A601BE0174
:102D20006C5D7F4FC7011995AF960FB6F894DEBF63
:102D30000FBECDBFDF91CF911F910F91FF90EF900C
:102D4000DF90CF900895CF92DF92EF92FF920F9392
:102D50001F93CF93DF93CDB7DEB7AF970FB6F8943D
:102D6000DEBF0FBECDBF8C016B017A0188E992E016
:102D70009A8389831B821C821D821E821C861B866D
:102D800048EE53E060E070E04D875E876F87788B98
:102D900028E232E03A872987988F8F8B198E1A8E16
:102DA0001B8E1C8E28E029A39BA78AA71CA61DA604
:102DB0001EA61FA6D8011C968C91883060F40E9434
:102DC0001A0C882321F0F80184850E94F50B88E015
:102DD000D8011C968C938091660890916708A09109
:102DE0006808B09169088EA39FA3A8A7B9A78B8391
:102DF0009C83AD83BE8318861F82AE01465D5F4F04
:102E0000B601CE0101960E94D0130097C1F0D801FF
:102E1000ED91FC910684F785E02D88E992E09DA371
:102E20008CA38CA59DA5AEA5BFA58EA39FA3A8A787
:102E3000B9A7A701BE016C5D7F4FC8011995AF9678
:102E40000FB6F894DEBF0FBECDBFDF91CF911F91BB
:102E50000F91FF90EF90DF90CF9008957F928F9227
:102E60009F92AF92BF92CF92DF92EF92FF920F9319
:102E70001F93CF93DF93CDB7DEB7A6970FB6F89425
:102E8000DEBF0FBECDBF8C01762E942E852E20E2A4
:102E9000A22ECE0101967C01DC01EA2D1D92EA955D
:102EA000E9F76801F3E4CF0ED11C88E992E09AA318
:102EB00089A38FEF8BA38CA38DA38EA343E450E053
:102EC000BE016F5D7F4FC6010E94BD07019609F4E8
:102ED000BFC081E089838A8386E0B82EBB821C82D2
:102EE000D80114966D917D918D919C9117970E94B8
:102EF00009306D837E838F83988789869A8680E8E0
:102F000090E09C878B874CE150E0B701C6010E949E
:102F1000470FFE0137968AE1DF011D928A95E9F796
:102F20004801B8E08B0E911CF401D70101900D927D
:102F3000BA94E1F740E150E0B701C6010E94470FA3
:102F4000F7011192AA94E9F796E0A92EB12C40E27C
:102F500050E0B701C6010E94470FF1E0AF1AB10877
:102F6000B1F783E6898392E89A8393E59B838C8308
:102F700085E38D8381E08E837F829DE3988797E050
:102F800099878A8786E0F401DE011B9601900D92F5
:102F90008A95E1F78CE0898B8A8B6BEA72E0CE012F
:102FA00043960E943C32D8011B966C91CE01499603
:102FB0000E94D402F8016485CE014B960E94D4028F
:102FC000D8011D966C91CE014D960E94D4024EE11F
:102FD00050E0B701C6010E94470FB3E07B121EC04C
:102FE00082E3898384E08A83F80196859B839785B1
:102FF0009C8390899D8391899E8396E39F83888794
:10300000828D8987838D8A87848D8B87858D8C8738
:103010004CE050E0B701C6010E94470F87E3898367
:1030200086E08A8391E09B8393E09C838D838FE08D
:103030008E838AE38F838BE388878FEF898749E0CC
:1030400050E0B701C6010E94470FC6010E94810CE3
:10305000A6960FB6F894DEBF0FBECDBFDF91CF911D
:103060001F910F91FF90EF90DF90CF90BF90AF90A6
:103070009F908F907F9008950F931F93CF93DF932E
:10308000EC0188819981009759F02A813B812617AC
:10309000370730F081E0DF91CF911F910F910895B4
:1030A0008B016F5F7F4F0E943531009759F09983F4
:1030B00088831B830A832C813D81232B59F7FC01D4
:1030C0001082E8CF80E0E7CFCF93DF93EC01198245
:1030D00018821B821A821D821C8270E060E00E94AE
:1030E0003C182881398181110FC02115310519F053
:1030F000C9010E94AC30198218821D821C821B8279
:103100001A82DF91CF9108951D821C8260EC72E0DB
:10311000C901DF91CF910C943C32CF92DF92EF92B4
:10312000FF920F931F93CF93DF9300D01F92CDB7E1
:10313000DEB77C01862F4AE09E012F5F3F4F690179
:10314000B90190E00E94262DF60101900020E9F7D8
:103150003197EC19FD09D9F0D70114960D911C9106
:103160000E0F1F1FB801C7010E943C18882381F071
:10317000F7012081318184819581B601820F931FEF
:103180000E943C32D70115961C930E93149781E050
:103190000F900F900F900F90DF91CF911F910F9193
:1031A000FF90EF90DF90CF9008953F924F925F9203
:1031B0006F927F928F929F92AF92BF92CF92DF9247
:1031C000EF92FF920F931F93CF93DF93CDB7DEB7AC
:1031D000EA970FB6F894DEBF0FBECDBF7C012A017F
:1031E0003B0169010E94DC054B015C0187010D5B1D
:1031F0001F4FC8010E947413181619069CF00E94F4
:10320000DC05681979098A099B094616570668067C
:10321000790608F466C162E370E080E090E00E9405
:10322000AA05E7CF42E250E0BE016F5F7F4FC801C1
:103230000E941E1189818230D1F0312C832DEA96B3
:103240000FB6F894DEBF0FBECDBFDF91CF911F91B7
:103250000F91FF90EF90DF90CF90BF90AF909F9035
:103260008F907F906F905F904F903F900895F801FE
:10327000848995898334910501F76D817E818F81E1
:1032800098850E9409304B015C01F6018082918291
:10329000A282B38246E050E0B701685F7F4FCE0163
:1032A0004D960E941632892B41F6F701808191815B
:1032B000A281B38188169906AA06BB0608F4BDCF81
:1032C00084819581A681B78188159905AA05BB05DA
:1032D00008F4B3CF89899A89AB89BC898687978797
:1032E000A08BB18B4EEC50E070E060E0C8010E9412
:1032F0001E11312CC701829698AB8FA7F701B696A5
:10330000FAABE9AB08969CAB8BAB67019AE1C90EAF
:10331000D11CBD96FEABEDABC701429698AF8FAB0B
:10332000FD97FAAFE9AF4701FEE18F0E911CF8015E
:10333000818D928D181619060CF080CFC8010E945D
:103340003D118333910509F4B2C014F58130910524
:1033500009F464C044F4892B51F3C8010E943D1163
:10336000AC01552775C08330910509F462C00697FA
:10337000A1F7C8010E943D11B82E44E050E0B4010D
:10338000C8010E941E11EB2DE450FF0BAF0160C07D
:103390008A33910509F45FC084F585339105B1F155
:1033A000C697D9F6C8010E943D115C01B601CE0155
:1033B00089960E942D138BA59CA5ADA5BEA5892B32
:1033C0008A2B8B2BB1F0EDA9FEA940805180628041
:1033D0007380B601CE0183960E942D138DA19EA10C
:1033E000AFA1B8A5A501481659066A067B0609F0E3
:1033F000B8CF44E050E0B60118C08B33910509F412
:1034000040C08F3F910509F492CFA7CFC8010E9419
:103410003D11C8010E943D11382E89CFC8010E947C
:103420003D1144E050E06FA978ADC8010E941E1123
:103430007ECFC8010E943D11B82E44E050E069AD36
:103440007AADC8010E941E118B2D8450990BAC01DE
:1034500070E060E0EACFC8010E943D1144E050E016
:1034600069A97AA9C8010E941E11F70166A177A176
:1034700080A591A50E94093066A377A380A791A794
:1034800056CFC8010E943D1144E050E06BA97CA9D1
:10349000C8010E941E11F70162A573A584A595A518
:1034A0000E94093062A773A784A795A740CFC801DF
:1034B0000E943D1144E050E06FA578A9C8010E9428
:1034C0001E11F70162A173A184A195A10E94093088
:1034D00062A373A384A395A366A777A780AB91ABE0
:1034E00026CF33243A94AACECF92DF92EF92FF9266
:1034F0000F931F93CF93DF938C017B01DC01159613
:10350000CD91DC916E01C617D70708F46B01C60197
:1035100006960E941030FC0190E080E03097B9F0F0
:10352000D382C282D80113968D919C911497918376
:1035300080831496FC93EE931397CC0FDD1F1696A1
:10354000DC93CE931597CF010696F582E482DF9146
:10355000CF911F910F91FF90EF90DF90CF90089542
:10356000DC011396ED91FC91309789F044815581EF
:103570009B01240F351FA281B381A217B30738F036
:10358000CF010696840F951F3583248308950C94EC
:10359000741AFF920F931F93CF93DF93EC01F62ED3
:1035A00088819981DC011396ED91FC91309701F1AE
:1035B000448155819A012F5F3F4F62817381621769
:1035C0007307B0F0DF011696A40FB51F358324836F
:1035D000FC928C819D81892BE1F08C819D810196EB
:1035E0009D838C83DF91CF911F910F91FF90089560
:1035F0006C817D816F5F7F4F0E94741A8C016A819C
:103600007B816115710541F4892B61F41B830A8369
:10361000E4CFBB83AA83E1CF0097C1F34C815D81E6
:103620000E942332EC81FD81E00FF11FF082EECF8A
:10363000CF92DF92FF920F931F93CF93DF9300D02F
:1036400000D0CDB7DEB78C01FC01868197819A83CB
:1036500089831C821B821E821D826801F2E0CF0ECC
:10366000D11CC6010E946808C6010E944908F82EB4
:1036700087E2F81619F0E2E2FE122CC0F80185810B
:1036800084831582C6010E944908882309F446C034
:10369000F801958194831582F81609F43FC08C35A2
:1036A00089F4C6010E944908E6EBF2E09081992373
:1036B00019F089130DC08181882381F1F80195816A
:1036C00094831582682FCE0101960E94C91ADACF21
:1036D0003296ECCFFFE2FF15B4F589E38F1534F491
:1036E000EEE5EF158CF4FAE7FF158CF0F801858113
:1036F000848315826F2DCE0101960E94C91AC601DE
:103700000E944908F82EE6CF80E48F15E4F4EAE53C
:10371000EF1564F783ED8F0D823040F360E0CE014A
:1037200001960E94C91A8B819C8126960FB6F89447
:10373000DEBF0FBECDBFDF91CF911F910F91FF90E4
:10374000DF90CF900895FBE2FF12E4CFCFCFAF928E
:10375000BF92CF92DF92EF92FF920F931F93CF937E
:10376000DF9300D000D0CDB7DEB77C01DC01189626
:103770008C91811104C00E9416088C0188C0815070
:10378000F7018087C080D180B60184E090E00E947C
:103790003A088C01009709F48CC0DC011196DC9288
:1037A000CE9213961C921E9212976701B2E0CB0E36
:1037B000D11C6BE7C6010E94D1088823E1F26DE7B6
:1037C000C6010E94D10881115EC0C7010E94181B6A
:1037D0005C01892B81F26AE3C6010E94D10888232B
:1037E00051F21A821982BE016F5F7F4FC7010E949A
:1037F0005D1C882309F4BFCFB501C8010E94B20A3D
:10380000009759F5F801608171818AE090E00E948B
:103810003A08009741F0DC0111961C921E92159611
:103820001C921E921497D8011296ED91FC9130973C
:1038300029F4F8019383828308C0F9012081318142
:1038400021153105D1F791838083009709F493CF37
:10385000DC011396BC92AE92129726E0FE013196DF
:10386000DC01149601900D922A95E1F76DE7C601EF
:103870000E94D108811107C06CE2C6010E94D108E4
:103880008111A3CF78CFF70180858F5F8087C80132
:1038900026960FB6F894DEBF0FBECDBFDF91CF9155
:1038A0001F910F91FF90EF90DF90CF90BF90AF905E
:1038B00008950E9416088C0178CF8F929F92AF9244
:1038C000BF92CF92DF92EF92FF920F931F93CF930D
:1038D000DF9300D000D0CDB7DEB77C016B015C0177
:1038E00082E0A80EB11CC5010E946808C5010E94B3
:1038F00049088B35F9F08B3709F4ADC0C5010E943A
:10390000490811E0873219F0823209F010E0C7014E
:103910000E94181B009709F480C021E030E01123B9
:1039200009F4A3C022E030E0F601318320839383C1
:10393000828374C0F7018085811104C00E94280829
:103940008C0166C08150808780809180B40184E0C2
:1039500090E00E943A088C01009709F48CC0FC01A9
:1039600091828082138212826BE5C5010E94D10888
:10397000882321F36DE5C5010E94D108811144C05F
:103980001A821982BE016F5F7F4FC7010E945D1CC2
:103990008823A1F2F8016081718188E090E00E94A3
:1039A0003A08DC01892B39F011961C921E9213966D
:1039B0001C921E921297F801228133812115310544
:1039C00021F4B383A28308C09C01F9018081918115
:1039D0000097D1F7B183A083109709F4AFCF86E0A9
:1039E000FE013196129601900D928A95E1F76DE5F0
:1039F000C5010E94D108811107C06CE2C5010E9477
:103A0000D1088111BDCF9ACFF70180858F5F808764
:103A1000F80180819181892BA9F410E0812F2696ED
:103A20000FB6F894DEBF0FBECDBFDF91CF911F91CF
:103A30000F91FF90EF90DF90CF90BF90AF909F904D
:103A40008F90089586E090E0F60191838083138340
:103A5000028311E0E3CFC7010E94A71BFC01208174
:103A60003181232BD1F227E030E0F601318320832E
:103A700093838283EECF0E9428088C0175CF1F921A
:103A80000F920FB60F9211240BB60F922F933F9304
:103A90004F935F936F937F938F939F93AF93BF9356
:103AA000EF93FF9389EA97E00E948503FF91EF91DE
:103AB000BF91AF919F918F917F916F915F914F9146
:103AC0003F912F910F900BBE0F900FBE0F901F9044
:103AD00018951F920F920FB60F9211240BB60F92EA
:103AE0002F938F939F93EF93FF93E091B907F091FA
:103AF000BA078081E091BF07F091C00782FD1DC029
:103B000090818091C2078F5F8F732091C3078217C6
:103B100041F0E091C207F0E0E755F84F958F8093B0
:103B2000C207FF91EF919F918F912F910F900BBE44
:103B30000F900FBE0F901F9018958081F2CF1F92AB
:103B40000F920FB60F9211242F933F938F939F9351
:103B5000AF93BF9380912D0490912E04A0912F04D8
:103B6000B091300430912C0423E0230F2D3758F509
:103B70000196A11DB11D20932C0480932D049093D8
:103B80002E04A0932F04B0933004809131049091BF
:103B90003204A0913304B09134040196A11DB11DEB
:103BA0008093310490933204A0933304B09334048F
:103BB000BF91AF919F918F913F912F910F900FBE29
:103BC0000F901F90189526E8230F0296A11DB11D96
:103BD000D2CFCF92DF92EF92FF920F931F93E82FF5
:103BE000F92F05C0015011092109310961F19081B6
:103BF00096239417B9F305C0015011092109310921
:103C000011F1908196239413F7CFC12CD12CE12C84
:103C1000F12C0AC08FEFC81AD80AE80AF80A0C1566
:103C20001D052E053F0579F080818623841791F3C9
:103C30006C2D7D2D8E2D9F2D1F910F91FF90EF905C
:103C4000DF90CF90089560E070E080E090E01F91F9
:103C50000F91FF90EF90DF90CF900895E9EAF7E0A1
:103C60001382128248EE53E060E070E04483558393
:103C70006683778388E592E09183808385EC90E08A
:103C80009587848784EC90E09787868780EC90E026
:103C9000918B808B81EC90E0938B828B82EC90E017
:103CA000958B848B86EC90E0978B868B118E128E91
:103CB000138E148EE6E4F8E088E992E09183808325
:103CC0001282138214821582ECE4F8E091838083DF
:103CD0001282138214821582E2E5F8E091838083D8
:103CE0001282138214821582E8E5F8E091838083C2
:103CF0001282138214821582EEE5F8E091838083AC
:103D00001282138214821582EAE6F8E0918380839E
:103D10001282138214821582E4E6F8E09183808394
:103D20001282138214821582E0E7F8E09183808387
:103D30001282138214821582E6E7F8E09183808371
:103D40001282138214821582E4EAF8E09183808360
:103D50001282138214821582E5E9F8E0138212823E
:103D600044835583668377838AE692E091838083D8
:103D700088E0848788EE93E096878587E2E8F8E01C
:103D800085E0808386E181838CE798E00C94641859
:103D9000CF93DF93CDB7DEB7CB55D1400FB6F894B4
:103DA000DEBF0FBECDBF789484B5826084BD84B57C
:103DB000816084BD85B5826085BD85B5816085BD26
:103DC00080916E00816080936E00109281008091DE
:103DD0008100826080938100809181008160809366
:103DE0008100809180008160809380008091B1008B
:103DF00084608093B1008091B00081608093B000B6
:103E00008091910082608093910080919100816007
:103E100080939100809190008160809390008091C8
:103E2000A10082608093A1008091A10081608093B5
:103E3000A1008091A00081608093A0008091210169
:103E40008260809321018091210181608093210112
:103E50008091200181608093200180917A008460AC
:103E600080937A0080917A00826080937A008091BA
:103E70007A00816080937A0080917A0080688093D4
:103E80007A001092C100E091B907F091BA0782E080
:103E90008083E091B507F091B6071082E091B707F3
:103EA000F091B8078FEC80831092C107E091BD07B5
:103EB000F091BE0786E08083E091BB07F091BC07DC
:103EC000808180618083E091BB07F091BC07808195
:103ED00088608083E091BB07F091BC078081806897
:103EE0008083E091BB07F091BC0780818F7D808348
:103EF00061E086E00E94DA0461E087E00E94DA0473
:103F000060E088E00E94DA0461E087E10E94DA0460
:103F100061E088E10E94DA0461E089E10E94DA044C
:103F200061E08AE10E94DA0461E08BE10E94DA0438
:103F300061E08CE10E94DA0461E08DE10E94DA0424
:103F400061E08EE10E94DA0461E08FE10E94DA0410
:103F500061E080E20E94DA0461E081E20E94DA041A
:103F600061E082E20E94DA0461E083E20E94DA0406
:103F700061E084E20E94DA0461E085E20E94DA04F2
:103F800061E086E20E94DA0461E087E20E94DA04DE
:103F900061E088E20E94DA0461E089E20E94DA04CA
:103FA00061E08AE20E94DA0480919B0481112AC0B8
:103FB000109283041092820488EE93E0A0E0B0E0B7
:103FC0008093840490938504A0938604B09387041F
:103FD00088E292E0909381048093800488E992E0E3
:103FE00090938F0480938E04109290041092910409
:103FF000109292041092930488E08093980481E0D8
:1040000080939B048DE394E090933C0480933B0465
:1040100080913A0481119BC060E372E080E090E0FF
:104020000E94AA051FB7F89480913804811127C017
:10403000E1E9F4E08491E7EDF4E09491E82FF0E019
:10404000EE0FFF1FE25FFD4FA591B491EC91E923C4
:1040500021F461E085E30E94AC0461E085E30E9405
:10406000DA048CB580618CBD8CB580648CBD61E058
:1040700084E30E94DA0461E083E30E94DA04809121
:1040800038048F5F809338041FBFE6E6F4E0E491C4
:10409000F0E0EE0FFF1FEC50FE4F8591949190934E
:1040A000370480933604ECEAF4E0E491E0933504BD
:1040B00061E08AE00E94DA040E94400680E591E017
:1040C0000E94CC0284E38093A80780E80E940A073C
:1040D0000E94C50C882309F4E7C188E00E940A0702
:1040E0000E94B20C883009F0DFC180E10E940A070B
:1040F0000E94B20C803109F0D7C180E00E940A070B
:104100000E94B20C182F8111CFC141E050E0BE01D6
:104110006F5F7F4F8FE190E00E943D0B898183307C
:1041200009F0C2C180E48093390442E06EE170E09E
:10413000812F0E94680742E06FE170E0812F0E94AA
:1041400068071F5F183089F781E080933A0480E5A3
:1041500091E00E94CC0246E050E060E072E089E02D
:1041600090E00E945C0688E992E09A8389831B8232
:104170001C821D821E8244E050E0BE016D5F7F4FB5
:104180008FE090E00E945C0600913B0410913C049B
:10419000D80192961D921D921D921C929597F8013E
:1041A00016A217A210A611A69A961D921D921D92F4
:1041B0001C929D9780E69AEEA0E0B0E086AB97ABAC
:1041C000A0AFB1AF80EA9FE0A0E0B0E082AF93AFD4
:1041D000A4AFB5AF3E9684E1DF011D928A95E9F761
:1041E00086E0E0E0F2E0D801189601900D928A9501
:1041F000E1F7F801EE5BFF4FC85ADE4FF983E88321
:10420000C855D14010820E94CE2C2FEC37E040E000
:1042100050E00E947F2EDC01CB010196A11DB11D53
:10422000F80184839583A683B78380839183A283D7
:10423000B3835801F3E4AF0EB11CC5010E940D0C0D
:1042400064E470E0C5010E943D12882309F49DC119
:104250000E94DC052B013C0148EEC42E43E0D42E25
:10426000E12CF12C52E0252E912C812CC85ADE4FE6
:10427000A881B981C855D1408C918330E1F1811179
:104280008BC1F80184819581A681B7810196A11D1A
:10429000B11D84839583A683B7830E94DC056419CE
:1042A000750986099709A70196010E94B12EA901F7
:1042B00061E0C8010E942E1781E0C85ADE4FA88134
:1042C000B981C855D1408C93F1E08F16910471F2F9
:1042D0000E94DC056419750986099709D801D696EC
:1042E0002D913D914D915C91D9972617370748073D
:1042F000590708F0B9CFC5010E940D0CF80184815F
:104300009581A681B7810196A11DB11D84839583F6
:10431000A683B7830E94DC05F801FE966083718353
:10432000828393838A94892809F02FC180E591E0E4
:104330000E94CC0200913B0410913C04B801625FE2
:104340007F4FCE0101960E942D1344E050E0BE0144
:104350006D5F7F4F8FE090E00E945C06B8016A5E5F
:104360007F4FCE0101960E942D1344E050E0BE0124
:104370006D5F7F4F81E090E00E945C06B8016E5E49
:104380007F4FCE0101960E942D1344E050E0BE0104
:104390006D5F7F4F85E090E00E945C06B801625E31
:1043A0007F4FCE0101960E942D138B819C81AD81A0
:1043B000BE818093660890936708A0936808B093C5
:1043C00069080E9416057F73809112029091130272
:1043D0006827792770931302609312029E012F5F62
:1043E0003F4F190180911102882309F424C2CE01A4
:1043F0008F5B9E4F0E94641810E000E041E2F42EB3
:10440000F801F09257006491CE018F5B9E4F0E949D
:104410008D180E5F1F4F0630110591F70EE010E06A
:1044200031E2F32EF801F09257006491CE018F5BD8
:104430009E4F0E948D180F5F1F4F0831110591F795
:10444000CB5BDE4F68817981C554D140CF5BDE4FB5
:1044500028813981C154D14040E0842F90E08617F3
:10446000970730F4F901E80FF91F2115310521F400
:104470001092A304E3EAF4E05081552309F46BC1E0
:104480008617970730F4F901E80FF91F2115310558
:1044900021F41092A304E3EAF4E05081805D984F88
:1044A000DC015C934F5FD9CF87E38093A80780E856
:1044B0000E940A070E94C50C882329F188E00E9407
:1044C0000A070E94B20C8830F1F480E10E940A07CA
:1044D0000E94B20C182F8031B1F480E00E940A07CC
:1044E0000E94B20C81110FC041E050E0BE016F5F2D
:1044F0007F4F89E390E00E943D0B8981843019F45D
:104500001093390421CE83E38093A80780E80E94AA
:104510000A070E94C50C8823B1F180E10E940A07B6
:104520000E94B20C803179F582E10E940A070E9454
:10453000B20C823141F580E00E940A070E94B20C61
:10454000811121C084E08093390415E5C95ADE4FFA
:104550001883C755D14041E050E0BE01695A7E4FF3
:104560008BE190E00E945C06CA5ADE4F1883C65564
:10457000D14041E050E0BE016A5A7E4F8AE190E0AE
:104580000E945C06E1CD1092A80768E272E089EA19
:1045900097E00E94960A22CF843019F5F8018481B1
:1045A0009581A681B7810196A11DB11D8483958354
:1045B000A683B7830E94DC056419750986099709EB
:1045C000A70196010E94B12EA90163E0C8010E94D3
:1045D0002E17C85ADE4FA881B981C855D1402C92F8
:1045E00073CE813079F5F80142AD53AD64AD75AD50
:1045F0009E012F5F3F4FC8010E94D518382EF2E070
:104600008F139EC089819A81AB81BC81F80184831C
:104610009583A683B7830E94DC0564197509860912
:104620009709A70196010E94B12EA90163E0C80174
:104630000E942E17C85ADE4FA881B981C855D140B3
:104640003C9242CE823009F03FCEF80142AD53ADEC
:1046500064AD75AD9E012F5F3F4FC8010E94D51814
:10466000382EF5E08F1361C0E3E0C85ADE4FA88111
:10467000B981C855D140EC93F80182A193A1A4A1BE
:10468000B5A1892B8A2B8B2B41F484E893E0A0E021
:10469000B0E082A393A3A4A3B5A3F80186A197A138
:1046A000A0A5B1A5892B8A2B8B2B61F482A193A1A4
:1046B000A4A1B5A1B695A7959795879586A397A32D
:1046C000A0A7B1A7F80182A593A5A4A5B5A5892B9C
:1046D0008A2B8B2BA9F482A193A1A4A1B5A1AC0133
:1046E000BD0123E076956795579547952A95D1F7B3
:1046F000841B950BA60BB70B82A793A7A4A7B5A7FE
:10470000F80186A197A1A0A5B1A586A797A7A0AB00
:10471000B1AB82A593A5A4A5B5A582AB93ABA4AB81
:10472000B5AB88248394912CCFCDF6E08F1308C0CD
:10473000C85ADE4FA881B981C855D1401C92C4CD5A
:10474000BFEF3B12C1CDC85ADE4FE881F981C85591
:10475000D1401082B9CD805D984FFC01108210923B
:10476000110261E474E089EA97E00E94960A6DE222
:1047700074E089EA97E00E94960A61E274E089EAAF
:1047800097E00E94ED0260E377E089EA97E00E94FB
:104790007D0A88E992E09A8389831B821C821D82AC
:1047A0001E8280E591E00E94CC0244E050E0BE0110
:1047B0006D5F7F4F8FE090E00E943D0B8E811F92D6
:1047C0008F938D811F928F938C811F928F938B81FA
:1047D0001F928F9381EE92E09F938F9304EA14E0EF
:1047E0001F930F930E94433210932F0700932E07BD
:1047F0006CE074E089EA97E00E94ED0260912E0778
:1048000070912F0789EA97E00E947D0A8CE393E07C
:104810009093100280930F02CF5BDE4F88819981C5
:10482000C154D1400FB6F894DEBF0FBECDBF009784
:1048300011F00E94AC300E94DC0500912A07109113
:104840002B0720912C0730912D07601B710B820BD9
:10485000930B69357B4181059105A8F00E94DC0529
:1048600060932A0770932B0780932C0790932D0752
:10487000E0910F02F09110028081803309F06DC049
:1048800083E080930E0280910E02813009F0D2C045
:1048900061E086E00E94AC0460910F02709110020A
:1048A0008EEF95E00E943C321F921F921F928DE77F
:1048B0008F938EEF95E09F938F931F928BE78F934B
:1048C0008DEE92E09F938F933F922F920E944332FE
:1048D00071010FB6F894DEBF0FBECDBF14EF412EAD
:1048E0005524539402EC602E7724739480E9882E2B
:1048F000992493949CE2C92EDD24D3942AEFA22E0E
:10490000B12CD7018D917D01882309F490C08E329E
:1049100031F582E390E09093B5048093B404009164
:10492000B4041091B50461E087E00E94AC04023049
:10493000110540F0C801880F991F880F991F05972E
:104940000197F1F760E087E00E94AC0463E070E05B
:1049500080E090E00E94AA05D4CF81E092CF8B370F
:1049600019F484E690E0D7CF803319F486E990E01B
:10497000D2CF813319F488EC90E0CDCF823329F483
:10498000B092B504A092B404CACF833329F4D09274
:10499000B504C092B404C3CFEEE5F1E0843331F145
:1049A000853329F49092B5048092B404B8CF86334D
:1049B00029F47092B5046092B404B1CF873329F41E
:1049C0005092B5044092B404AACF26E232E0883374
:1049D000B1F0893319F488E592E09DCFAAE8B2E0FE
:1049E0008D37D9F08B3239F4ECEBF2E0F093B5046B
:1049F000E093B40494CF8D3239F42EEE32E030934C
:104A0000B5042093B4048BCF8C3219F480E293E088
:104A100082CF8A3239F4A2E5B3E0B093B504A09313
:104A2000B4047DCF1092B5041092B40478CF82E024
:104A300080930E0280910E02823009F023C160E063
:104A400086E00E94AC04EAEAF4E06491E4E6F4E073
:104A5000E491F0E0EE0FFF1FEE5BFB4F8591949128
:104A600000E412E42FE030E0462F0E94E91DAB0184
:104A7000BC01411551056105710529F04F5F5F4F7C
:104A80006F4F7F4F7F70CA019A012852310921333D
:104A9000310588F58EE28093B6042091B6042B3759
:104AA00019F481E08093FD058091FD05882369F06C
:104AB0008091FB059091FC05FC01E153FB4F2083A5
:104AC00001969093FC058093FB052D3709F0A7C054
:104AD000E091FB05F091FC05E153FB4F1082EFECF8
:104AE000F4E0DF0190E08D91882309F483C08B37D7
:104AF000D1F79F5FF8CF4A5551094133510510F462
:104B00008BE7C9CF9C012C5831092133310510F4B2
:104B100080E3C1CF9C012E5B31092133310510F4B4
:104B200081E3B9CF9C01205F31092133310510F4B5
:104B300082E3B1CF9C01225231402133310510F480
:104B400083E3A9CF9C01245531402133310510F472
:104B500084E3A1CF9C01265831402133310510F464
:104B600085E399CF9C01285B31402133310510F456
:104B700086E391CF9C012A5E31402133310510F448
:104B800087E389CF9C012C5132402133310510F449
:104B900088E381CF9C012E5432402133310510F43B
:104BA00089E379CF9C01205832402133310510F43C
:104BB0008DE771CF9C01225B32402133310510F427
:104BC0008BE269CF9C01245E32402133310510F421
:104BD0008DE261CF9C01265133402133310510F421
:104BE0008CE259CF88549340C19710F48AE253CF96
:104BF00085E451CF80E02191222321F02534D9F79B
:104C00008F5FF9CF913029F4811103C083E0809345
:104C10000E021092FD051092FC051092FB0580918A
:104C2000CB049091CC04A091CD04B091CE04019618
:104C3000A11DB11D8093CB049093CC04A093CD040F
:104C4000B093CE0489359240A105B105D8F083E038
:104C500080930E028BE78093CF0468EF73E089EABC
:104C600097E00E94ED02E0910F02F0911002608146
:104C700089EA97E00E94E60266EF73E089EA97E02E
:104C80000E94960A80910E02833009F0DBC165E430
:104C900072E089EA97E00E94960A80E197E2A0E03C
:104CA000B0E08093990890939A08A0939B08B093E2
:104CB0009C0840E550E066EF72E085E998E00E94CC
:104CC000A3168C0140E550E066EF72E085E998E0BC
:104CD0000E94A31661EC72E0012B11F46EEC72E0FD
:104CE00089EA97E00E947D0A0E94DC054B015C0185
:104CF00028EE33E040E050E00E94B12EC85ADE4F6B
:104D0000288339834A835B83C855D14000912E079D
:104D100010912F07C0900A02D0900B02E0900C0275
:104D2000F0900D0240900602509007026090080239
:104D30007090090262EA73E085E998E00E94ED0252
:104D400060E273E085E998E00E94AA0A6CE973E0EA
:104D500085E998E00E94ED0260E377E085E998E05C
:104D60000E94AA0A65E973E085E998E00E94ED02D5
:104D7000B301A20185E998E00E94AC096FE873E0F5
:104D800085E998E00E94ED02B701A60185E998E067
:104D90000E94AC096DE773E085E998E00E94ED029E
:104DA00066E273E085E998E00E94AA0A61E773E091
:104DB00085E998E00E94ED026EE373E085E998E0F2
:104DC0000E94AA0A67E673E085E998E00E94ED0276
:104DD000B80185E998E00E94AA0A6EE573E085E9CA
:104DE00098E00E94ED022AE0C85ADE4F48815981BE
:104DF0006A817B81C855D14085E998E00E941109FC
:104E000060E573E085E998E00E94ED026FEC74E0E4
:104E100085E998E00E94AA0A66E473E085E998E0D3
:104E20000E94960A6FE373E085E998E00E94ED0224
:104E300066EF72E085E998E00E947D0A6DE273E01A
:104E400085E998E00E94960A60E174E085E998E0BF
:104E50000E94020966E173E0892B09F4A8C380E28D
:104E6000D1011D928A95E9F781017E01B1E2EB0E35
:104E7000F11C85E998E00E94E80597FD09C08D3096
:104E8000910531F0F80181938F01EE15FF0589F747
:104E900063E473E0C1010E943332892B09F4D5C069
:104EA00060E073E089EA97E00E94ED02B10189EACF
:104EB00097E00E947D0AC85ADE4F688179818A8115
:104EC0009B81C855D14020E831E541E050E00E9487
:104ED000B12E20E13EE040E050E00E94B12E2901D9
:104EE0003A016B017C016DEE73E089EA97E00E9464
:104EF000ED02C501B40120E03CE546E255E00E9428
:104F0000B12EC9010E945D096AEE73E089EA97E05B
:104F10000E94ED022AE0B301A20189EA97E00E9413
:104F2000110967EE73E089EA97E00E94ED02C7017C
:104F3000B6012CE330E040E050E00E94B12E490180
:104F40006B017C012AE0BA01A40189EA97E00E9482
:104F5000110964EE73E089EA97E00E94ED022AE00D
:104F6000B701A60189EA97E00E94110962EE73E099
:104F700089EA97E00E94960A10920E021092CF04DE
:104F80001092CB041092CC041092CD041092CE0457
:104F900019821A821B821C821D8261E08091820824
:104FA0000E94DA0460E0809182080E94AC0462E111
:104FB00070E080E090E00E94AA0562E080918208A3
:104FC0000E94DA0428E230E040E050E061E08091A5
:104FD00082080E943B05672B682B692B09F0EFC202
:104FE0008DEF80938408809184088E3F09F45BC420
:104FF0000CF002C48D3F09F459C461ED73E089EAF5
:1050000097E00E94960A85E998E00E94480C61ECBE
:1050100073E089EA97E00E94960A63EB73E089EAFD
:1050200097E00E94ED022AE047E050E060E070E087
:1050300089EA97E00E94110967EA73E089EA97E03C
:105040000E94960A0E941404CDC97E01FFEAEF1A5D
:10505000FEEFFF0A85E0EEE0F4E0D70101900D924B
:105060008A95E1F7F70101900020E9F731976F0188
:10507000CE18DF0809F078C282E592E0C65BDE4F09
:1050800099838883CA54D140C35BDE4F198218824A
:10509000CD54D1408CE195E0C15BDE4F998388838C
:1050A000CF54D1402AE431E02C0F3D1FCF5BDE4FBF
:1050B00039832883C154D14085E998E0CD5BDE4F28
:1050C00099838883C354D140CB5BDE4F1882C5548B
:1050D000D140CA5BDE4F1882C654D140C95BDE4F57
:1050E00039832883C754D1408AE0C75BDE4F888369
:1050F000C954D140CE018F5B9E4F0E94A71B7C01FB
:10510000DC018D919C91892B61F464EA72E089EA5B
:1051100097E00E94ED026FEF70EE85EF95E00E9440
:10512000AA0563E573E0C7010E94D60A8C0168E511
:1051300073E00E94D60A0E94E50A8093CA046BE5D8
:1051400073E0C8010E94D60A0E94E50A8093C90450
:105150006EE573E0C8010E94D60A0E94E50A8093BA
:10516000C80461E673E0C8010E94D60A0E94E50AFD
:105170008093C70464E673E0C8010E94D60A0E94C7
:10518000E50A8093C60467E673E0C8010E94D60A68
:105190000E94E50A8093C5046AE673E0C8010E9494
:1051A000D60A0E94E50A8093C4046DE673E0C80144
:1051B0000E94D60A0E94E50A8093C30460E773E068
:1051C000C8010E94D60A0E94E50A8093C20463E7E0
:1051D00073E0C8010E94D60A0E94E50A8093C104C8
:1051E00066E773E0C8010E94D60A0E94E50A809330
:1051F000C0046AE773E0C8010E94D60A0E94E50A6B
:105200008093BF046EE773E0C8010E94D60A0E9433
:10521000E50A8093BE0462E873E0C8010E94D60AE2
:105220000E94E50A8093BD0466E873E0C8010E940D
:10523000D60A0E94E50A8093BC046AE873E0C801BC
:105240000E94D60A0E94E50A8093BB046EE873E0D0
:10525000C8010E94D60A0E94E50A8093BA0462E956
:1052600073E0C8010E94D60A0E94E50A8093B9043F
:1052700066E973E0C8010E94D60A0E94E50A80939D
:10528000B8046AE973E0C8010E94D60A0E94E50AE0
:105290008093B70463E872E089EA97E00E94ED0228
:1052A00061E872E089EA97E00E94ED028091CA0409
:1052B00090E00E945D098091C90490E00E945D0920
:1052C0008091C80490E00E945D098091C70490E03D
:1052D0000E945D098091C60490E00E945D09809162
:1052E000C50490E00E945D098091C40490E00E9492
:1052F0005D098091C30490E00E945D098091C20421
:1053000090E00E945D098091C10490E00E945D09D7
:105310008091C00490E00E945D098091BF0490E0FC
:105320000E945D098091BE0490E00E945D09809119
:10533000BD0490E00E945D098091BC0490E00E9451
:105340005D098091BA0490E00E945D098091B904E2
:1053500090E00E945D098091B80490E00E945D0990
:105360008091B70490E00E945D096FE772E089EADE
:1053700097E00E94960A62E672E089EA97E00E944E
:10538000ED026091D00489EA97E00E94E6026EE5A2
:1053900072E089EA97E00E94ED026FEC74E089EA1E
:1053A00097E00E947D0A63E572E089EA97E00E9437
:1053B000ED026EE973E0C7010E94B20A8C0100970A
:1053C00009F4FAC0FC01E480F580F1E0EF16F10485
:1053D00071F4DC0116966D917C916115710539F0BF
:1053E00087EA93E00E943332892B09F4E5C0B1E0EB
:1053F000EB1AF108E2E0EE16F10408F0DDC0D80186
:1054000016966D917C9189EA97E00E947D0A6091E1
:10541000CA0487E10E94AC046091C90488E10E943B
:10542000AC046091C80489E10E94AC046091C70497
:105430008AE10E94AC046091C6048BE10E94AC0436
:105440006091C5048CE10E94AC046091C4048DE1BC
:105450000E94AC046091C3048EE10E94AC04609190
:10546000C2048FE10E94AC046091C10480E20E94FA
:10547000AC046091C00481E20E94AC046091BF045E
:1054800082E20E94AC046091BE0483E20E94AC04FC
:105490006091BD0484E20E94AC046091BC0485E28A
:1054A0000E94AC046091BB0486E20E94AC0460914F
:1054B000BA0487E20E94AC046091B90488E20E94B9
:1054C000AC046091B80489E20E94AC046091B70416
:1054D0008AE20E94AC0482E592E0C65BDE4F9983CB
:1054E0008883CA54D140C35BDE4FE881F981CD5433
:1054F000D140309709F4DFCC82819381C15BDE4FCC
:1055000099838883CF54D14000811181CF010E94BB
:10551000AC30F801EECF01E010E085E998E00E94A0
:10552000E80597FD42C0B701600F711FFB012081A4
:10553000022E000C330B2817390781F101151105D4
:1055400099F0A8012B018A0101501109DB012E916C
:10555000BD01022E000C330B2817390741F001154D
:105560001105D9F2A801EFCF10E000E0D6CF011568
:10557000110589F2D701F201E01BF10B30E020E0C8
:105580006D907190671005C02F5F3F4F2017310756
:10559000B8F30217130731F78A01BFCF0F5F1F4F10
:1055A000C016D10609F0B9CF67CD6FEE72E089EA77
:1055B00097E00E94960A7FCC70E060E024CF20E55F
:1055C00030E040E050E060E0809182080E943B05BE
:1055D000672B682B692B09F403CD20E530E040E010
:1055E00050E061E0809182080E943B05672B682BA8
:1055F000692B09F4F5CC10E000E022E330E040E054
:1056000050E060E0809182080E943B0524E630E093
:1056100040E050E061E0809182080E943B056623F3
:1056200011F1F80173E0F595E7957A95E1F7E20D50
:10563000F31D8081880F91E06E3208F490E0890FAD
:1056400080830F5F1F4F08321105B9F669814A81C7
:105650000B811C81862F840F800F810F9D818917FC
:1056600021F08FEFBECC8EEFBCCC809183088531CA
:1056700009F486C0863109F4B9C08B3009F06AC0DC
:1056800070E090E080E00E94602D6093910870933C
:1056900092088093930890939408602F70E090E0B4
:1056A00080E00E94622D6B017C0117FF56C01F77BE
:1056B000612F70E090E080E00E94622D2DEC3CECC8
:1056C0004CEC5DE30E94C12D9B01AC0160E070E0F9
:1056D00080E89FE30E94E22EA70196010E94E32E3C
:1056E0006B017C01F7FAF094F7F8F094C09285080A
:1056F000D0928608E0928708F092880820E030E097
:1057000040E151E4C701B6010E94C12D20E030E024
:1057100040EA50E40E944F2F20E030E040E052E4A5
:105720000E94E32E6093890870938A0880938B0807
:1057300090938C0823E333E948E853E4C701B601AA
:105740000E94E32E60938D0870938E0880938F08DB
:10575000909390081092840846CC612F70E090E0FE
:1057600080E00E94622D2DEC3CEC4CEC5DE30E944D
:10577000C12DA70196010E94E32E6B017C01B6CFDB
:10578000262F30E0322F2227B901640F711D072E1A
:10579000000C880B990B0E94622D2DEC3CEC4CEC1C
:1057A0005DE30E94C12D60939108709392088093ED
:1057B000930890939408602F70E0762F66276627F1
:1057C0007F77610F711D072E000C880B990B0E94CB
:1057D000622D2DEC3CEC4CEC5DEB07FD04C02DEC98
:1057E0003CEC4CEC5DE30E94C12DC7CF862F90E0CE
:1057F000982F8827BC01C9CF8F3F09F44DC0811174
:10580000FCCB6CEA73E089EA97E00E94AA0A409117
:10581000850850918608609187087091880889EA08
:1058200097E00E94AC096FEB73E089EA97E00E9471
:10583000AA0A409191085091920860919308709142
:10584000940889EA97E00E94AC0965EC73E089EA64
:1058500097E00E947D0A8091910890919208A09112
:105860009308B091940880930A0290930B02A0933E
:105870000C02B0930D028091850890918608A0914A
:105880008708B09188088093060290930702A0933E
:105890000802B0930902B1CB68EC73E089EA97E0A3
:1058A0000E947D0AAACB67ED73E0F8CF66EE73E045
:1058B00089EA97E00E94AA0A6EEE73E089EA97E00F
:1058C0000E94AA0A64EF73E089EA97E00E94AA0A9C
:1058D00085E090E00E945D096EEF73E089EA97E051
:1058E0000E94AA0A60E174E089EA97E00E94020936
:1058F00084CB80917C0890917D08009711F00C94E6
:10590000AC3008958F929F92AF92BF92CF92DF9268
:10591000EF92FF92CF93DF93EC01688179818A81C6
:105920009B81611571058105910521F464E279ED92
:105930008BE597E02DE133EF41E050E00E947F2EB0
:1059400049015A019B01AC01A7EAB1E40E949E2ED5
:105950006B017C01ACEEB4EFA50194010E94AC2E6A
:10596000C60ED71EE81EF91EF7FE06C081E0C81A53
:10597000D108E10880E8F80AC882D982EA82FB826D
:10598000C701B6019F77DF91CF91FF90EF90DF9035
:10599000CF90BF90AF909F908F9008958F929F92DD
:1059A000AF92BF92CF92DF92EF92FF92609114027A
:1059B0007091150280911602909117026115710580
:1059C0008105910521F464E279ED8BE597E02DE105
:1059D00033EF41E050E00E947F2E49015A019B01C4
:1059E000AC01A7EAB1E40E949E2E6B017C01ACEEF3
:1059F000B4EFA50194010E94AC2EC60ED71EE81E7E
:105A0000F91EF7FE06C081E0C81AD108E10880E857
:105A1000F80AC0921402D0921502E0921602F09297
:105A20001702C701B6019F77FF90EF90DF90CF90EC
:105A3000BF90AF909F908F900895609314027093E1
:105A4000150280931602909317020895BB274A30DF
:105A500031F4992322F4BDE2909581959F4F0C94E7
:105A6000322DBB27FB015527AA27880F991FAA1F94
:105A7000A41710F0A41B83955051B9F7A05DAA3369
:105A800008F0A95DA193009779F7B111B193119234
:105A9000CB010C944B2DDC01FC01672F7191772316
:105AA000E1F7329704C07C916D9370836291AE17D9
:105AB000BF07C8F308950E949D2D08F481E0089562
:105AC000E89409C097FB3EF4909580957095619598
:105AD0007F4F8F4F9F4F9923A9F0F92F96E9BB274E
