:100000000C94AE000C94D6000C94D6000C94D60040
:100010000C94D6000C94D6000C94D6000C94D60008
:100020000C94D6000C94D6000C94D6000C94D600F8
:100030000C94D6000C94D6000C94D6000C94D600E8
:100040000C94B21F0C94D6000C9471190C944B199B
:100050000C94D6000C94D6000C94D6000C94D600C8
:100060000C94D6000C94D600436F6E6E6563746971
:100070006F6E3A20636C6F736500486F73743A203B
:10008000002500202F2048756D3A20004572726FC0
:10009000722072656164696E672068756D69646954
:1000A00074792100C2B0430054656D703A20004558
:1000B00072726F722072656164696E672074656D1B
:1000C00070657261747572652100456E636C6F7343
:1000D000757265204865616C74683A2000495076F5
:1000E00034284C6F63616C293A20004669726D7741
:1000F0006172652056657273696F6E3A2000000068
:10010000000023002600290004040404040404045D
:1001100002020202020203030303030301020408B2
:100120001020408001020408102001020408102061
:1001300000000000240027002A0000000000250025
:1001400028002B0000000008000201000003040743
:100150000000000000000000E029AB2911241FBEB0
:10016000CFEFD8E0DEBFCDBF14E0A0E0B1E0EAE71A
:10017000F1E602C005900D92A436B107D9F726E04A
:10018000A4E6B4E001C01D92A736B207E1F710E083
:10019000CDEAD0E004C02197FE010E94822ECC3A25
:1001A000D107C9F70E94FC1F0C94B0300C940000DA
:1001B000CF93DF931F92CDB7DEB76983DC01ED915A
:1001C000FC910280F381E02D41E050E0BE016F5FC1
:1001D0007F4F09950F90DF91CF910895FC018485A1
:1001E00095850895FC018489958908952CEF31E067
:1001F000FC0131832083FB01408951896289738925
:10020000FC0142835383648375830895DC01ED917F
:10021000FC91048CF58DE02D099480E00895FC019B
:10022000768765870895DC01ED91FC91068CF78D4A
:10023000E02D099591E089270895862F089581E0A2
:100240008627089521E0FC018485843008F020E0B1
:10025000822F08958091130581110BC01092100513
:1002600010920F05109212051092110581E08093F3
:1002700013058FE095E008950895089580E090E0DB
:100280000895CF93DF93EC018C858430C8F40E94ED
:10029000C90F843181F0882371F0883161F08C318D
:1002A00061F4E881F9810084F185E02DCE010995A2
:1002B00021E0892B19F420E001C021E0822F01C048
:1002C00080E0DF91CF910895CF92DF92EF92FF927D
:1002D000CF93DF93EC018C85843038F50E943F0B7F
:1002E0000E94A21E6B017C018C850E94C90F88238D
:1002F000D1F061E070E080E090E00E94681E0E9412
:10030000A21EAB01BC014C195D096E097F098D85E8
:100310009E85A0E0B0E0481759076A077B0720F3E5
:100320008C850E945B0B84E08C87DF91CF91FF90DE
:10033000EF90DF90CF900895CF93DF93EC018C8501
:10034000843060F40E94C90F873111F08C3131F490
:100350008C850E941F0E8115984088F3DF91CF9104
:100360000895FC018485843010F40C941F0E80E005
:1003700090E00895CF93DF931F92CDB7DEB741E0B1
:1003800050E0BE016F5F7F4FFC0184850E944E0EDE
:10039000181619061CF4898190E002C08FEF9FEFB8
:1003A0000F90DF91CF910895FC018485843010F483
:1003B0000C944E0E80E090E00895CF93DF93FC0103
:1003C0002485243018F08FEF9FEF0EC0EC010190D0
:1003D000F081E02D0084F185E02D0995892B99F3BA
:1003E0008C850E94CD0A90E0DF91CF910895FC01A9
:1003F0008485843010F40C94090B80E090E008951B
:10040000CF92DF92EF92FF920F931F93CF93DF93E0
:10041000CDB7DEB7AF970FB6F894DEBF0FBECDBF36
:100420008C016B017A01CE0101960E945E148CEF63
:1004300091E09BA78AA71CA61DA61EA61FA6D801F1
:100440001C968C91843060F40E94C90F882321F09F
:10045000F80184850E943F0B84E0D8011C968C93A0
:100460008091BA059091BB05A091BC05B091BD05E6
:100470008EA39FA3A8A7B9A78B839C83AD83BE83BC
:1004800018861F82AE01465D5F4FB601CE01019610
:100490000E9401120097C1F0D801ED91FC910684F1
:1004A000F785E02D8CEF91E09DA38CA38CA59DA5F5
:1004B000AEA5BFA58EA39FA3A8A7B9A7A701BE01FC
:1004C0006C5D7F4FC8010995AF960FB6F894DEBFFB
:1004D0000FBECDBFDF91CF911F910F91FF90EF9095
:1004E000DF90CF9008950F931F93CF93DF938C01EC
:1004F000EB0188E2DB011D928A95E9F7F80183811F
:1005000094810E948F1181E090E0A0E0B0E08C87A0
:100510009D87AE87BF87F80185819681A781B085C9
:10052000888B998BAA8BBB8B8CE090E0A0E0B0E02D
:100530008C8B9D8BAE8BBF8BBE01838194810E947F
:100540007811D8011396ED91FC91149783898C3022
:1005500069F038F48B30A1F580E090E0A0EAB2E4D5
:1005600009C08531C1F08631B1F02AC080E090E049
:10057000AEEBB2E4888F998FAA8FBB8F80E090E0BA
:10058000A0EAB1E48C8F9D8FAE8FBF8F80E090E0AA
:10059000A0EAB0E410C080E090E0A8ECB2E4888F5C
:1005A000998FAA8FBB8F1C8E1D8E1E8E1F8E8DEC79
:1005B0009CECACECBDE388A399A3AAA3BBA30CC09D
:1005C000188E198E1A8E1B8E1C8E1D8E1E8E1F8EDF
:1005D00018A219A21AA21BA2DF91CF911F910F910D
:1005E00008950F931F93CF93DF938C01EB0188E263
:1005F000DB011D928A95E9F7F801838194810E94BD
:100600008F1181E090E0A0E0B0E08C879D87AE87FD
:10061000BF87F80185819681A781B085888B998BEA
:10062000AA8BBB8B8DE090E0A0E0B0E08C8B9D8B23
:10063000AE8BBF8BBE01838194810E947811D8015B
:100640001396ED91FC91149783898C30F1F0A0F40E
:100650008B3009F048C080E090E0A8E4B2E4888FD5
:10066000998FAA8FBB8F1C8E1D8E1E8E1F8E80E0D1
:1006700090E0A0E0B0E432C08531E1F0863199F538
:1006800080E090E0AAEFB2E419C080E090E0A0E73B
:10069000B2E4888F998FAA8FBB8F80E090E0A0EAA8
:1006A000B1EC8C8F9D8FAE8FBF8F80E090E0A0E08B
:1006B000BFE314C080E090E0A0EAB2E4888F998F95
:1006C000AA8FBB8F80E090E0A0E2B2EC8C8F9D8F70
:1006D000AE8FBF8F8DEC9CECACECBDE388A399A3EF
:1006E000AAA3BBA30CC0188E198E1A8E1B8E1C8E4B
:1006F0001D8E1E8E1F8E18A219A21AA21BA2DF9198
:10070000CF911F910F910895CF92DF92EF92FF92B8
:100710000F931F93CF93DF938C01EB0184E2FB01D6
:1007200011928A95E9F784E290E0A0E0B0E0888336
:100730009983AA83BB83F80185819681A781B085BF
:100740008C839D83AE83BF838CE090E0A0E0B0E01B
:1007500088879987AA87BB870E94A21E688B798B9E
:100760008A8B9B8BF80103811481C8010E94AE1E05
:100770008823B9F1F80186818B3098F18D30A0F093
:100780008551823070F5F801608171817627672785
:10079000762780E090E00E94AA2B2DEC3CEC4CECFC
:1007A0005DE30E940B2C21C0F801618170E080E0C4
:1007B00090E00E94AC2B2DEC3CEC4CEC5DE30E94F5
:1007C0000B2C6B017C01F801608170E080E090E00F
:1007D0000E94AC2B9B01AC01C701B6010E94642DA5
:1007E00004C060E070E080EC9FE76C8B7D8B8E8BAB
:1007F0009F8B81E0DF91CF911F910F91FF90EF9040
:10080000DF90CF9008958F929F92AF92BF92EF9218
:10081000FF921F93CF93DF937C01EB0184E2FB01F6
:1008200011928A95E9F784E290E0A0E0B0E0888335
:100830009983AA83BB83F70185819681A781B085BF
:100840008C839D83AE83BF838DE090E0A0E0B0E019
:1008500088879987AA87BB870E94A21E688B798B9D
:100860008A8B9B8BF701E380F480C7010E94AE1E48
:10087000882309F46BC0F70186818C3009F445C0E8
:1008800018F48B30C9F062C08551823008F05EC028
:10089000F7011281612F6F7770E0762F66278381D1
:1008A000682B80E090E00E94AA2B2DEC3CEC4CECF5
:1008B0005DE30E940B2C46C0F701628170E080E08E
:1008C00090E00E94AA2B4B015C01F701138117FFF6
:1008D0000AC09B01AC0160E070E080E89FEB0E94E1
:1008E000632D4B015C01612F6F7070E080E090E040
:1008F0000E94AC2B2DEC3CEC4CEC5DE30E940B2CED
:10090000A50194010E94642D25C0F7011281638125
:100910006F7070E080E090E00E94AC2B2DEC3CEC1E
:100920004CEC5DE30E940B2C4B015C01612F70E0ED
:1009300080E090E00E94AA2B9B01AC01C501B401AC
:100940000E94642D17FF06C0905804C060E070E05C
:1009500080EC9FE76C8B7D8B8E8B9F8B81E0DF9192
:10096000CF911F91FF90EF90BF90AF909F908F908D
:1009700008950C94202F0C94202F0F931F93CF9346
:10098000DF938B01FC01C281D3812097A9F06A819A
:100990007B810115110519F06115710521F46017AE
:1009A000710731F409C0C8010E949130892B21F0F0
:1009B0000990D881C02DE9CFCE01DF91CF911F9151
:1009C0000F910895CF92DF92EF92FF920F931F93B2
:1009D000CF93DF938C017B01FC01C581D6816E0131
:1009E000C617D70708F46B01C60106960E94882E29
:1009F0000097A1F0FC01D382C282F80123813481E7
:100A0000FC0131832083F80194838383CC0FDD1FA5
:100A1000D683C583FC01F582E4820696DF91CF91EF
:100A20001F910F91FF90EF90DF90CF900895DC0120
:100A30001396ED91FC911497309751F024813581F4
:100A4000AB01420F531FA281B381A417B50710F465
:100A50000C94E204CF01069655834483820F931FC2
:100A60000895FF920F931F93CF93DF93EC01F62E1F
:100A700088819981FC01A381B481109771F014964B
:100A80002D913C911597A9014F5F5F4F12966D9183
:100A90007C9113976417750750F56C817D816F5FAA
:100AA0007F4F0E94E2048C016A817B816115710590
:100AB00049F00115110571F04C815D81C8010E945A
:100AC000813003C00115110529F0EC81FD81E00F93
:100AD000F11FF0821B830A838C819D8101969D8387
:100AE0008C83DF91CF911F910F91FF900895FD01AD
:100AF0003696E20FF31F15965C934E931497F0828F
:100B00008C819D81892B41F7FB83EA83E5CFDA0154
:100B100090916704E92FF0E0FE2FEE27E60FF71F14
:100B200090E0982F8827A901BD018E0F9F1F0C947C
:100B3000B31908958CBD9DBD08956F927F928F92D9
:100B40009F92AF92BF92CF92DF92EF92FF921F934C
:100B5000CF93DF9300D0CDB7DEB7FC0114851430FE
:100B600008F061C06A014130F8E05F0718F0C12C5D
:100B700028E0D22E7A013B015C01CE0101960E9451
:100B8000261B89819A810E949A05812F0E94910AD1
:100B90004C0163E070E0812F0E94320D873111F02B
:100BA0008C3121F48C149D0440F302C0C12CD12C53
:100BB000CE0101960E94261B89819A810E949A0586
:100BC0009601A30160E070E0812F0E94D90B60E2E2
:100BD00070E0812F0E94A31962E070E0812F0E94D3
:100BE000320D84FD16C063E070E0812F0E94320D4B
:100BF000811106C081E090E0F5019383828313C0E8
:100C0000CE0101960E94261B89819A810E949A0535
:100C1000E3CF40E162E070E0812F0E94140DCD2807
:100C200049F3C70102C080E090E00F900F90DF9180
:100C3000CF911F91FF90EF90DF90CF90BF90AF903A
:100C40009F908F907F906F900895AF92BF92CF92B8
:100C5000DF92EF92FF920F931F93CF93DF9300D019
:100C6000CDB7DEB78C016B015A01FC01848584305D
:100C700058F40E94C90F882321F0F80184850E944E
:100C80003F0B84E0F8018487F60182819381A4817F
:100C9000B5810097A105B10509F462C08F3F9F4F50
:100CA000AF4FBF4F09F45CC080915906882339F0DB
:100CB00060E070E081E20E94500DF82E02C084E0F6
:100CC000F82EF801F486F3E0FF1508F449C0CE01D0
:100CD00001960E94261B89819A810E949A05A6018D
:100CE0004E5F5F4F24E030E06CE070E08F2D0E949B
:100CF000C70BB5018F2D0E94A10C64E070E08F2D11
:100D00000E94A3190E94A21E6B017C01F801848538
:100D10000E94C90F873139F18C3129F1882301F103
:100D20000E94A21EAB01BC014C195D096E097F092E
:100D3000F80185859685A0E0B0E084179507A607A1
:100D4000B70738F061E070E080E090E00E94681E34
:100D5000DDCFF80184850E945B0B84E0F801848775
:100D600080E090E002C081E090E00F900F90DF9172
:100D7000CF911F910F91FF90EF90DF90CF90BF9098
:100D8000AF9008950F931F93CF93DF9300D0CDB70B
:100D9000DEB78C018CEF91E0F801918380831282A1
:100DA000138214821582CE0101960E94261B89812E
:100DB0009A810E949A05B8016E5F7F4F44E050E02F
:100DC0008FE090E00E94B319C8010F900F90DF915F
:100DD000CF911F910F910895089508950F931F9338
:100DE000CF93DF930E94BD04EC01892BC1F00C81ED
:100DF0001D810130110559F46E817F8161157105E6
:100E000031F08FE194E00E949130892B41F0015044
:100E100011090230110518F48E819F8102C080E013
:100E200090E0DF91CF911F910F9108958091070578
:100E300081110BC010920405109203051092060553
:100E40001092050581E08093070583E095E0089501
:100E5000DB01109749F0ED91FC9111970190F08121
:100E6000E02DBC01CD01099480E090E008950F933E
:100E70001F93CF93DF931F92CDB7DEB78C01FC0198
:100E8000828181110BC0808191811982BE016F5FC7
:100E90007F4F0E94161B8981F8018283F8018281AD
:100EA0000F90DF91CF911F910F9108950F931F9392
:100EB000CF93DF931F92CDB7DEB78C01C8010E949C
:100EC00037078D3059F02CF48950823008F057C024
:100ED00005C0803219F08F3231F051C0F8018381A2
:100EE00082831382EBCFF801838181110BC0808153
:100EF00091811982BE016F5F7F4F0E94161B89810D
:100F0000F8018383F80183818A3219F08F3271F1FD
:100F100036C0F8011382F801838182831382C801ED
:100F20000E943707882359F1C8010E9437078A3287
:100F300091F7F801838181110BC080819181198221
:100F4000BE016F5F7F4F0E94161B8981F80183836A
:100F5000F80183818F32F9F6F80113821282AECF45
:100F6000C8010E9437078A3009F4A8CFF8018381AD
:100F700082831382C8010E9437078111F1CF0F903D
:100F8000DF91CF911F910F9108951F93CF93DF931E
:100F9000EC01162F0E945607CE010E9437078113DD
:100FA00005C08B818A831B8281E001C080E0DF91D4
:100FB000CF911F910895CF92DF92FF920F931F93CD
:100FC000CF93DF9300D000D000D0CDB7DEB78C0137
:100FD000FC01868197819A8389831C821B821E82F1
:100FE0001D826801F2E0CF0ED11CC6010E94560797
:100FF000C6010E943707F82E87E2F81621F1E2E2D7
:10100000FE1609F180ED8F0D8A3078F081EA8F0DA0
:101010008C3158F08FEB8F0D8A3138F0FBE2FF16E0
:1010200021F083ED8F0D8230C8F5F801858184832E
:1010300015826F2DCE0101960E943105C6010E94D6
:101040003707F82EDFCFF801858184831582C6012A
:101050000E943707882311F1F80195819483158246
:10106000F816E1F08C35A1F4C6010E943707E8E2DA
:10107000F4E09081992331F0891302C0818102C08C
:101080003296F7CF882351F0F80195819483158229
:10109000682FCE0101960E943105D9CF60E0CE01C4
:1010A00001960E9431058B819C8126960FB6F8949B
:1010B000DEBF0FBECDBFDF91CF911F910F91FF908B
:1010C000DF90CF900895AF92BF92CF92DF92EF92D0
:1010D000FF920F931F93CF93DF9300D000D000D0E7
:1010E000CDB7DEB77C01DC0118968C91882309F41A
:1010F0008EC08150F701808700811181B80184E0A2
:1011000090E00E942807009709F484C0DC01119642
:101110001C930E9313961C921E9212978C016701DA
:10112000B2E0CB0ED11C6BE7C6010E94C507882335
:1011300009F46DC06DE7C6010E94C507811161C049
:10114000C7010E94DB075C01892B09F460C06AE3D8
:10115000C6010E94C507882309F459C01A82198262
:10116000BE016F5F7F4FC7010E947E14882309F480
:101170004EC0B501C8010E94BD04009761F5F80199
:10118000608171818AE090E00E942807009741F019
:10119000DC0111961C921E9215961C921E921497B9
:1011A000D8011296ED91FC911397309751F0208160
:1011B00031812115310511F0F901F9CF9183808337
:1011C00003C0F80193838283009709F1DC01139631
:1011D000BC92AE92129726E0FE013196DC01149685
:1011E00001900D922A95E1F76DE7C6010E94C507AF
:1011F000811107C06CE2C6010E94C5078111A0CF12
:1012000006C0F70180858F5F8087C80106C00E94F5
:101210002A0103C00E942A0181CF26960FB6F894B6
:10122000DEBF0FBECDBFDF91CF911F910F91FF9019
:10123000EF90DF90CF90BF90AF9008952091590626
:1012400090E0233311F40C9601C04896982F990F23
:10125000990F990F80E008950895CF93DF931F921F
:10126000CDB7DEB76983DC01ED91FC910280F3819B
:10127000E02D41E050E0BE016F5F7F4F09950F9078
:10128000DF91CF910895FC01818D928D0895FC012D
:101290009485FB018485981303C081E0943008F0A5
:1012A00080E00895FF920F931F93CF93DF9300D0B8
:1012B000CDB7DEB7F82E22E030E0AE014F5F5F4FD2
:1012C00066E270E00E94870509811A8110270127D4
:1012D000102722E030E0AE014F5F5F4F66E270E022
:1012E0008F2D0E94870589819A81982789279827C1
:1012F0000817190711F08C01ECCFC8010F900F905F
:10130000DF91CF911F910F91FF9008950F931F933D
:10131000CF93DF9300D0CDB7DEB7FC012485243016
:10132000E0F48C01CE0101960E94261B89819A81EE
:101330000E949A0522E030E0AE014F5F5F4F60E10E
:1013400070E0F80184850E94870509811A811027C1
:10135000012710270E94990502C000E010E0C80193
:101360000F900F90DF91CF911F910F9108950F93E0
:101370001F93CF93DF9300D0CDB7DEB7FC01248558
:101380002430E0F48C01CE0101960E94261B898155
:101390009A810E949A0522E030E0AE014F5F5F4FD4
:1013A00064E070E0F80184850E94870509811A8154
:1013B0001027012710270E94990502C000E010E0C5
:1013C000C8010F900F90DF91CF911F910F91089559
:1013D000AF92BF92CF92DF92EF92FF920F931F9343
:1013E000CF93DF93CDB7DEB7AF970FB6F894DEBFDC
:1013F0000FBECDBF8C015B016A01CE0101960E9438
:101400005E148CEFE82E81E0F82EFBA6EAA61CA65F
:101410001DA61EA61FA68091BA059091BB05A0919E
:10142000BC05B091BD058EA39FA3A8A7B9A78B83C8
:101430009C83AD83BE8318861F82AE01465D5F4FDD
:10144000B501CE0101960E94011281309105B1F4DF
:10145000D801ED91FC910488F589E02DFDA2ECA264
:101460008CA59DA5AEA5BFA58EA39FA3A8A7B9A730
:10147000A601BE016C5D7F4FC8010995AF960FB6FE
:10148000F894DEBF0FBECDBFDF91CF911F910F91BA
:10149000FF90EF90DF90CF90BF90AF900895E091D4
:1014A0006504F0916604908180916404892B8083A7
:1014B0000895E0916504F091660490818091640440
:1014C0008095892380830895CF93DF931F92CDB7B2
:1014D000DEB741E050E0BE016F5F7F4F80E090E0FB
:1014E0000E94B31989810F90DF91CF910895CF9316
:1014F000DF931F92CDB7DEB7898341E050E0BE0194
:101500006F5F7F4F80E090E00E94401A0F90DF9164
:10151000CF9108958EBD00000DB407FEFDCF8EB5AE
:101520000895EF92FF921F93CF93DF9300D0CDB732
:10153000DEB7182F22E030E0AE014F5F5F4F60E270
:1015400070E00E948705E980FA80FE24EF24FE24E3
:1015500022E030E0AE014F5F5F4F60E270E0812F2C
:101560000E94870589819A81982789279827E816FC
:10157000F90611F07C01ECCF87E0189FF0011124EF
:10158000EB5CF94FF582E482C7010F900F90DF9179
:10159000CF911F91FF90EF9008951F93CF93DF930A
:1015A00000D0CDB7DEB7182FCE0101960E94261BC2
:1015B00089819A810E949A05812F0E941E0927E045
:1015C000129FF0011124EB5CF94F228133813770B7
:1015D00041E050E0BE016F5F7F4F820F931F0E947A
:1015E000B3190E94990589810F900F90DF91CF91D7
:1015F0001F910895FC01808D843040F4218D328D3F
:10160000232B21F00E94CD0A90E008958FEF9FEFE9
:101610000895EF92FF920F931F93CF93DF9300D023
:10162000CDB7DEB7482F87E0489F90011124F9011C
:10163000EB5CF94F7F01808191810097B9F4142F01
:10164000CE0101960E94261B89819A810E949A05EB
:10165000812F0E9452098C010E949905F701868111
:101660009801281B3109C901318320830F900F9005
:10167000DF91CF911F910F91FF90EF9008951F93ED
:10168000CF93DF9300D0CDB7DEB7182FCE010196F0
:101690000E94261B89819A810E949A0568E070E069
:1016A000812F0E94A3190E9499050F900F90DF913E
:1016B000CF911F9108951F93CF93DF9300D0CDB7A3
:1016C000DEB7182FCE0101960E94261B89819A81D0
:1016D0000E949A0560E170E0812F0E94A3190E9488
:1016E00099050F900F90DF91CF911F910895CF92A0
:1016F000DF92EF92FF920F931F93CF93DF9300D06F
:1017000000D000D0CDB7DEB78C016B017A01FC01AF
:10171000808D843010F40E945B0B8CEF91E09A83F3
:101720008983F60182819381A481B5818B839C8317
:10173000AD83BE83B701CE0101960E94DB1CF80188
:10174000808F843030F4F586E486128E118E81E02D
:1017500001C080E026960FB6F894DEBF0FBECDBF65
:10176000DF91CF911F910F91FF90EF90DF90CF907D
:101770000895CF93DF93FC01808D843028F4EF012E
:101780000E945B0B84E0888FDF91CF910895DA018E
:1017900090916704E92FF0E0FE2FEE27E60FF71F88
:1017A00090E0982F8827A901BD018E0F9F1F0C94F0
:1017B000401A7F928F929F92AF92BF92CF92DF9208
:1017C000EF92FF920F931F93CF93DF9300D0CDB78B
:1017D000DEB7782E8B014A01590122E030E0AE01DC
:1017E0004F5F5F4F64E270E00E948705E980FA80F6
:1017F000FE24EF24FE24E00EF11E97013770409185
:101800005906072D10E0C801433311F4089601C0B2
:101810004096982F8827990F990F990F820F931F41
:10182000473319F4A501B40120C0A9014A0D5B1D7D
:1018300041305840B8F360E078E06B01C21AD30A37
:10184000A601B4010E94401AA5014C195D09B4011A
:101850006C0D7D1D80915906833339F5085F1F4F4C
:10186000902F990F990F990F80E00E94401AEA0C6F
:10187000FB1CF982EA8222E030E0AE014F5F5F4F4D
:1018800064E270E0872D0E94C70B0F900F90DF91EC
:10189000CF911F910F91FF90EF90DF90CF90BF906D
:1018A000AF909F908F907F900895005F1F4FD8CF8B
:1018B0007F928F929F92AF92BF92CF92DF92EF92E0
:1018C000FF920F931F93CF93DF9300D0CDB7DEB776
:1018D0007C014B01742EC52EFC01A688B788D08CE4
:1018E000CE0101960E94261B89819A810E949A0549
:1018F0008D2D0E94910A072D1C2D8017910708F449
:101900008C019801A401B5018D2D0E94D90B0E9474
:101910009905F70186899789800F911F978B868B90
:10192000C8010F900F90DF91CF911F910F91FF9001
:10193000EF90DF90CF90BF90AF909F908F907F906F
:101940000895CF93DF9300D0CDB7DEB779836A8354
:1019500022E030E0AE014F5F5F4F60E170E00E9437
:10196000C70B0F900F90DF91CF910895CF93DF9326
:1019700000D0CDB7DEB779836A8322E030E0AE01D4
:101980004F5F5F4F64E070E00E94C70B0F900F90B5
:10199000DF91CF910895DF92EF92FF920F931F9303
:1019A000CF93DF9300D0CDB7DEB7FB01DC015796B4
:1019B0001C921E9256972281211109C02381211168
:1019C00006C02481211103C02581222309F141157C
:1019D0005105F1F07A018F01FC01D08CCE01019606
:1019E0000E94261B89819A810E949A05A8014E5F58
:1019F0005F4F24E030E06CE070E08D2D0E94C70B5B
:101A0000B7018D2D0E94A10C0E94990581E001C0B3
:101A100080E090E00F900F90DF91CF911F910F9198
:101A2000FF90EF90DF900895CF93DF931F92CDB793
:101A3000DEB790916704292F30E0322F2227260F3E
:101A4000371F90E0982F8827498341E050E0BE017E
:101A50006F5F7F4F820F931F0E94401A0F90DF919C
:101A6000CF910895CF93DF931F92CDB7DEB79091BA
:101A70006704292F30E0322F2227260F371F90E0EE
:101A8000982F882741E050E0BE016F5F7F4F820FA3
:101A9000931F0E94B31989810F90DF91CF91089510
:101AA000AF92BF92CF92DF92EF92FF920F931F936C
:101AB000CF93DF9300D000D000D0CDB7DEB7082F92
:101AC0006B01CE0101960E94261B89819A810E949A
:101AD0009A059E012F5F3F4F7901590110E063E0A5
:101AE00070E0812F0E94320DF50181935F01882300
:101AF000D1F01F5F143099F710E0F70181917F0159
:101B00008D3161F0883151F08A51823038F01F5F99
:101B1000143099F70E94990584E05CC060E170E0A0
:101B2000812F0E94A319E12EF12C83EE93E00197FF
:101B3000F1F7402F60E070E0812F0E94140D4FEF0D
:101B400062E070E0812F0E94140DC114D10411F0E5
:101B5000B60113C08091060190910701019681158D
:101B6000F0EC9F0710F480E090EC909307018093D5
:101B700006016091060170910701812F0E94B60C49
:101B800061E070E0812F0E94A31927E02E9DC00123
:101B90002F9D900D11249C012B5C394F7901F90187
:101BA0001182108222E030E0AE014B5F5F4F68E2AD
:101BB00070E0812F0E9487058D819E81982789275B
:101BC0009827F701938382831682158214820E94DC
:101BD0009905812F26960FB6F894DEBF0FBECDBFB4
:101BE000DF91CF911F910F91FF90EF90DF90CF90F9
:101BF000BF90AF9008950F931F93CF93DF93EC01A5
:101C00008B01888D843010F40E945B0B8091590603
:101C1000882329F0B80182E00E94500D01C084E0C1
:101C2000888F843030F41D870C871A8E198E81E0DE
:101C300001C080E0DF91CF911F910F910895FF9235
:101C40000F931F93CF93DF9300D0CDB7DEB7F82E5D
:101C5000CE0101960E94261B89819A810E949A05D5
:101C60008F2D0E94910A8C0163E070E08F2D0E94FD
:101C7000320DF82E0E94990587E1F81631F08CE1BB
:101C8000F81619F080E090E001C0C8010F900F90A5
:101C9000DF91CF911F910F91FF9008954F925F9226
:101CA0007F928F929F92AF92BF92CF92DF92EF92EC
:101CB000FF920F931F93CF93DF9300D0CDB7DEB782
:101CC000782E6B014A01A82EB12C27E0829FC0011B
:101CD0001124AC014B5C594F7A01FA01008111814A
:101CE000CE0101960E94261B89819A810E949A0545
:101CF0000815190554F4872D0E945209F701268111
:101D00008C01021B11091183008301151105A9F42F
:101D100063E070E0872D0E94320D843109F480C0A9
:101D2000882309F47DC001E010E08C3111F400E05B
:101D300010E011950195110973C0801691060CF4FD
:101D4000840187E08A9DF0018B9DF00D1124EB5CEE
:101D5000F94FE280F380C114D10459F12701F7E073
:101D60005F22872D0E941E09840D951D2091590622
:101D7000273319F4A801B6011AC09801240D351DA6
:101D800021303840B8F320E038E049018418950844
:101D9000A401B6010E94B3192601480C591C680120
:101DA000C818D908872D0E941E09A601B2010E94F9
:101DB000B319E00EF11E87E08A9DF0018B9DF00DB6
:101DC0001124EB5CF94FF382E28280819181801BC8
:101DD000910B918380832681A801420F511D4A3FB8
:101DE000510510F4892BD9F487E08A9DF0018B9D71
:101DF000F00D1124EB5CF94F1682F982EA8222E0A1
:101E000030E0AE014F5F5F4F68E270E0872D0E94C7
:101E1000C70B60E470E0872D0E94A31901C04683C0
:101E20000E949905C8010F900F90DF91CF911F91EB
:101E30000F91FF90EF90DF90CF90BF90AF909F9069
:101E40008F907F905F904F900895CF93DF93FC0128
:101E5000218D328D2115310519F48FEF9FEF11C0BF
:101E6000EC014217530708F0A901888D0E944E0E1D
:101E70001816190694F7298D3A8D281B390B3A8FBD
:101E8000298FDF91CF9108950F931F93CF93DF9305
:101E90001F92CDB7DEB7FC01218D328D232B61F06F
:101EA0008C0141E050E0BE016F5F7F4F808D0E944A
:101EB0004E0E181619061CF08FEF9FEF08C0F801A0
:101EC000818D928D0197928F818F898190E00F9003
:101ED000DF91CF911F910F9108950F931F93CF938F
:101EE000DF93CDB7DEB728970FB6F894DEBF0FBEED
:101EF000CDBF8C01D80159964D915C915A974115EF
:101F0000510551F0ED91FC91048CF58DE02D60E0D0
:101F100070E0C8010995EECFF801808D0E94090B91
:101F2000892B51F148E050E0BE016F5F7F4FD8012F
:101F300058968C910E944E0E18161906FCF4D80182
:101F4000509684E0FE01319601900D928A95E1F75A
:101F50008D8190E0982F88272E81820F911DF801A6
:101F6000958B848B8F8190E0982F88272885820F0E
:101F7000911D928F818F02C080E090E028960FB66D
:101F8000F894DEBF0FBECDBFDF91CF911F910F91AF
:101F900008951F93CF93DF9300D0CDB7DEB7182FEE
:101FA000CE0101960E94261B89819A810E949A0582
:101FB00063E070E0812F0E94320D182F0E94990576
:101FC000812F0F900F90DF91CF911F9108951F9354
:101FD000CF93DF9300D0CDB7DEB7FC01108DCE01DB
:101FE00001960E94261B89819A810E949A0560E2CF
:101FF00070E0812F0E94A31962E070E0812F0E949F
:10200000320D84FD1CC062E070E0812F0E94320D11
:1020100083FF0AC048E162E070E0812F0E94140D46
:102020000E94990580E014C00E949905CE01019696
:102030000E94261B89819A810E949A05DDCF40E18A
:1020400062E070E0812F0E94140D0E94990581E0EA
:1020500090E00F900F90DF91CF911F910895EF9234
:10206000FF920F931F93CF93DF9300D000D0CDB793
:10207000DEB78C017B01FB018485843050F08CEF4E
:1020800091E0F80191838083128213821482158279
:102090001BC0CE0101960E94261B89819A810E9455
:1020A0009A0524E030E0AE014F5F5F4F6CE070E0D6
:1020B000F70184850E9487050E949905BE016F5F24
:1020C0007F4FC8010E943F19C8010F900F900F90D9
:1020D0000F90DF91CF911F910F91FF90EF90089596
:1020E0007F928F929F92AF92BF92CF92DF92EF92A8
:1020F000FF920F931F93CF93DF93CDB7DEB7A697D1
:102100000FB6F894DEBF0FBECDBF8C01762E942E95
:10211000852E20E2B22ECE0101967C01FC012B2DF2
:1021200011922A95E9F78CEF91E09AA389A38FEF9A
:102130008BA38CA38DA38EA3680183E4C80ED11C4E
:1021400043E450E0BE016F5D7F4FC6010E94CB0C9F
:10215000019609F4B9C081E089838A8386E0A82EBC
:10216000AB821C82F80164817581868197810E940F
:102170007B2E6D837E838F83988789869A8680E8FD
:1021800090E09C878B874CE150E0B701C6010E942C
:10219000580CF7012B2D11922A95E9F7480188E098
:1021A000880E911CF401D70101900D92AA94E1F7D9
:1021B00040E150E0B701C6010E94580CF7011192AE
:1021C000BA94E9F796E0A92EB12C40E250E0B701AD
:1021D000C6010E94580CF1E0AF1AB108B1F783E6CE
:1021E000898392E89A8393E59B838C8385E38D832F
:1021F00081E08E837F829DE3988797E099878A8725
:1022000086E0F401DE011B9601900D928A95E1F7BC
:102210008CE0898B8A8B63E374E0CE0143960E9445
:102220009A30F8016385CE0149960E942C1BF80173
:102230006485CE014B960E942C1BF8016585CE016A
:102240004D960E942C1B4EE150E0B701C6010E9442
:10225000580CF3E07F121EC082E3898384E08A83F6
:10226000F80196859B8397859C8390899D839189AE
:102270009E8396E39F838887828D8987838D8A8753
:10228000848D8B87858D8C874CE050E0B701C6012B
:102290000E94580C87E3898386E08A8391E09B83C0
:1022A00093E09C838D838FE08E838AE38F838BE31F
:1022B00088878FEF898749E050E0B701C6010E9407
:1022C000580CC6010E94E70FA6960FB6F894DEBF21
:1022D0000FBECDBFDF91CF911F910F91FF90EF9077
:1022E000DF90CF90BF90AF909F908F907F90089598
:1022F000FB01DC0153968C918C3041F038F48B302B
:1023000029F480E492E4AFE0B0E004C080E894E80F
:10231000AEE1B0E084A395A3A6A3B7A30895CF939D
:10232000DF93EB01FC0183898C3089F038F48B302A
:10233000C1F44BE050E06AE374E017C0853161F00E
:10234000863179F44BE050E06CE474E00EC04BE071
:1023500050E060E474E009C04BE050E066E474E0F3
:1023600004C04BE050E062E574E0CE010E94A13071
:102370001B86DF91CF910895EF92FF920F931F93E9
:10238000CF93DF9300D000D0CDB7DEB74AE09E01F7
:102390002F5F3F4F7901B90190E00E94702BF70148
:1023A00001900020E9F73197EE19FF09F1F0009153
:1023B0000306109104060E0F1F1FB8018FEF95E062
:1023C0000E94F916882391F02091FF0530910006B4
:1023D0008091030690910406B701820F931F0E941B
:1023E0009A30109304060093030681E00F900F903B
:1023F0000F900F90DF91CF911F910F91FF90EF9071
:1024000008954F925F926F927F928F929F92AF92B8
:10241000BF92CF92DF92EF92FF920F931F93CF93D1
:10242000DF93CDB7DEB763970FB6F894DEBF0FBE6C
:10243000CDBF7C015B013A01FB0120E080E090E030
:102440006AE03191332309F140ED430F4A3080F4C3
:10245000689FA001699F500D1124CA01C097830F86
:10246000911D37FD9A958F3F910559F350F313C095
:102470003E3289F4233079F0D301A20FB11D1296B8
:102480008C932F5F80E090E0DCCF233021F4F301C8
:10249000858381E021C0F701428153816481758188
:1024A0008091C0059091C105A091C205B091C3056E
:1024B000481759076A077B0709F491C10E94A21EB9
:1024C0008701085F1F4F6F7077277C5FC8010E94EC
:1024D000FB0D813019F080E090E0D9C18CEF91E0E4
:1024E0009A838983F70182819381A481B5818B834B
:1024F0009C83AD83BE8345E350E0BE016F5F7F4F99
:10250000C8010E94CB0C892B19F4C12CD12C62C1BB
:102510000E94A21EF7017783668342E050E0B70174
:102520006A5F7F4FC8010E94580C81E090E09A8357
:10253000898342E050E0BE016F5F7F4FC8010E9477
:10254000580C80E091E09A83898342E050E0BE011C
:102550006F5F7F4FC8010E94580C1A82198242E0B7
:1025600050E0BE016F5F7F4FC8010E94580C42E0EF
:1025700050E0BE016F5F7F4FC8010E94580C42E0DF
:1025800050E0BE016F5F7F4FC8010E94580C4501AB
:10259000F5018081882301F164015601F6018191E2
:1025A0002F01882321F08E3211F06201F6CFC81876
:1025B000D9081C141D0474F4CD8641E050E0BE011E
:1025C000635F7F4FC8010E94580CA601B401C80187
:1025D0000E94580C4201DCCF1D8641E050E0BE0154
:1025E000635F7F4FC8010E94580CC12CDD24D39437
:1025F000DA82C98242E050E0BE016F5F7F4FC801BE
:102600000E94580CDA82C98242E050E0BE016F5F3E
:102610007F4FC8010E94580CC8010E94E70F892B08
:1026200009F473CFE3E0AE2EB12C230122E0420E79
:10263000511C0E94A21E3B014C01C8010E946D0F5B
:1026400018161906A4F00E94A21EDC01CB018619FF
:102650009709A809B90989389341A105B105D0F4B2
:1026600062E370E080E090E00E94681EE6CFF70130
:102670004281538164817581808D918DA28DB38D4E
:10268000481759076A077B0749F4848D958DC597CC
:1026900029F409C0CC24CA94DC2C93C05EEFC52E6B
:1026A000DD24DA948EC0F70181A192A10C970CF47D
:1026B000E9C04CE050E0BE016F5F7F4FC8010E944F
:1026C000250F8B819C819827892798279A8B898B46
:1026D000F7014681578129813A814217530709F052
:1026E000C2C097FFC0C08F709270892B09F0C0C024
:1026F0006F8078847624672476246114710409F449
:10270000BCC0C12CD12C8D819E8198278927982708
:10271000C816D90608F466C0812C912C41E050E01F
:10272000BE016D5E7F4FC8010E94250F4B89842F2B
:10273000807C09F076C0442331F050E060E070E026
:10274000C8010E94250F8B898111E8CF42E050E03B
:10275000BE01615F7F4FC8010E94250F42E050E03B
:10276000BE01635F7F4FC8010E94250F44E050E027
:1027700060E070E0C8010E94250F42E050E0BE0119
:102780006F5E7F4FC8010E94250F8F859889498908
:102790005A898115914009F04DC0CD84DE84DC2436
:1027A000CD24DC2481E0C816D10409F043C04115D2
:1027B000544009F053C044E050E0B201C8010E9407
:1027C000250F21E0A21AB10829F0FFEFCF16DF068E
:1027D00009F42FCFC8010E94B90BC60158C08EEF73
:1027E0009FEF55C041E050E0BE01635F7F4FC801DD
:1027F0000E94250F4D85442331F050E060E070E0E9
:10280000C8010E94250F8D858111ECCF44E050E076
:1028100060E070E0C8010E94250FFFEFCF1ADF0AC9
:1028200072CF41E050E060E070E0C8010E94250FE7
:102830001B8A89CF54274527542760E070E0C801E0
:102840000E94250FFFEF8F1A9F0A6814790409F080
:1028500065CF96EFC92EDD24DA94B3CF77EFC72E7C
:10286000DD24DA94AECF4CEFC42EDD24DA94A9CF68
:102870003BEFC32EDD24DA94A4CF2AEFC22EDD2451
:10288000DA949FCF8DEFC82EDD24DA949ACF639629
:102890000FB6F894DEBF0FBECDBFDF91CF911F9171
:1028A0000F91FF90EF90DF90CF90BF90AF909F90EF
:1028B0008F907F906F905F904F900895FC018CEF08
:1028C00091E0918380831282138214821582138691
:1028D000128648EE53E060E070E0448755876687D3
:1028E000778724E431E031872087978B868B108EA1
:1028F000118E128E138E84E080A30895AF92BF9242
:10290000CF92DF92EF92FF920F931F93CF93DF93BB
:1029100000D000D000D0CDB7DEB77C016B015C01E8
:1029200082E0A80EB11CC5010E945607C5010E9495
:1029300037078B3521F08B3709F483C08DC0F70141
:102940008085882309F46BC08150F701808700815E
:102950001181B80184E090E00E942807009709F4F3
:102960009CC0FC0111830083138212828C016BE5F1
:10297000C5010E94C507882309F451C06DE5C50152
:102980000E94C507811146C01A821982BE016F5F7D
:102990007F4FC7010E947E14882309F440C0F801CC
:1029A0006081718188E090E00E942807DC01892B1A
:1029B00039F011961C921E9213961C921E92129739
:1029C000F801228133812115310551F0F90180810F
:1029D0009181009711F09C01F9CFB183A08303C0CE
:1029E000F801B383A2831097D1F086E0FE013196FF
:1029F000129601900D928A95E1F76DE5C5010E944E
:102A0000C507811107C06CE2C5010E94C50781118D
:102A1000BBCF05C0F70180858F5F808703C00E9410
:102A200016078C01F80180819181892B11F410E047
:102A300037C086E090E0F6019183808313830283A0
:102A40002AC0C7010E946308FC0120813181232B29
:102A500071F327E030E01AC0C5010E94370711E08A
:102A6000873219F0823209F010E0C7010E94DB07BB
:102A70000097E9F2112341F022E030E0F6013183C2
:102A80002083938382830CC021E030E0F601318300
:102A900020839383828311E003C00E94160766CFD0
:102AA000812F26960FB6F894DEBF0FBECDBFDF9103
:102AB000CF911F910F91FF90EF90DF90CF90BF903B
:102AC000AF900895CF92DF92EF92FF92CF93DF9372
:102AD000AB01BC0177FF1DC06A017B016DE28AEC8E
:102AE00095E00E946A17EC0144275527BA014C195A
:102AF0005D096E097F092AE08AEC95E00E94AA1719
:102B00008C0F9D1FDF91CF91FF90EF90DF90CF90C2
:102B100008952AE08AEC95E0DF91CF91FF90EF9045
:102B2000DF90CF900C94AA17CF92DF92EF92FF9292
:102B30001F93CF93DF93EC011F81662311F0912F38
:102B400001C090E0288530E0220F331F22503F4F14
:102B5000A0E0B0E0F90145915491FA018081812310
:102B6000AD0160E070E089130FC01196CD84DE8462
:102B7000EF84F8884C155D056E057F0558F33FEF2F
:102B80002FEF8FEF9FEF03C03A2F252FCB01632F3D
:102B9000722FDF91CF911F91FF90EF90DF90CF9038
:102BA0000895CF92DF92EF92FF920F931F93CF93EE
:102BB000DF936C017A018B01C0E0D0E0CE15DF0518
:102BC00081F0D8016D918D01D601ED91FC910190BC
:102BD000F081E02DC6010995892B11F02196EECFE9
:102BE0007E01C701DF91CF911F910F91FF90EF9070
:102BF000DF90CF900895FC01538D448D252F30E058
:102C0000842F90E0821B930B541710F0CF960895F9
:102C100001970895FC01918D828D981761F0828D46
:102C2000DF01A80FB11D5D968C91928D9F5F9F7300
:102C3000928F90E008958FEF9FEF0895FC01918DA2
:102C4000828D981731F0828DE80FF11D858D90E00F
:102C500008958FEF9FEF0895FC01918D228D892FAC
:102C600090E0805C9F4F821B91098F739927089594
:102C70008BE195E00E942C1621E0892B09F420E0DD
:102C8000822F0895FC01848DDF01A80FB11DA35A86
:102C9000BF4F2C91848D90E001968F739927848F7C
:102CA000A689B7892C93A089B1898C91837080649F
:102CB0008C93938D848D981306C00288F389E02D40
:102CC00080818F7D80830895EF92FF920F931F93F1
:102CD000CF93DF93EC0181E0888F9B8D8C8D9813CF
:102CE00005C0E889F989808185FD26C0F62E0B8D07
:102CF00010E00F5F1F4F0F731127E02E8C8DE8122D
:102D00000CC00FB607FCFACFE889F989808185FFEE
:102D1000F5CFCE010E944216F1CF8B8DFE01E80F58
:102D2000F11DE35AFF4FF0829FB7F8940B8FEA89A9
:102D3000FB89808180620AC09FB7F894EE89FF8981
:102D40006083E889F98980818370806480839FBF74
:102D500081E090E0DF91CF911F910F91FF90EF9074
:102D60000895CF93DF93EC01888D8823C9F0EA8919
:102D7000FB89808185FD05C0A889B9898C9186FD74
:102D80000FC00FB607FCF5CF808185FFF2CFA88971
:102D9000B9898C9185FFEDCFCE010E944216E7CF15
:102DA000DF91CF91089580E090E0892B29F00E9477
:102DB000381681110C9400000895FC0120812EBD6D
:102DC0009B012150310941F051810DB407FEFDCF27
:102DD0004EB55EBD4193F5CF61507109FC01E60F20
:102DE000F71F0DB407FEFDCF8EB5808308950E94B6
:102DF0006F300F931F93CF93DF93EC0188819981FC
:102E0000009729F02A813B812617370788F48B0128
:102E10006F5F7F4F0E94A92F009761F0998388838D
:102E20001B830A832C813D81232B11F4FC0110822A
:102E300081E001C080E0DF91CF911F910F91089553
:102E4000CF92DF92EF92FF92611571058105910596
:102E500049F06B017C010E94192BA70196010E9489
:102E6000C92C03C060E070E0CB01FF90EF90DF90D1
:102E7000CF9008950F931F93CF93DF93EC010E949F
:102E8000A21E688779878A879B87E881F9810284F7
:102E9000F385E02DCE01099597FF17C00E94A21E71
:102EA000088519852A853B85DC01CB01801B910BA8
:102EB000A20BB30B0C811D812E813F8180179107DE
:102EC000A207B30710F38FEF9FEFDF91CF911F9110
:102ED0000F910895DC01ED91FC910190F081E02DBE
:102EE0000994EF92FF920F931F93CF93DF938C017E
:102EF0007B01C0E0D0E0F701EC0FFD1F6491662379
:102F000061F0D801ED91FC910190F081E02DC801B4
:102F10000995892B11F02196EECFCE01DF91CF914B
:102F20001F910F91FF90EF9008956115710579F051
:102F3000FB0101900020E9F73197AF01461B570BC9
:102F4000DC01ED91FC910280F381E02D099480E099
:102F500090E008958F929F92AF92BF92EF92FF926E
:102F60000F931F93CF93DF93CDB7DEB7A1970FB623
:102F7000F894DEBF0FBECDBF7C01FA01CB0119A2D0
:102F8000223008F42AE08E010F5D1F4F822E912C13
:102F9000A12CB12CBF01A50194010E94322DF90191
:102FA000CA01015011096A3014F4605D01C0695C06
:102FB000D8016C93232B242B252B61F7B801C70173
:102FC0000E949517A1960FB6F894DEBF0FBECDBF35
:102FD000DF91CF911F910F91FF90EF90BF90AF9035
:102FE0009F908F9008957F928F929F92AF92BF9201
:102FF000CF92DF92EF92FF920F931F93CF93DF93C5
:103000008C016A017B01722E9A01AB01C701B601E6
:103010000E94762E882319F067E574E027C04601E8
:103020005701E894B7F82FEF3FEF4FE75FE7C5018F
:10303000B4010E94762E81110DC02FEF3FEF4FE7B4
:103040005FE7C501B4010E94A52B18161CF46BE5BF
:1030500074E00CC02FEF3FEF4FE75FE4C701B6010C
:103060000E94712E181694F46FE574E0C801DF9188
:10307000CF911F910F91FF90EF90DF90CF90BF9075
:10308000AF909F908F907F900C9495172FEF3FEF0C
:103090004FE75FECC701B6010E94A52B87FDE4CF87
:1030A00020E030E0A901C701B6010E94A52B87FFEF
:1030B0000AC06DE2C8010E946A17EC01F7FAF094A9
:1030C000F7F8F09402C0C0E0D0E0B12C60E070E00E
:1030D00080E09FE37B1441F020E030E040E251E4E7
:1030E0000E94D02DB394F6CFA70196010E94642DC3
:1030F0006B017C010E94422E4B015C012AE0AB0176
:10310000BC01C8010E94AA17C80FD91F7720C1F1BE
:10311000C501B4010E94AA2B9B01AC01C701B601F5
:103120000E94632D6B017C016EE2C8010E946A1748
:10313000C80FD91F20E030E040E251E4C701B601DA
:103140000E940B2C4B015C010E94422E6B01E12C72
:10315000F12C2AE0B701A601C8010E94AA17C80FE6
:10316000D91FC701B6010E94AA2B9B01AC01C50162
:10317000B4010E94632D6B017C017A947110DACF47
:10318000CE01DF91CF911F910F91FF90EF90DF90D3
:10319000CF90BF90AF909F908F907F9008958F9227
:1031A0009F92AF92BF92CF92DF92EF92FF920F93D6
:1031B0001F93CF93DF937C018B016C0182E0C80EDB
:1031C000D11C4701E5E08E0E911CC0E0D0E0F60175
:1031D00041916F0150E060E070E02AE0C8010E9478
:1031E000AA175C016EE2C8010E946A178A0D9B1D36
:1031F000C80FD91FC814D90451F7F701458150E011
:1032000060E070E02AE0C8010E94AA178C0F9D1FA1
:10321000DF91CF911F910F91FF90EF90DF90CF90B2
:10322000BF90AF909F908F9008950F931F93CF936F
:10323000DF93EC010E9495178C016CE174E0CE01E4
:103240000E949517800F911FDF91CF911F910F91D1
:1032500008950F931F93CF93DF93EC010E94711792
:103260008C016CE174E0CE010E949517800F911FD4
:10327000DF91CF911F910F9108950C949517DC0168
:103280008CEF91E08D939D9384E0FB0101900D9272
:103290008A95E1F708951F920F920FB60F921124AD
:1032A0002F933F934F935F936F937F938F939F934E
:1032B000AF93BF93EF93FF938BE195E00E9442168B
:1032C000FF91EF91BF91AF919F918F917F916F91FE
:1032D0005F914F913F912F910F900FBE0F901F90D4
:1032E00018951F920F920FB60F9211242F938F9360
:1032F0009F93EF93FF93E0912B05F0912C05808134
:10330000E0913105F091320582FD12C090818091EB
:1033100034058F5F8F7320913505821751F0E0914E
:103320003405F0E0E55EFA4F958F8093340501C0D7
:103330008081FF91EF919F918F912F910F900FBE00
:103340000F901F901895CF93C82F462F61E070E023
:103350000E94140D61E070E08C2F0E94320D8111EB
:10336000F9CFCF910895AF92BF92CF92DF92EF92B3
:10337000FF920F931F93CF93DF9300D000D0CDB770
:10338000DEB78C016B017A01809159068333F1F429
:103390005B016801C40ED51E0C151D0509F460C043
:1033A0000E94590A8FE00E948A0A812F0E948A0A8D
:1033B000802F0E948A0A0F5F1F4F80E00E948A0AB6
:1033C000F50181935F010E944F0AE6CF8433F1F447
:1033D0000E94590A19830A838F2D8F778B83EC8281
:1033E00064E070E0CE0101960E94DD16A70160E066
:1033F00070E0C6010E948A30E114F10421F0B701A7
:10340000C6010E94DD160E944F0A2AC00E94590A76
:103410000F3F110509F020F419820A831B821DC099
:1034200017FD0BC019820A8333E0169507953A956C
:10343000E1F7007E08600B8310C0C80126E0969576
:1034400087952A95E1F719830A83807E0115104C30
:1034500010F4806101C088618B8363E070E0C2CFAB
:10346000C7010F900F900F900F90DF91CF911F9198
:103470000F91FF90EF90DF90CF90BF90AF900895A5
:10348000AF92BF92CF92DF92EF92FF920F931F9372
:10349000CF93DF93CDB7DEB728970FB6F894DEBF92
:1034A0000FBECDBF8C017B016A0180915906833329
:1034B000E1F45801A40EB51E0A151B0509F48BC0D2
:1034C0000E94590A80EF0E948A0A812F0E948A0A6C
:1034D000802F0E948A0A0F5F1F4FF70181917F01A1
:1034E0000E948A0A0E944F0AE7CF843321F50E9486
:1034F000590A19830A838D2D80688B83CC8264E0FE
:1035000070E0CE0101960E94DD1687010C0D1D1D95
:10351000E016F10669F0F70181917F010E948A0AA5
:10352000F7CFB6016D5F7F4FCE0101960E94DD1689
:103530000E944F0A50C00E94590A0F3F110509F01E
:1035400020F419820A8384E01CC017FD0BC0198285
:103550000A8333E0169507953A95E1F7007E0C60F3
:103560000B8310C0C80126E0969587952A95E1F750
:1035700019830A83807E0115104C10F4846101C008
:103580008C618B8326E0C216D10498F420E0822F50
:1035900090E08C159D0528F6E4E0F0E0EC0FFD1FAF
:1035A000E80FF91FD701A80FB91F8C9180832F5FF7
:1035B000EECF63E070E0CE0101960E94DD16870138
:1035C0000C0D1D1DF70181917F010E948A0AE016F2
:1035D000F106C1F7ADCFC60128960FB6F894DEBF4D
:1035E0000FBECDBFDF91CF911F910F91FF90EF9054
:1035F000DF90CF90BF90AF900895CF93DF9380E896
:103600000E94770AC4E1D0E00E94640A882351F046
:1036100061E070E080E090E00E94681E2197A1F7D1
:1036200080E001C081E0DF91CF910895CF93DF93D7
:10363000EB010E943A1797FD04C0888381E090E077
:1036400002C080E090E0DF91CF91089520E5FC0179
:10365000208321E02183089520E3FC01208332961A
:10366000862F82958F7090E1899F601911246A30AE
:1036700014F4605D01C0695C6293682F8111F0CF22
:1036800008952F923F924F925F926F927F928F9206
:103690009F92AF92BF92CF92DF92EF92FF920F93E1
:1036A0001F93CF93DF93CDB7DEB7E9970FB6F894AA
:1036B000DEBF0FBECDBF7C014A015B0119010E9434
:1036C000A21E2B013C0187010D5B1F4FC8010E9408
:1036D0006D0F18161906A4F00E94A21EDC01CB0182
:1036E00084199509A609B70988169906AA06BB0682
:1036F000D8F062E370E080E090E00E94681EE6CFC0
:1037000042E250E0BE016F5F7F4FC8010E94250F6B
:103710008981823011F080E035C1F8018489958972
:1037200083349105C1F702C08FEF2CC16D817E817A
:103730008F8198850E947B2E2B013C01F1016083D3
:1037400071838283938346E050E0B701685F7F4FC7
:10375000CE014D960E947430892BE9F6F7018081E5
:103760009181A281B381481659066A067B0698F2B8
:1037700084819581A681B78184159505A605B70535
:1037800050F289899A89AB89BC8986879787A08BF3
:10379000B18B4EEC50E060E070E0C8010E94250F54
:1037A0001FA66701F2E2CF0ED11CC701869699AB26
:1037B00088ABF701BA96FBABEAAB4701FAE18F0E93
:1037C000911C8D969DAB8CABF7017296FFABEEAB67
:1037D000CD9799AF88AF17019EE1290E311CF801F2
:1037E000818D928D181619060CF0CBC0C8010E946D
:1037F000440F8333910509F4A5C0ACF481309105E1
:1038000069F11CF4892B59F3B6C08330910571F12D
:10381000069709F0B0C0C8010E94440F5C0144E063
:1038200050E0B1012BC08A33910509F45FC034F434
:103830008533910559F0C69771F19DC08B33910581
:1038400009F46AC08F3F910551F295C0C8010E94EA
:10385000440FC8010E94440F8FA7C1CFC8010E9426
:10386000440F44E050E06EA97FA911C0C8010E9436
:10387000440F5C0144E050E068AD79ADC8010E949E
:10388000250FA50155274450510960E070E0C8019B
:103890000E94250FA4CFC8010E94440F5C01B4010F
:1038A000CE0183960E943F198DA19EA1AFA1B8A51C
:1038B000892B8A2B8B2BA1F0ECA9FDA9408051808C
:1038C00062807380B401CE0189960E943F198BA556
:1038D0009CA5ADA5BEA584159505A605B70521F443
:1038E00044E050E0B401D3CFA50149C0C8010E9413
:1038F000440F44E050E068A979A9C8010E94250F4F
:10390000F70166A177A180A591A50E947B2E66A3F1
:1039100077A380A791A763CFC8010E94440F44E01A
:1039200050E06AA97BA9C8010E94250FF70162A592
:1039300073A584A595A50E947B2E62A773A784A773
:1039400095A74DCFC8010E94440F44E050E0B60156
:10395000C8010E94250FF70162A173A184A195A15E
:103960000E947B2E62A373A384A395A366A777A767
:1039700080AB91AB34CFC8010E94440FAC015527F6
:1039800084CF8FA5E9960FB6F894DEBF0FBECDBFEA
:10399000DF91CF911F910F91FF90EF90DF90CF902B
:1039A000BF90AF909F908F907F906F905F904F905F
:1039B0003F902F9008958F929F92AF92BF92CF9297
:1039C000DF92EF92FF921F93CF93DF93CDB7DEB7D5
:1039D0002C970FB6F894DEBF0FBECDBF20915906CD
:1039E000222309F4B4C06B017C01CE0101960E9430
:1039F000261B89819A810E949A055E0127E0A20E0A
:103A0000B11C450110E063E070E0812F0E94320D8F
:103A1000F40181934F018823C9F01F5F143099F797
:103A200010E0F50181915F018D3159F0883149F045
:103A30008A51823030F01F5F143099F70E94990547
:103A400086C060E170E0812F0E94A319A12EB12CE5
:103A500083EE93E00197F1F742E860E070E0812F98
:103A60000E94140D4FEF62E070E0812F0E94140D50
:103A7000C114D10411F0B60113C0809106019091D8
:103A8000070101968115F0EC9F0710F480E090EC9F
:103A900090930701809306016091060170910701E0
:103AA000812F0E94B60C86E0EEEFF1E0DE01119668
:103AB00001900D928A95E1F7F70183818F778C83CE
:103AC00084818D8385818E83A7014E5F5F4F24E0C3
:103AD00030E06CE070E0812F0E94C70BB601812FAF
:103AE0000E94A10C26E030E0AE014F5F5F4F66E020
:103AF00070E0812F0E94C70B61E070E0812F0E946F
:103B0000A31927E02A9DC0012B9D900D11249C0133
:103B10002B5C394F7901F9011182108222E030E0EB
:103B2000AE01455F5F4F68E270E0812F0E9487051C
:103B30008B859C85982789279827F7019383828313
:103B40001682158214820E949905812F01C084E09B
:103B50002C960FB6F894DEBF0FBECDBFDF91CF918C
:103B60001F91FF90EF90DF90CF90BF90AF909F900C
:103B70008F90089590E0FC01EC5BFE4F2491FC01D6
:103B8000E45EFE4F3491FC01E85FFE4FE491EE23CA
:103B900009F43CC0222339F1233091F038F421306C
:103BA000A9F0223001F584B58F7D12C0273091F045
:103BB0002830A1F02430B9F4809180008F7D03C0BB
:103BC000809180008F77809380000DC084B58F77BF
:103BD00084BD09C08091B0008F7703C08091B00090
:103BE0008F7D8093B000F0E0EE0FFF1FE65CFE4F8C
:103BF000A591B4919FB7F894611104C08C91309550
:103C0000382302C0EC913E2B3C939FBF0895CF9385
:103C1000DF9390E0FC01E45EFE4F2491FC01E85F3D
:103C2000FE4F8491882361F190E0880F991FFC0179
:103C3000E05DFE4FC591D491FC01E65CFE4FA5917D
:103C4000B491611109C09FB7F894888120958223AF
:103C50008883EC912E230BC0623061F49FB7F894F7
:103C60008881322F309583238883EC912E2B2C93DF
:103C70009FBF06C08FB7F894E8812E2B28838FBF93
:103C8000DF91CF9108953FB7F89480915F069091AE
:103C90006006A0916106B091620626B5A89B05C09A
:103CA0002F3F19F00196A11DB11D3FBFBA2FA92FBB
:103CB000982F8827820F911DA11DB11DBC01CD0138
:103CC00042E0660F771F881F991F4A95D1F7089524
:103CD0008F929F92AF92BF92CF92DF92EF92FF921C
:103CE0006B017C010E94431E4B015C01C114D10495
:103CF000E104F104F1F00E94431EDC01CB018819BC
:103D00009909AA09BB09883E9340A105B10570F342
:103D100021E0C21AD108E108F10888EE880E83E09C
:103D2000981EA11CB11CC114D104E104F10419F7BF
:103D3000DDCFFF90EF90DF90CF90BF90AF909F903E
:103D40008F9008952FB7F89460915B0670915C0690
:103D500080915D0690915E062FBF08958F929F928D
:103D6000AF92BF92CF92DF92EF92FF920F931F9389
:103D7000CF93DF93CDB7DEB7C054D1400FB6F894E0
:103D8000DEBF0FBECDBF8C010E94A21EF801C18410
:103D9000D284E384F4849B01AC012C193D094E09C3
:103DA0005F0969017A0130EDC31637E0D306E104FB
:103DB000F10410F48189C2C0F8016187728783879A
:103DC00094871482138212821182108262E08581AC
:103DD0000E94071E61E070E080E090E00E94681E93
:103DE00061E0F80185810E94071E60E0F80185818D
:103DF0000E94BA1DF80186818551823028F48BE239
:103E000091E10197F1F706C064E170E080E090E095
:103E10000E94681E62E0F80185810E94071EF80179
:103E2000828990E08230910538F0880F991F880FC1
:103E3000991F05970197F1F7F89460E0C8010E9477
:103E400094156F3F7F4F8F4F9F4F21F4F801118AD8
:103E5000789445C061E0C8010E9494156F3F7F4F80
:103E60008F4F9F4F99F39E012F5F3F4F79015E0166
:103E70003FEBA31A3EEFB30A670160E0C8010E945E
:103E80009415F601608371838283938361E0C80196
:103E90000E949415F6016483758386839783F8E006
:103EA000CF0ED11CCA14DB0441F7789420E030E037
:103EB000F70180809180A280B38044815581668122
:103EC0007781FFEF8F169F06AF06BF0631F04F3F99
:103ED0008FEF58076807780721F4F801118A80E00E
:103EE0002DC0F90183E0F595E7958A95E1F7E00F9C
:103EF000F11F8081880F84169506A606B70608F480
:103F0000816080832F5F3F4FF8E0EF0EF11C283275
:103F1000310571F6F801248130E04081818190E023
:103F2000840F911D4281840F911D4381840F911D47
:103F300099272817390789F681E0818BC05CDE4F0D
:103F40000FB6F894DEBF0FBECDBFDF91CF911F91AA
:103F50000F91FF90EF90DF90CF90BF90AF909F9028
:103F60008F9008951F920F920FB60F9211242F93E6
:103F70003F938F939F93AF93BF9380915B069091F4
:103F80005C06A0915D06B0915E0630915A0623E072
:103F9000230F2D3720F40196A11DB11D05C026E881
:103FA000230F0296A11DB11D20935A0680935B0634
:103FB00090935C06A0935D06B0935E0680915F06C9
:103FC00090916006A0916106B09162060196A11DD4
:103FD000B11D80935F0690936006A0936106B09335
:103FE0006206BF91AF919F918F913F912F910F905A
:103FF0000FBE0F901F901895CF93DF93CDB7DEB70C
:10400000C956D1090FB6F894DEBF0FBECDBF789464
:1040100084B5826084BD84B5816084BD85B58260CD
:1040200085BD85B5816085BD80916E00816080937E
:104030006E001092810080918100826080938100E7
:1040400080918100816080938100809180008160F7
:10405000809380008091B10084608093B100809152
:10406000B00081608093B00080917A00846080937A
:104070007A0080917A00826080937A0080917A0041
:10408000816080937A0080917A00806880937A00C2
:104090001092C10061E084E00E94071E61E085E0AB
:1040A0000E94071E61E086E00E94071E61E087E033
:1040B0000E94071E61E088E00E94071E61E089E01F
:1040C0000E94071E61E08EE00E94071E61E08FE003
:1040D0000E94071E61E080E10E94071E61E081E10D
:1040E0000E94071E61E082E10E94071E61E083E1F9
:1040F0000E94071EE0912B05F0912C0582E0808341
:10410000E0912705F09128051082E0912905F091B2
:104110002A058FEC808310923305E0912F05F091F2
:10412000300586E08083E0912D05F0912E05808199
:1041300080618083E0912D05F0912E05808188605B
:104140008083E0912D05F0912E0580818068808329
:10415000E0912D05F0912E0580818F7D808300E018
:1041600010E0A1E2FA2EF801F092570084910E942B
:10417000BC110E5F1F4F06301105A9F70EE010E0CD
:10418000F1E2FF2EF801F092570084910E94BC11D9
:104190000F5F1F4F08311105A9F740910306509199
:1041A00004066091FF05709100068BE195E00E9486
:1041B000D1156CE174E08BE195E00E94951762E007
:1041C0008091DE050E94071E0E94A21EDC01CB0129
:1041D000805D9740A109B1098093E2059093E305C2
:1041E000A093E405B093E50587E38093EB05809108
:1041F000EF058BA780EE91E09AA789A78091F00543
:104200009091F1059DA78CA78091F2059091F305FF
:10421000A091F405B091F5058EA79FA7A8ABB9AB07
:104220008E01075D1F4FBE016F5F7F4FC8010E9467
:10423000F1028091F8058BA782ED91E09AA789A7FA
:104240008091F9059091FA059DA78CA78091FB05B7
:104250009091FC05A091FD05B091FE058EA79FA74A
:10426000A8ABB9ABBE016F5F7F4FC8010E9473025C
:104270006DA17EA18FA198A5E8EECE2EE3E0DE2E03
:10428000E12CF12CA70196010E94C92C2093FF0478
:104290003093000540930105509302058091CA04B4
:1042A000811126C01092B2041092B104C092B304DE
:1042B000D092B404E092B504F092B60484E491E0A4
:1042C0009093B0048093AF048CEF91E09093BE0480
:1042D0008093BD041092BF041092C0041092C104D8
:1042E0001092C20484E08093C70481E08093CA04E2
:1042F0008CE694E090936B0480936A048091690447
:10430000811126C260E372E080E090E00E94681EA6
:10431000FFB6F89480916804811127C0E2E1F1E0D2
:104320008491E6E2F1E09491E82FF0E0EE0FFF1FB8
:10433000E05DFE4FA591B491EC91E92321F461E099
:104340008AE00E94BA1D61E08AE00E94071E8CB5D7
:1043500080618CBD8CB580648CBD61E08DE00E9475
:10436000071E61E08BE00E94071E809168048F5F4A
:1043700080936804FFBEE2E1F1E0E491F0E0EE0F2B
:10438000FF1FE65CFE4F85919491909366048093A5
:104390006504E6E2F1E0E491E093640461E08AE020
:1043A0000E94071E0E944F0AC8010E94261B89A571
:1043B0009AA50E949A0584E3809359060E94FD1AEB
:1043C0008823F9F088E00E94770A0E94640A883006
:1043D000C1F480E10E94770A0E94640A803189F466
:1043E00080E00E94770A0E94640A81110AC041E0BD
:1043F00050E0B8018FE190E00E94B31989A58330A5
:1044000091F187E3809359060E94FD1A882309F4ED
:104410004FC088E00E94770A0E94640A883009F041
:1044200047C080E10E94770A0E94640AF82E90E15A
:1044300089133EC080E00E94770A0E94640A8111BD
:1044400037C041E050E0B80189E390E00E94B31921
:1044500089A5843069F5F09267040E94990581E08E
:104460008093690475C180E480936704F12C42E075
:104470006EE170E08F2D0E94140D42E06FE170E05C
:104480008F2D0E94140DF394F4E0FF12F0CF40E062
:104490006EE170E08F2D0E94140D40E06FE170E03E
:1044A0008F2D0E94140DF39488E0F812F0CFD5CF31
:1044B00083E3809359060E94FD1A882399F180E1D5
:1044C0000E94770A0E94640A803161F582E10E94AD
:1044D000770A0E94640A823129F580E00E94770AF7
:1044E0000E94640A81111EC084E08093670485E500
:1044F000F82EA696FFAEA69741E050E0BE016B599C
:104500007F4F8BE190E00E94401AA596FFAEA597E1
:1045100041E050E0BE016C597F4F8AE190E00E947B
:10452000401A9BCF109259060E949905C8018096A7
:10453000A8969FAF8EAFA8971E019FE5290E311C4C
:1045400064E272E08BE195E00E94151960E177E288
:1045500080E090E00E94681E6BEE70E08BE195E0D9
:104560000E94711768E372E08BE195E00E941519D3
:104570006DED70E08BE195E00E947117CE01019620
:104580000E94C2066BE175E0CE0101960E94CF1831
:104590006CE174E08BE195E00E9495176AEC70E0A5
:1045A0008BE195E00E9471176091FF047091000506
:1045B00080910105909102050E94681E8091EF058F
:1045C0008BA7A0EEB1E0BAA7A9A78091F0059091C2
:1045D000F1059DA78CA78091F2059091F305A0911C
:1045E000F405B091F5058EA79FA7A8ABB9ABBE01A6
:1045F0006F5F7F4FC8010E940304CD88DE88EF887B
:10460000F88CA7019601C701B6010E94762E882377
:1046100039F06FEA70E08BE195E00E94291921C022
:10462000C092FB04D092FC04E092FD04F092FE04E0
:1046300068EA70E08BE195E00E9471174091FB04FD
:104640005091FC046091FD047091FE0422E08BE126
:1046500095E00E94F31764EA70E08BE195E00E9418
:1046600071178091F8058BA7E2EDF1E0FAA7E9A7B1
:104670008091F9059091FA059DA78CA78091FB0583
:104680009091FC05A091FD05B091FE058EA79FA716
:10469000A8ABB9ABBE016F5F7F4FC8010E94840316
:1046A000CD88DE88EF88F88CA7019601C701B60196
:1046B0000E94762E882349F06CE870E08BE195E04B
:1046C0000E9429199FE1F92E3BC0C092F704D092B5
:1046D000F804E092F904F092FA0463E870E08BE1E8
:1046E00095E00E9471174091F7045091F804609191
:1046F000F9047091FA0422E08BE195E00E94F3172F
:1047000061E870E0DBCF8091F60481113AC28BE161
:1047100095E00E940A169091D304992309F414C6D7
:10472000E091D2048E3309F403C6AE2FB0E0AA5252
:10473000BB4F8C93EF5FE03208F0F7C5E093D204F3
:104740008BE195E00E942C1618161906E4F219C2A6
:10475000C8010E94261B89A59AA50E949A0546E0D9
:1047600050E060E071E089E090E00E94401A8CEF38
:1047700091E09AA789A71BA61CA61DA61EA644E029
:1047800050E0BE01655D7F4F8FE090E00E94401ACF
:104790000E949905E0906A04F0906B04F70112A260
:1047A00013A214A215A216A217A210A611A612A651
:1047B00013A614A615A680E69AEEA0E0B0E086AB9C
:1047C00097ABA0AFB1AF80EA9FE0A0E0B0E082AFCE
:1047D00093AFA4AFB5AF3E9684E1DF011D928A95F9
:1047E000E9F786E0E0E0F1E0D701189601900D923C
:1047F0008A95E1F74701B2E48B0E911CF401108217
:104800006FEC77E080E090E00E942017DC01CB01A4
:104810000196A11DB11DF70184839583A683B783FB
:1048200080839183A283B383C7018D5B9F4FAA9638
:104830009FAF8EAFAA970E94B90B64E470E0AA966E
:104840008EAD9FADAA970E94FB0D882309F46ECE12
:104850000E94A21E2B013C01212C312C58EEA52ECA
:1048600053E0B52EC12CD12CD4018C91833009F4A6
:1048700008C181111FC0F70184819581A681B7818C
:104880000196A11DB11D84839583A683B7830E94E1
:10489000A21E6419750986099709A60195010E944F
:1048A000322DA90161E0C7010E94701081E0D4019E
:1048B0008C93CFC08430E9F4F70184819581A6817F
:1048C000B7810196A11DB11D84839583A683B7830B
:1048D0000E94A21E6419750986099709A60195010F
:1048E0000E94322DA90163E0C7010E947010E2E02E
:1048F0002EC0813079F5D701DA964D915D916D9199
:104900007C91DD979801C7010E94411BA7968FAF4C
:10491000A797823009F096C089A59AA5ABA5BCA53A
:10492000F70184839583A683B7830E94A21E64192E
:10493000750986099709A60195010E94322DA901E2
:1049400063E0C7010E947010A796EFADA797D4014E
:10495000EC937FC0823009F07CC0D701DA964D918C
:104960005D916D917C91DD979801C7010E94411B7B
:10497000A7968FAFA797853009F05CC083E0F4015C
:104980008083F70182A193A1A4A1B5A1892B8A2BD1
:104990008B2B41F484E893E0A0E0B0E082A393A3E2
:1049A000A4A3B5A3F70186A197A1A0A5B1A5892BC2
:1049B0008A2B8B2B61F482A193A1A4A1B5A1B695FA
:1049C000A7959795879586A397A3A0A7B1A7F70169
:1049D00082A593A5A4A5B5A5892B8A2B8B2BA9F419
:1049E00082A193A1A4A1B5A1AC01BD0133E076954C
:1049F0006795579547953A95D1F7841B950BA60B6C
:104A0000B70B82A793A7A4A7B5A7F70186A197A183
:104A1000A0A5B1A586A797A7A0ABB1AB82A593A58A
:104A2000A4A5B5A582AB93ABA4ABB5AB22242394CC
:104A3000312C0FC0A796FFADA797F63019F4D4011B
:104A40001C9207C0A796BFADA797BF3F11F4F40112
:104A50001082F1E02F16310409F406CF0E94A21E45
:104A6000DC01CB0184199509A609B709F70126A92C
:104A700037A940AD51AD281739074A075B0708F041
:104A8000F3CEAA968EAD9FADAA970E94B90BF701FF
:104A900084819581A681B7810196A11DB11D848372
:104AA0009583A683B7830E94A21EF701FE966083BA
:104AB0007183828393832A94232809F037CDC80118
:104AC0000E94261B89A59AA50E949A0560916A04F6
:104AD00070916B04625F7F4FC8010E943F1944E0F0
:104AE00050E0BE01655D7F4F8FE090E00E94401A6C
:104AF00060916A0470916B046A5E7F4FC8010E94E6
:104B00003F1944E050E0BE01655D7F4F81E090E0D9
:104B10000E94401A60916A0470916B046E5E7F4F30
:104B2000C8010E943F1944E050E0BE01655D7F4F1F
:104B300085E090E00E94401A0E94990560916A0405
:104B400070916B04625E7F4FC8010E943F198BA574
:104B50009CA5ADA5BEA58093BA059093BB05A09377
:104B6000BC05B093BD050E94431E7F738091060172
:104B700090910701682779277093070160930601D8
:104B8000D5CC62ED73E08BE195E00E94151962EDE2
:104B900073E08BE195E00E9415196CE074E08BE105
:104BA00095E00E94151940E550E066E473E08AEC58
:104BB00095E00E9400027C0140E550E066E473E06D
:104BC0008AEC95E00E940002EF2809F0ABC361E196
:104BD00072E08BE195E00E9415198090F7049090A7
:104BE000F804A090F904B090FA044090FB045090AF
:104BF000FC046090FD047090FE046B961FAE1EAE28
:104C00006B976D961FAE1EAE6D976F961FAE1EAE64
:104C10006F97E090FF05F0900006E114F10459F160
:104C2000C0900306D0900406B601CE01875A9F4F6C
:104C30000E94F9166B962EAD3FAD6B97811113C094
:104C40002115310519F0C9010E94202F6B961FAE66
:104C50001EAE6B976F961FAE1EAE6F976D961FAE12
:104C60001EAE6D9708C06F96DFAECEAE6F97B701E0
:104C7000C9010E949A3061E472E08AEC95E00E94DA
:104C80003D1967E472E08AEC95E00E943D196BE5FE
:104C900072E08AEC95E00E943D1961E672E08AECD0
:104CA00095E00E943D196F964EAD5FAD6F976B9684
:104CB0006EAD7FAD6B978AEC95E00E949D0565E631
:104CC00072E08AEC95E00E943D1969E570E080E0B1
:104CD00090E00E942017665F7F4F8F4F9F4F0E948A
:104CE00062156FE672E08AEC95E00E943D1969E575
:104CF00070E080E090E00E942017665F7F4F8F4F4A
:104D00009F4F0E94621569E772E08AEC95E00E946D
:104D10003D1969E570E080E090E00E942017665F31
:104D20007F4F8F4F9F4F0E94621563E872E08AECBD
:104D300095E00E943D1969E570E080E090E00E94F6
:104D40002017665F7F4F8F4F9F4F0E9462156DE85F
:104D500072E08AEC95E00E943D1969E570E080E020
:104D600090E00E942017665F7F4F8F4F9F4F0E94F9
:104D7000621567E972E08AEC95E00E943D1969E5E9
:104D800070E080E090E00E942017665F7F4F8F4FB9
:104D90009F4F0E94621561EA72E08AEC95E00E94E2
:104DA0003D1969E570E080E090E00E942017665FA1
:104DB0007F4F8F4F9F4F0E9462156BEA72E08AEC23
:104DC00095E00E943D1969E570E080E090E00E9466
:104DD0002017665F7F4F8F4F9F4F0E94621565EBD4
:104DE00072E08AEC95E00E943D1969E570E080E090
:104DF00090E00E942017665F7F4F8F4F9F4F0E9469
:104E000062156FEB72E08AEC95E00E943D1969E54E
:104E100070E080E090E00E942017665F7F4F8F4F28
:104E20009F4F0E9462156AEC72E08AEC95E00E9446
:104E30003D1969E570E080E090E00E942017665F10
:104E40007F4F8F4F9F4F0E94621565ED72E08AEC95
:104E500095E00E943D1969E570E080E090E00E94D5
:104E60002017665F7F4F8F4F9F4F0E94621560EE45
:104E700072E08AEC95E00E943D1969E570E080E0FF
:104E800090E00E942017665F7F4F8F4F9F4F0E94D8
:104E900062156BEE72E08AEC95E00E943D1969E5BF
:104EA00070E080E090E00E942017665F7F4F8F4F98
:104EB0009F4F0E94621566EF72E08AEC95E00E94B7
:104EC0003D1969E570E080E090E00E942017665F80
:104ED0007F4F8F4F9F4F0E94621561E073E08AEC15
:104EE00095E00E943D1922E0B301A2018AEC95E011
:104EF0000E94F31768E073E08AEC95E00E943D1988
:104F000022E0B501A4018AEC95E00E94F3176EE05F
:104F100073E08AEC95E00E943D19C8010E94C20628
:104F20006AEC75E0C8010E94CF1869E173E08AEC71
:104F300095E00E943D1968E372E08AEC95E00E94DA
:104F40003D198091F6048823D1F067E273E08BE18C
:104F500095E00E943D1966ED74E08BE195E00E94BA
:104F600015191092F60464E373E08AEC95E00E9450
:104F70003D1966ED74E08AEC95E00E943D196CE302
:104F800073E08AEC95E00E9415196AE770E08AECFC
:104F900095E00E94711766E473E08AEC95E00E9448
:104FA000151968E670E08AEC95E00E9429196CE119
:104FB00074E08AEC95E00E949517892B09F48DC165
:104FC00080E2D8011D928A95E9F778018AEC95E094
:104FD0000E943A1797FF15C085E0EAE1F4E0D1019D
:104FE00001900D928A95E1F7F10101900020E9F717
:104FF00031975F01A218B30809F45BC0E12CF12CD2
:105000003CC08D30910541F3F70181937F01A89653
:105010008EAD9FADA8978E179F07C1F6DDCFF1012A
:10502000EE0DFF1D2081022E000C330B28173907CF
:10503000B1F1E114F104D1F16F019701A9014150DF
:105040005109D6016E916D01062E000C770B681781
:105050007907D1F44115510579F0D101F701E41B2D
:10506000F50BE20DF31D60E070E08D9091908914D6
:1050700081F04617570759F479018AEC95E00E94B0
:105080003A1797FD16C0CBCF4115510579F09A011B
:10509000D5CF6F5F7F4F6417750738F3EACF97015D
:1050A0002F5F3F4F2A153B0539F703C020E030E062
:1050B000E3CF86E191E064969FAF8EAF64976796E9
:1050C0001FAE1EAE679780EE90E069969FAF8EAFE1
:1050D0006997E2E5F0E0EC0FFD1F2B96FFAFEEAF16
:1050E0002B978AEC95E02D969FAF8EAF2D972E963D
:1050F0001FAE2E972F961FAE2F976196FFAFEEAF84
:1051000061978AE062968FAF6297CE01875B9F4F6F
:105110000E9463087C01DC018D919C91892B39F4FC
:1051200062E673E08BE195E00E941519BDC062E76D
:1051300073E08BE195E00E943D1968E773E0C701D9
:105140000E94EE06BC018BE195E00E9415196CE708
:1051500073E08BE195E00E943D1967E873E0C701B9
:105160000E94EE06BC018BE195E00E94151960E9F2
:1051700073E08BE195E00E943D1968E973E0C70197
:105180000E94EE06BC018BE195E00E9415196EE9C4
:1051900073E0C7010E94EE069093D5048093D40477
:1051A00067EA73E08BE195E00E943D196091D404B9
:1051B0007091D5048BE195E00E941519E090D4041C
:1051C000F090D50461E0F7018181803309F460E05B
:1051D00084E00E94BA1D61E0D70112968C91803361
:1051E00009F460E085E00E94BA1D61E0F701838167
:1051F000803309F460E086E00E94BA1D61E0D701C7
:1052000014968C91803309F460E087E00E94BA1D07
:1052100061E0F7018581803309F460E088E00E9455
:10522000BA1D61E0D70116968C91803309F460E0D5
:1052300089E00E94BA1D61E0F7018781803309F49B
:1052400060E08EE00E94BA1D61E0D70118968C9153
:10525000803309F460E08FE00E94BA1D61E0F7013D
:105260008185803309F460E080E10E94BA1D61E02D
:10527000D7011A968C91803309F460E081E10E9495
:10528000BA1D61E0F7018385803309F460E082E1B3
:105290000E94BA1D61E0D7011C968C91803309F4FD
:1052A00060E083E10E94BA1D86E191E064969FAFC1
:1052B0008EAF64976796EEADFFAD6797309769F054
:1052C0008281938169969FAF8EAF6997E080F1806C
:1052D000CF010E94202FF701F1CF6B968EAD9FADCD
:1052E0006B970E94202F61EB73E08BE195E00E94A9
:1052F00015198AEC95E00E94640162EC73E08BE181
:1053000095E00E94151962ED73E08BE195E00E9433
:10531000151962ED73E08BE195E00E9415190E946A
:10532000D3160EC964E072E054CCF092D20408CADD
:10533000F0E0EA52FB4F10821092D3041092D20494
:10534000F1E0F093F604FCC98C3309F0F9C981E06F
:105350008093D304F5C98091C4059091C5050E943E
:10536000202F8091FF05909100060C94202FCF9361
:10537000DF93EC01198218821B821A821D821C8223
:1053800060E070E00E94F9162881398181110FC018
:105390002115310519F0C9010E94202F19821882A8
:1053A0001D821C821B821A82DF91CF9108951D827B
:1053B0001C8262E374E0C901DF91CF910C949A30B2
:1053C000CF92DF92EF92FF92EBE1F5E0138212822F
:1053D00088EEC82E83E0D82EE12CF12CC482D58231
:1053E000E682F78284E791E09183808385EC90E008
:1053F0009587848784EC90E09787868780EC90E09F
:10540000918B808B81EC90E0938B828B82EC90E08F
:10541000958B848B86EC90E0978B868B118E128E09
:10542000138E148EE5E0F6E08CEF91E0918380839B
:105430001282138214821582EBE0F6E0918380835E
:105440001282138214821582E1E1F6E09183808357
:105450001282138214821582E7E1F6E09183808341
:105460001282138214821582EDE1F6E0918380832B
:105470001282138214821582E3E2F6E09183808324
:105480001282138214821582E8EBF5E09183808307
:105490001282138214821582EEEBF5E091838083F1
:1054A0001282138214821582E9E2F6E091838083EE
:1054B0001282138214821582EFE2F6E091838083D8
:1054C00012821382148215828FEF95E00E94B72911
:1054D000A9EDB5E082E015968C93159786E11696B6
:1054E0008C931697EEE1F1E0E4911796EC93179701
:1054F000EAE0F1E0E4911896EC93189740E85EE357
:1055000060E070E01D964D935D936D937C93509792
:1055100053968C93539780EE91E055969C938E937F
:1055200054970A2E1B2E58961C920E9211245797B0
:105530004FEF5FEFBA0159964D935D936D937C9356
:105540005C9782ED91E05E969C938E935D970A2E18
:105550001B2E91961C920E921124909792964D9329
:105560005D936D937C939597EAECF5E0138212823C
:10557000C482D582E682F78284EA91E091838083B7
:1055800084E0848788EE93E09687858784EC95E0B5
:10559000FF90EF90DF90CF900C94B7298F929F925D
:1055A000AF92BF92CF92DF92EF92FF92CF93DF93B1
:1055B000EC01688179818A819B8161157105810582
:1055C000910521F464E279ED8BE597E02DE133EF6D
:1055D00041E050E00E94C92C49015A019B01AC01F5
:1055E000A7EAB1E40E94E82C6B017C01ACEEB4EFB9
:1055F000A50194010E94F62CDC01CB018C0D9D1DB0
:10560000AE1DBF1DB7FF03C00197A109B048888335
:105610009983AA83BB83BC01CD019F77DF91CF9192
:10562000FF90EF90DF90CF90BF90AF909F908F90C2
:1056300008958F929F92AF92BF92CF92DF92EF9296
:10564000FF92609108017091090180910A01909187
:105650000B01611571058105910521F464E279ED75
:105660008BE597E02DE133EF41E050E00E94C92C3B
:1056700049015A019B01AC01A7EAB1E40E94E82C60
:105680006B017C01ACEEB4EFA50194010E94F62CF5
:10569000DC01CB018C0D9D1DAE1DBF1DB7FF03C0EE
:1056A0000197A109B0488093080190930901A09344
:1056B0000A01B0930B01BC01CD019F77FF90EF90E1
:1056C000DF90CF90BF90AF909F908F9008956093A0
:1056D00008017093090180930A0190930B010895CA
:1056E000BB274A3031F4992322F4BDE2909581958D
:1056F0009F4F0C947C2BBB27FB015527AA27880FB3
:10570000991FAA1FA41710F0A41B83955051B9F735
:10571000A05DAA3308F0A95DA193009779F7B111B4
:10572000B1931192CB010C94952BDC01FC01672FF6
:1057300071917723E1F7329704C07C916D93708368
:105740006291AE17BF07C8F308950E94E72B08F4D3
:1057500081E00895E89409C097FB3EF49095809508
:10576000709561957F4F8F4F9F4F9923A9F0F92F27
:1057700096E9BB279395F695879577956795B795A5
:10578000F111F8CFFAF4BB0F11F460FF1BC06F5F8B
:105790007F4F8F4F9F4F16C0882311F096E911C09D
:1057A000772321F09EE8872F762F05C0662371F0BE
:1057B00096E8862F70E060E02AF09A95660F771FD2
:1057C000881FDAF7880F9695879597F90895990FAE
:1057D0000008550FAA0BE0E8FEEF16161706E807BB
:1057E000F907C0F012161306E407F50798F0621BDC
:1057F000730B840B950B39F40A2661F0232B242BB1
:10580000252B21F408950A2609F4A140A6958FEFCF
:10581000811D811D08950E941E2C0C948F2C0E94C6
:10582000812C38F00E94882C20F0952311F00C94E4
:10583000782C0C947E2C11240C94C32C0E94A02C48
:1058400070F3959FC1F3950F50E0551F629FF001D3
:10585000729FBB27F00DB11D639FAA27F00DB11DEC
:10586000AA1F649F6627B00DA11D661F829F222775
:10587000B00DA11D621F739FB00DA11D621F839FFC
:10588000A00D611D221F749F3327A00D611D231FD2
:10589000849F600D211D822F762F6A2F11249F5720
:1058A00050409AF0F1F088234AF0EE0FFF1FBB1F23
:1058B000661F771F881F91505040A9F79E3F5105E2
:1058C00080F00C94782C0C94C32C5F3FE4F3983E4A
:1058D000D4F3869577956795B795F795E7959F5F8C
:1058E000C1F7FE2B880F911D9695879597F908951E
:1058F00097F99F6780E870E060E008959FEF80EC83
:10590000089500240A941616170618060906089525
:1059100000240A9412161306140605060895092E8B
:105920000394000C11F4882352F0BB0F40F4BF2BFA
:1059300011F460FF04C06F5F7F4F8F4F9F4F08953A
:1059400057FD9058440F551F59F05F3F71F0479530
:10595000880F97FB991F61F09F3F79F08795089515
:10596000121613061406551FF2CF4695F1DF08C034
:10597000161617061806991FF1CF86957105610551
:1059800008940895E894BB2766277727CB0197F9F9
:105990000895052E97FB1EF400940E94E02C57FDFD
:1059A00007D00E94322D07FC03D04EF40C94E02C5B
:1059B00050954095309521953F4F4F4F5F4F08953B
:1059C00090958095709561957F4F8F4F9F4F08956B
:1059D0000E94542DA59F900DB49F900DA49F800D03
:1059E000911D11240895B7FF0C94E82C0E94E82C17
:1059F000821B930B08952F923F924F925F926F926A
:105A00007F928F929F92AF92BF92CF92DF92EF924E
:105A1000FF920F931F93CF93DF93CDB7DEB7CA1BCF
:105A2000DB0B0FB6F894DEBF0FBECDBF09942A88FA
:105A3000398848885F846E847D848C849B84AA84A2
:105A4000B984C884DF80EE80FD800C811B81AA812F
:105A5000B981CE0FD11D0FB6F894DEBF0FBECDBFFA
:105A6000ED010895A1E21A2EAA1BBB1BFD010DC07A
:105A7000AA1FBB1FEE1FFF1FA217B307E407F507FE
:105A800020F0A21BB30BE40BF50B661F771F881FDA
:105A9000991F1A9469F760957095809590959B0170
:105AA000AC01BD01CF010895A29FB001B39FC00119
:105AB000A39F700D811D1124911DB29F700D811D3A
:105AC0001124911D08955058BB27AA270E947B2DB1
:105AD0000C948F2C0E94812C38F00E94882C20F08E
