:100000000C9493000C94BB000C94BB000C94BB00AC
:100010000C94BB000C94BB000C94BB000C94BB0074
:100020000C94BB000C94BB000C94BB000C94BB0064
:100030000C94BB000C94BB000C94BB000C94BB0054
:100040000C942D1C0C94BB000C9492180C946C18FE
:100050000C94BB000C94BB000C94BB000C94BB0034
:100060000C94BB000C94BB00436F6E6E65637469A7
:100070006F6E3A20636C6F736500486F73743A203B
:10008000004275696C742D696E2053656E736F72D2
:100090003A200049507634284C6F63616C293A202D
:1000A000004669726D776172652056657273696F7B
:1000B0006E3A2000456E636C6F73757265204865FB
:1000C000616C74683A200000000000240027002AB8
:1000D0000000000000250028002B00000000002385
:1000E000002600290004040404040404040202029B
:1000F0000202020303030303030102040810204069
:1001000080010204081020010204081020000000F1
:1001100008000201000003040700000000000000C6
:10012000000090265B2611241FBECFEFD8E0DEBF73
:10013000CDBF14E0A0E0B1E0E0E3FAE502C0059035
:100140000D92AE37B107D9F726E0AEE7B4E001C0B3
:100150001D92AA36B207E1F710E0C2E9D0E004C070
:100160002197FE010E94EC2AC139D107C9F70E94EC
:10017000771C0C940B2D0C940000CF93DF931F92EF
:10018000CDB7DEB76983DC01ED91FC910280F3818C
:10019000E02D41E050E0BE016F5F7F4F09950F9069
:1001A000DF91CF910895FC01848595850895FC0128
:1001B00084899589089528ED31E0FC0131832083FD
:1001C000FB014089518962897389FC014283538311
:1001D000648375830895DC01ED91FC91048CF58DA9
:1001E000E02D099480E00895FC01768765870895E5
:1001F000DC01ED91FC91068CF78DE02D099591E0E5
:1002000089270895862F089581E08627089521E0A3
:10021000FC018485843008F020E0822F08958091CD
:10022000290581110BC01092260510922505109208
:1002300028051092270581E08093290585E295E045
:100240000895089580E090E00895CF93DF93EC0146
:100250008C858430C8F40E945E14843181F0882338
:1002600071F0883161F08C3161F4E881F9810084AA
:10027000F185E02DCE01099521E0892B19F420E0CC
:1002800001C021E0822F01C080E0DF91CF9108956D
:10029000CF92DF92EF92FF92CF93DF93EC018C85A8
:1002A000843038F50E94D40F0E94211C6B017C0120
:1002B0008C850E945E148823D1F061E070E080E0BC
:1002C00090E00E941D0B0E94211CAB01BC014C1947
:1002D0005D096E097F098D859E85A0E0B0E0481715
:1002E00059076A077B0720F38C850E94F00F84E092
:1002F0008C87DF91CF91FF90EF90DF90CF900895A2
:10030000CF93DF93EC018C85843060F40E945E14FF
:10031000873111F08C3131F48C850E94B412811533
:10032000984088F3DF91CF910895FC018485843053
:1003300010F40C94B41280E090E00895CF93DF9312
:100340001F92CDB7DEB741E050E0BE016F5F7F4F37
:10035000FC0184850E94E312181619061CF4898199
:1003600090E002C08FEF9FEF0F90DF91CF91089543
:10037000FC018485843010F40C94E31280E090E05A
:100380000895CF93DF93FC012485243018F08FEF7C
:100390009FEF0EC0EC010190F081E02D0084F1850B
:1003A000E02D0995892B99F38C850E94620F90E0CE
:1003B000DF91CF910895FC018485843010F40C9472
:1003C0009E0F80E090E00895CF92DF92EF92FF922F
:1003D0000F931F93CF93DF93CDB7DEB7AF970FB6D1
:1003E000F894DEBF0FBECDBF8C016B017A01CE0148
:1003F00001960E942C0888ED91E09BA78AA71CA675
:100400001DA61EA61FA6D8011C968C91843060F4F0
:100410000E945E14882321F0F80184850E94D40F85
:1004200084E0D8011C968C938091F5059091F60597
:10043000A091F705B091F8058EA39FA3A8A7B9A72F
:100440008B839C83AD83BE8318861F82AE01465D7D
:100450005F4FB601CE0101960E94570B0097C1F085
:10046000D801ED91FC910684F785E02D88ED91E0AF
:100470009DA38CA38CA59DA5AEA5BFA58EA39FA370
:10048000A8A7B9A7A701BE016C5D7F4FC801099558
:10049000AF960FB6F894DEBF0FBECDBFDF91CF9100
:1004A0001F910F91FF90EF90DF90CF9008950F93E1
:1004B0001F93CF93DF938B01FC01C281D3812097DF
:1004C000A9F06A817B810115110519F0611571058B
:1004D00021F46017710731F409C0C8010E94FB2C98
:1004E000892B21F00990D881C02DE9CFCE01DF9171
:1004F000CF911F910F910895CF92DF92EF92FF92CB
:100500000F931F93CF93DF938C017B01FC01C58177
:10051000D6816E01C617D70708F46B01C60106968F
:100520000E94F22A0097A1F0FC01D382C282F80156
:1005300023813481FC0131832083F80194838383F8
:10054000CC0FDD1FD683C583FC01F582E4820696BD
:10055000DF91CF911F910F91FF90EF90DF90CF909F
:100560000895DC011396ED91FC911497309751F0AA
:1005700024813581AB01420F531FA281B381A4179F
:10058000B50710F40C947C02CF0106965583448382
:10059000820F931F0895FF920F931F93CF93DF93C2
:1005A000EC01F62E88819981FC01A381B48110971A
:1005B00071F014962D913C911597A9014F5F5F4FF3
:1005C00012966D917C9113976417750750F56C81A5
:1005D0007D816F5F7F4F0E947C028C016A817B81ED
:1005E0006115710549F00115110571F04C815D81AE
:1005F000C8010E94EB2C03C00115110529F0EC8104
:10060000FD81E00FF11FF0821B830A838C819D81A5
:1006100001969D838C83DF91CF911F910F91FF9065
:100620000895FD013696E20FF31F15965C934E93E5
:100630001497F0828C819D81892B41F7FB83EA839B
:10064000E5CFDA0190918104E92FF0E0FE2FEE274B
:10065000E60FF71F90E0982F8827A901BD018E0FA4
:100660009F1F0C94D41808958CBD9DBD08956F9262
:100670007F928F929F92AF92BF92CF92DF92EF9232
:10068000FF921F93CF93DF9300D0CDB7DEB7FC016D
:100690001485143008F061C06A014130F8E05F074A
:1006A00018F0C12C28E0D22E7A013B015C01CE016A
:1006B00001960E94471A89819A810E943403812FF2
:1006C0000E94260F4C0163E070E0812F0E94C71149
:1006D000873111F08C3121F48C149D0440F302C059
:1006E000C12CD12CCE0101960E94471A89819A8192
:1006F0000E9434039601A30160E070E0812F0E9404
:100700006E1060E270E0812F0E94C41862E070E019
:10071000812F0E94C71184FD16C063E070E0812F15
:100720000E94C711811106C081E090E0F50193831A
:10073000828313C0CE0101960E94471A89819A8153
:100740000E943403E3CF40E162E070E0812F0E9419
:10075000A911CD2849F3C70102C080E090E00F90B5
:100760000F90DF91CF911F91FF90EF90DF90CF908E
:10077000BF90AF909F908F907F906F900895AF92B1
:10078000BF92CF92DF92EF92FF920F931F93CF937E
:10079000DF9300D0CDB7DEB78C016B015A01FC01AD
:1007A0008485843058F40E945E14882321F0F80177
:1007B00084850E94D40F84E0F8018487F601828149
:1007C0009381A481B5810097A105B10509F462C0A8
:1007D0008F3F9F4FAF4FBF4F09F45CC080915505CD
:1007E000882339F060E070E081E20E94E511F82E84
:1007F00002C084E0F82EF801F486F3E0FF1508F457
:1008000049C0CE0101960E94471A89819A810E94AF
:100810003403A6014E5F5F4F24E030E06CE070E0EF
:100820008F2D0E945C10B5018F2D0E94361164E05F
:1008300070E08F2D0E94C4180E94211C6B017C0166
:10084000F80184850E945E14873139F18C3129F1D9
:10085000882301F10E94211CAB01BC014C195D09E8
:100860006E097F09F80185859685A0E0B0E08417C0
:100870009507A607B70738F061E070E080E090E0E8
:100880000E941D0BDDCFF80184850E94F00F84E0EB
:10089000F801848780E090E002C081E090E00F9052
:1008A0000F90DF91CF911F910F91FF90EF90DF900C
:1008B000CF90BF90AF9008950F931F93CF93DF9386
:1008C00000D0CDB7DEB78C0188ED91E0F8019183BF
:1008D00080831282138214821582CE0101960E94B7
:1008E000471A89819A810E943403B8016E5F7F4F55
:1008F00044E050E08FE090E00E94D418C8010F90CF
:100900000F90DF91CF911F910F9108950F931F9337
:10091000CF93DF930E945702EC01892BC1F00C8129
:100920001D810130110559F46E817F8161157105BA
:1009300031F086E594E00E94FB2C892B41F00150B8
:1009400011090230110518F48E819F8102C080E0E8
:1009500090E0DF91CF911F910F91089580911D0537
:1009600081110BC010921A051092190510921C05E6
:1009700010921B0581E080931D0589E195E00895A3
:10098000DB01109749F0ED91FC9111970190F081F6
:10099000E02DBC01CD01099480E090E008950F9313
:1009A0001F93CF93DF931F92CDB7DEB78C01FC016D
:1009B000828181110BC0808191811982BE016F5F9C
:1009C0007F4F0E94371A8981F8018283F801828162
:1009D0000F90DF91CF911F910F9108950F931F9367
:1009E000CF93DF931F92CDB7DEB78C01C8010E9471
:1009F000CF048D3059F02CF48950823008F057C064
:100A000005C0803219F08F3231F051C0F801838176
:100A100082831382EBCFF801838181110BC0808127
:100A200091811982BE016F5F7F4F0E94371A8981C1
:100A3000F8018383F80183818A3219F08F3271F1D2
:100A400036C0F8011382F801838182831382C801C2
:100A50000E94CF04882359F1C8010E94CF048A3232
:100A600091F7F801838181110BC0808191811982F6
:100A7000BE016F5F7F4F0E94371A8981F80183831F
:100A8000F80183818F32F9F6F80113821282AECF1A
:100A9000C8010E94CF048A3009F4A8CFF8018381ED
:100AA00082831382C8010E94CF048111F1CF0F907D
:100AB000DF91CF911F910F9108951F93CF93DF93F3
:100AC000EC01162F0E94EE04CE010E94CF04811388
:100AD00005C08B818A831B8281E001C080E0DF91A9
:100AE000CF911F910895CF92DF92FF920F931F93A2
:100AF000CF93DF9300D000D000D0CDB7DEB78C010C
:100B0000FC01868197819A8389831C821B821E82C5
:100B10001D826801F2E0CF0ED11CC6010E94EE04D6
:100B2000C6010E94CF04F82E87E2F81621F1E2E216
:100B3000FE1609F180ED8F0D8A3078F081EA8F0D75
:100B40008C3158F08FEB8F0D8A3138F0FBE2FF16B5
:100B500021F083ED8F0D8230C8F5F8018581848303
:100B600015826F2DCE0101960E94CB02C6010E9414
:100B7000CF04F82EDFCFF801858184831582C6016A
:100B80000E94CF04882311F1F80195819483158286
:100B9000F816E1F08C35A1F4C6010E94CF04EFE510
:100BA000F4E09081992331F0891302C0818102C061
:100BB0003296F7CF882351F0F801958194831582FE
:100BC000682FCE0101960E94CB02D9CF60E0CE0102
:100BD00001960E94CB028B819C8126960FB6F894D9
:100BE000DEBF0FBECDBFDF91CF911F910F91FF9060
:100BF000DF90CF900895AF92BF92CF92DF92EF92A5
:100C0000FF920F931F93CF93DF9300D000D000D0BB
:100C1000CDB7DEB77C01DC0118968C91882309F4EE
:100C20008EC08150F701808700811181B80184E076
:100C300090E00E94C004009709F484C0DC01119682
:100C40001C930E9313961C921E9212978C016701AF
:100C5000B2E0CB0ED11C6BE7C6010E945D05882374
:100C600009F46DC06DE7C6010E945D05811161C088
:100C7000C7010E9473055C01892B09F460C06AE317
:100C8000C6010E945D05882309F459C01A821982A1
:100C9000BE016F5F7F4FC7010E944C08882309F493
:100CA0004EC0B501C8010E945702009761F5F801D6
:100CB000608171818AE090E00E94C004009741F059
:100CC000DC0111961C921E9215961C921E9214978E
:100CD000D8011296ED91FC911397309751F0208135
:100CE00031812115310511F0F901F9CF918380830C
:100CF00003C0F80193838283009709F1DC01139606
:100D0000BC92AE92129726E0FE013196DC01149659
:100D100001900D922A95E1F76DE7C6010E945D05ED
:100D2000811107C06CE2C6010E945D058111A0CF50
:100D300006C0F70180858F5F8087C80106C00E94CA
:100D40000F0103C00E940F0181CF26960FB6F894C1
:100D5000DEBF0FBECDBFDF91CF911F910F91FF90EE
:100D6000EF90DF90CF90BF90AF900895833081F0E7
:100D700028F4813099F08230A1F008958730A9F0ED
:100D80008830B9F08430D1F4809180008F7D03C029
:100D9000809180008F7780938000089584B58F774D
:100DA00002C084B58F7D84BD08958091B0008F7797
:100DB00003C08091B0008F7D8093B00008957F9232
:100DC0008F929F92AF92BF92CF92DF92EF92FF925B
:100DD0000F931F93CF93DF93CDB7DEB7A6970FB6D0
:100DE000F894DEBF0FBECDBF8C01762E942E852EDB
:100DF00020E2B22ECE0101967C01FC012B2D119236
:100E00002A95E9F788ED91E09AA389A38FEF8BA348
:100E10008CA38DA38EA3680183E4C80ED11C43E488
:100E200050E0BE016F5D7F4FC6010E9460110196C8
:100E300009F4B9C081E089838A8386E0A82EAB8259
:100E40001C82F80164817581868197810E94E52A60
:100E50006D837E838F83988789869A8680E890E069
:100E60009C878B874CE150E0B701C6010E94ED10D2
:100E7000F7012B2D11922A95E9F7480188E0880E99
:100E8000911CF401D70101900D92AA94E1F740E181
:100E900050E0B701C6010E94ED10F7011192BA941B
:100EA000E9F796E0A92EB12C40E250E0B701C60167
:100EB0000E94ED10F1E0AF1AB108B1F783E6898323
:100EC00092E89A8393E59B838C8385E38D8381E00D
:100ED0008E837F829DE3988797E099878A8786E053
:100EE000F401DE011B9601900D928A95E1F78CE0EA
:100EF000898B8A8B6AE674E0CE0143960E94042DAA
:100F0000F8016385CE0149960E944D1AF801648567
:100F1000CE014B960E944D1AF8016585CE014D9683
:100F20000E944D1A4EE150E0B701C6010E94ED103B
:100F3000F3E07F121EC082E3898384E08A83F80194
:100F400096859B8397859C8390899D8391899E83B9
:100F500096E39F838887828D8987838D8A87848D96
:100F60008B87858D8C874CE050E0B701C6010E94CD
:100F7000ED1087E3898386E08A8391E09B8393E089
:100F80009C838D838FE08E838AE38F838BE38887B6
:100F90008FEF898749E050E0B701C6010E94ED104C
:100FA000C6010E947C14A6960FB6F894DEBF0FBE51
:100FB000CDBFDF91CF911F910F91FF90EF90DF9008
:100FC000CF90BF90AF909F908F907F900895EF92B9
:100FD000FF920F931F93CF93DF9300D000D0CDB734
:100FE000DEB74AE09E012F5F3F4F7901B90190E0E3
:100FF0000E94DA27F70101900020E9F73197EE19F6
:10100000FF09F1F000912B0610912C060E0F1F1F07
:10101000B80187E296E00E942E16882391F0209175
:1010200027063091280680912B0690912C06B70157
:10103000820F931F0E94042D10932C0600932B0601
:1010400081E00F900F900F900F90DF91CF911F9143
:101050000F91FF90EF900895FC0188ED91E091834E
:10106000808312821382148215821386128648EEC0
:1010700053E060E070E044875587668777872AE40D
:1010800031E031872087978B868B108E118E128EE0
:10109000138E84E080A30895AF92BF92CF92DF9227
:1010A000EF92FF920F931F93CF93DF9300D000D066
:1010B00000D0CDB7DEB77C016B015C0182E0A80EE9
:1010C000B11CC5010E94EE04C5010E94CF048B35FE
:1010D00021F08B3709F483C08DC0F7018085882308
:1010E00009F46BC08150F701808700811181B8013C
:1010F00084E090E00E94C004009709F49CC0FC01C9
:1011000011830083138212828C016BE5C5010E945A
:101110005D05882309F451C06DE5C5010E945D0598
:10112000811146C01A821982BE016F5F7F4FC701CD
:101130000E944C08882309F440C0F8016081718145
:1011400088E090E00E94C004DC01892B39F0119600
:101150001C921E9213961C921E921297F8012281E5
:1011600033812115310551F0F9018081918100977A
:1011700011F09C01F9CFB183A08303C0F801B383C0
:10118000A2831097D1F086E0FE013196129601906D
:101190000D928A95E1F76DE5C5010E945D0581110B
:1011A00007C06CE2C5010E945D058111BBCF05C07F
:1011B000F70180858F5F808703C00E94AE048C0199
:1011C000F80180819181892B11F410E037C086E00D
:1011D00090E0F60191838083138302832AC0C701C4
:1011E0000E94FB05FC0120813181232B71F327E054
:1011F00030E01AC0C5010E94CF0411E0873219F017
:10120000823209F010E0C7010E9473050097E9F2ED
:10121000112341F022E030E0F601318320839383F3
:1012200082830CC021E030E0F60131832083938378
:10123000828311E003C00E94AE0466CF812F269600
:101240000FB6F894DEBF0FBECDBFDF91CF911F91D7
:101250000F91FF90EF90DF90CF90BF90AF900895E7
:10126000CF92DF92EF92FF92CF93DF93AB01BC015D
:1012700077FF1DC06A017B016DE285E096E00E9468
:101280009F16EC0144275527BA014C195D096E09D8
:101290007F092AE085E096E00E94DF168C0F9D1FF3
:1012A000DF91CF91FF90EF90DF90CF9008952AE0EB
:1012B00085E096E0DF91CF91FF90EF90DF90CF90A7
:1012C0000C94DF162F923F924F925F926F927F9213
:1012D0008F929F92AF92BF92CF92DF92EF92FF9246
:1012E0000F931F93CF93DF93C82F062F49015A0105
:1012F0000E94FC1B6B017C01D0E0CE01835F9E4FFE
:101300002C01FE01E750FF4F3F01CB51DF4F10E0B2
:10131000F2018491F3013490FE0124902220A1F087
:1013200081110E94B606E22DF0E0EE0FFF1FE5529C
:10133000FF4FA591B4918C91382231E020E009F45F
:1013400030E0832F922F02C080E090E00817190749
:1013500089F40E94FC1BDC01CB018C199D09AE09AC
:10136000BF0988169906AA06BB0690F660E070E0F1
:10137000CB0106C00E94FC1B6C197D098E099F09D8
:10138000DF91CF911F910F91FF90EF90DF90CF9061
:10139000BF90AF909F908F907F906F905F904F9095
:1013A0003F902F9008958F929F92AF92BF92CF92CD
:1013B000DF92EF92FF921F93CF93DF93CDB7DEB70B
:1013C0002C970FB6F894DEBF0FBECDBF2091550508
:1013D000222309F4B4C06B017C01CE0101960E9466
:1013E000471A89819A810E9434035E0127E0A20E88
:1013F000B11C450110E063E070E0812F0E94C7112D
:10140000F40181934F018823C9F01F5F143099F7CD
:1014100010E0F50181915F018D3159F0883149F07B
:101420008A51823030F01F5F143099F70E943303E5
:1014300086C060E170E0812F0E94C418A12EB12CFB
:1014400083EE93E00197F1F742E860E070E0812FCE
:101450000E94A9114FEF62E070E0812F0E94A91154
:10146000C114D10411F0B60113C08091060190910E
:10147000070101968115F0EC9F0710F480E090ECD5
:101480009093070180930601609106017091070116
:10149000812F0E944B1186E0E8E1F1E0DE01119618
:1014A00001900D928A95E1F7F70183818F778C8304
:1014B00084818D8385818E83A7014E5F5F4F24E0F9
:1014C00030E06CE070E0812F0E945C10B601812F4B
:1014D0000E94361126E030E0AE014F5F5F4F66E0BC
:1014E00070E0812F0E945C1061E070E0812F0E940B
:1014F000C41827E02A9DC0012B9D900D11249C014A
:101500002F5C3A4F7901F9011182108222E030E01C
:10151000AE01455F5F4F68E270E0812F0E942103BA
:101520008B859C85982789279827F7019383828349
:101530001682158214820E943303812F01C084E039
:101540002C960FB6F894DEBF0FBECDBFDF91CF91C2
:101550001F91FF90EF90DF90CF90BF90AF909F9042
:101560008F9008951F93CF93DF93282F30E0F901D8
:10157000E35FFE4F8491F901E750FF4FD491F901E9
:10158000EB51FF4FC491CC23C1F0162F81110E9463
:10159000B606EC2FF0E0EE0FFF1FEF52FF4FA591C4
:1015A000B4919FB7F894111104C08C91D095D823B1
:1015B00002C0EC91DE2BDC939FBFDF91CF911F9196
:1015C0000895CF93DF9390E0FC01E750FF4F249103
:1015D000FC01EB51FF4F8491882361F190E0880F6B
:1015E000991FFC01E953FF4FC591D491FC01EF52C3
:1015F000FF4FA591B491611109C09FB7F8948881FC
:10160000209582238883EC912E230BC0623061F4F5
:101610009FB7F8948881322F309583238883EC918B
:101620002E2B2C939FBF06C08FB7F894E8812E2BEA
:1016300028838FBFDF91CF9108958F929F92AF92B1
:10164000BF92CF92DF92EF92FF926B017C010E94DA
:10165000FC1B4B015C01C114D104E104F104F1F065
:101660000E94FC1BDC01CB0188199909AA09BB095E
:10167000883E9340A105B10570F321E0C21AD1085C
:10168000E108F10888EE880E83E0981EA11CB11CC9
:10169000C114D104E104F10419F7DDCFFF90EF90FC
:1016A000DF90CF90BF90AF909F908F9008954F9212
:1016B0005F926F927F928F929F92AF92BF92CF92E2
:1016C000DF92EF92FF920F931F93CF93DF93CDB7EB
:1016D000DEB763970FB6F894DEBF0FBECDBF7C01B7
:1016E0005B013A01FB0120E080E090E06AE031918B
:1016F000332309F140ED430F4A3080F4689FA00185
:10170000699F500D1124CA01C097830F911D37FDA9
:101710009A958F3F910559F350F313C03E3289F4E7
:10172000233079F0D301A20FB11D12968C932F5F55
:1017300080E090E0DCCF233021F4F301858381E069
:1017400021C0F70142815381648175818091FB053D
:101750009091FC05A091FD05B091FE054817590731
:101760006A077B0709F491C10E94211C8701085F69
:101770001F4F6F7077277C5FC8010E9490128130E5
:1017800019F080E090E0D9C188ED91E09A838983D7
:10179000F70182819381A481B5818B839C83AD8382
:1017A000BE8345E350E0BE016F5F7F4FC8010E94DA
:1017B0006011892B19F4C12CD12C62C10E94211C0B
:1017C000F7017783668342E050E0B7016A5F7F4F9D
:1017D000C8010E94ED1081E090E09A83898342E085
:1017E00050E0BE016F5F7F4FC8010E94ED1080E0A6
:1017F00091E09A83898342E050E0BE016F5F7F4FA2
:10180000C8010E94ED101A82198242E050E0BE0128
:101810006F5F7F4FC8010E94ED1042E050E0BE01B3
:101820006F5F7F4FC8010E94ED1042E050E0BE01A3
:101830006F5F7F4FC8010E94ED104501F501808167
:10184000882301F164015601F60181912F0188235B
:1018500021F08E3211F06201F6CFC818D9081C149D
:101860001D0474F4CD8641E050E0BE01635F7F4FFC
:10187000C8010E94ED10A601B401C8010E94ED103C
:101880004201DCCF1D8641E050E0BE01635F7F4F27
:10189000C8010E94ED10C12CDD24D394DA82C982E4
:1018A00042E050E0BE016F5F7F4FC8010E94ED1023
:1018B000DA82C98242E050E0BE016F5F7F4FC8010B
:1018C0000E94ED10C8010E947C14892B09F473CF8B
:1018D000E3E0AE2EB12C230122E0420E511C0E9407
:1018E000211C3B014C01C8010E9402141816190664
:1018F000A4F00E94211CDC01CB0186199709A809DC
:10190000B90989389341A105B105D0F462E370E0CB
:1019100080E090E00E941D0BE6CFF70142815381E9
:1019200064817581808D918DA28DB38D4817590783
:101930006A077B0749F4848D958DC59729F409C002
:10194000CC24CA94DC2C93C05EEFC52EDD24DA943F
:101950008EC0F70181A192A10C970CF4E9C04CE074
:1019600050E0BE016F5F7F4FC8010E94BA138B81A8
:101970009C819827892798279A8B898BF701468124
:10198000578129813A814217530709F0C2C097FF56
:10199000C0C08F709270892B09F0C0C06F807884AE
:1019A0007624672476246114710409F4BCC0C12C28
:1019B000D12C8D819E81982789279827C816D90612
:1019C00008F466C0812C912C41E050E0BE016D5EB0
:1019D0007F4FC8010E94BA134B89842F807C09F085
:1019E00076C0442331F050E060E070E0C8010E940E
:1019F000BA138B898111E8CF42E050E0BE01615FEC
:101A00007F4FC8010E94BA1342E050E0BE01635FFD
:101A10007F4FC8010E94BA1344E050E060E070E0DC
:101A2000C8010E94BA1342E050E0BE016F5E7F4FD2
:101A3000C8010E94BA138F85988949895A898115EE
:101A4000914009F04DC0CD84DE84DC24CD24DC241B
:101A500081E0C816D10409F043C04115544009F093
:101A600053C044E050E0B201C8010E94BA1321E023
:101A7000A21AB10829F0FFEFCF16DF0609F42FCF25
:101A8000C8010E944E10C60158C08EEF9FEF55C08E
:101A900041E050E0BE01635F7F4FC8010E94BA136E
:101AA0004D85442331F050E060E070E0C8010E94B1
:101AB000BA138D858111ECCF44E050E060E070E016
:101AC000C8010E94BA13FFEFCF1ADF0A72CF41E0BC
:101AD00050E060E070E0C8010E94BA131B8A89CF11
:101AE00054274527542760E070E0C8010E94BA13CC
:101AF000FFEF8F1A9F0A6814790409F065CF96EFFB
:101B0000C92EDD24DA94B3CF77EFC72EDD24DA9423
:101B1000AECF4CEFC42EDD24DA94A9CF3BEFC32E19
:101B2000DD24DA94A4CF2AEFC22EDD24DA949FCFED
:101B30008DEFC82EDD24DA949ACF63960FB6F89411
:101B4000DEBF0FBECDBFDF91CF911F910F91FF90F0
:101B5000EF90DF90CF90BF90AF909F908F907F904D
:101B60006F905F904F9008952091550590E023333A
:101B700011F40C9601C04896982F990F990F990F60
:101B800080E00895CF93DF931F92CDB7DEB76983CE
:101B9000DC01ED91FC910280F381E02D41E050E009
:101BA000BE016F5F7F4F09950F90DF91CF91089530
:101BB000FC01818D928D0895FC019485FB01848543
:101BC000981303C081E0943008F080E00895FF92FC
:101BD0000F931F93CF93DF9300D0CDB7DEB7F82ECE
:101BE00022E030E0AE014F5F5F4F66E270E00E949E
:101BF000210309811A8110270127102722E030E0F4
:101C0000AE014F5F5F4F66E270E08F2D0E942103AF
:101C100089819A819827892798270817190711F031
:101C20008C01ECCFC8010F900F90DF91CF911F91E5
:101C30000F91FF9008950F931F93CF93DF9300D0E0
:101C4000CDB7DEB7FC0124852430E0F48C01CE0151
:101C500001960E94471A89819A810E94340322E0EA
:101C600030E0AE014F5F5F4F60E170E0F8018485C6
:101C70000E94210309811A811027012710270E9441
:101C8000330302C000E010E0C8010F900F90DF9115
:101C9000CF911F910F9108950F931F93CF93DF93CF
:101CA00000D0CDB7DEB7FC0124852430E0F48C01F0
:101CB000CE0101960E94471A89819A810E943403BD
:101CC00022E030E0AE014F5F5F4F64E070E0F8016A
:101CD00084850E94210309811A811027012710277A
:101CE0000E94330302C000E010E0C8010F900F9083
:101CF000DF91CF911F910F910895AF92BF92CF9234
:101D0000DF92EF92FF920F931F93CF93DF93CDB7A4
:101D1000DEB7AF970FB6F894DEBF0FBECDBF8C0114
:101D20005B016A01CE0101960E942C0888EDE82E25
:101D300081E0F82EFBA6EAA61CA61DA61EA61FA6DD
:101D40008091F5059091F605A091F705B091F80501
:101D50008EA39FA3A8A7B9A78B839C83AD83BE83C3
:101D600018861F82AE01465D5F4FB501CE01019618
:101D70000E94570B81309105B1F4D801ED91FC918F
:101D80000488F589E02DFDA2ECA28CA59DA5AEA549
:101D9000BFA58EA39FA3A8A7B9A7A601BE016C5D8E
:101DA0007F4FC8010995AF960FB6F894DEBF0FBEFE
:101DB000CDBFDF91CF911F910F91FF90EF90DF90FA
:101DC000CF90BF90AF900895E0917F04F091800490
:101DD000908180917E04892B80830895E0917F0417
:101DE000F0918004908180917E0480958923808386
:101DF0000895CF93DF931F92CDB7DEB741E050E057
:101E0000BE016F5F7F4F80E090E00E94D41889810F
:101E10000F90DF91CF910895CF93DF931F92CDB7AD
:101E2000DEB7898341E050E0BE016F5F7F4F80E005
:101E300090E00E9461190F90DF91CF9108958EBDBF
:101E400000000DB407FEFDCF8EB50895EF92FF920E
:101E50001F93CF93DF9300D0CDB7DEB7182F22E0CA
:101E600030E0AE014F5F5F4F60E270E00E942103FF
:101E7000E980FA80FE24EF24FE2422E030E0AE0167
:101E80004F5F5F4F60E270E0812F0E9421038981E4
:101E90009A81982789279827E816F90611F07C017E
:101EA000ECCF87E0189FF0011124EF5CFA4FF58228
:101EB000E482C7010F900F90DF91CF911F91FF90A7
:101EC000EF9008951F93CF93DF9300D0CDB7DEB787
:101ED000182FCE0101960E94471A89819A810E948B
:101EE0003403812F0E94B40D27E0129FF0011124CA
:101EF000EF5CFA4F22813381377041E050E0BE0140
:101F00006F5F7F4F820F931F0E94D4180E9433038C
:101F100089810F900F90DF91CF911F910895FC015F
:101F2000808D843040F4218D328D232B21F00E944E
:101F3000620F90E008958FEF9FEF0895EF92FF9268
:101F40000F931F93CF93DF9300D0CDB7DEB7482F09
:101F500087E0489F90011124F901EF5CFA4F7F015F
:101F6000808191810097B9F4142FCE0101960E94CF
:101F7000471A89819A810E943403812F0E94E70DBC
:101F80008C010E943303F70186819801281B3109D7
:101F9000C901318320830F900F90DF91CF911F9162
:101FA0000F91FF90EF9008951F93CF93DF9300D090
:101FB000CDB7DEB7182FCE0101960E94471A89814E
:101FC0009A810E94340368E070E0812F0E94C41857
:101FD0000E9433030F900F90DF91CF911F910895CE
:101FE0001F93CF93DF9300D0CDB7DEB7182FCE016C
:101FF00001960E94471A89819A810E94340360E108
:1020000070E0812F0E94C4180E9433030F900F903C
:10201000DF91CF911F910895CF92DF92EF92FF92BF
:102020000F931F93CF93DF9300D000D000D0CDB794
:10203000DEB78C016B017A01FC01808D843010F4D5
:102040000E94F00F88ED91E09A838983F6018281E6
:102050009381A481B5818B839C83AD83BE83B701BB
:10206000CE0101960E94D309F801808F843030F4AC
:10207000F586E486128E118E81E001C080E02696FE
:102080000FB6F894DEBF0FBECDBFDF91CF911F9189
:102090000F91FF90EF90DF90CF900895CF93DF9353
:1020A000FC01808D843028F4EF010E94F00F84E061
:1020B000888FDF91CF910895DA0190918104E92F03
:1020C000F0E0FE2FEE27E60FF71F90E0982F88270D
:1020D000A901BD018E0F9F1F0C9461197F928F92F1
:1020E0009F92AF92BF92CF92DF92EF92FF920F93A7
:1020F0001F93CF93DF9300D0CDB7DEB7782E8B013F
:102100004A01590122E030E0AE014F5F5F4F64E2C7
:1021100070E00E942103E980FA80FE24EF24FE246F
:10212000E00EF11E9701377040915505072D10E024
:10213000C801433311F4089601C04096982F8827B0
:10214000990F990F990F820F931F473319F4A50127
:10215000B40120C0A9014A0D5B1D41305840B8F3BD
:1021600060E078E06B01C21AD30AA601B4010E94B4
:102170006119A5014C195D09B4016C0D7D1D80919B
:102180005505833339F5085F1F4F902F990F990F2D
:10219000990F80E00E946119EA0CFB1CF982EA8227
:1021A00022E030E0AE014F5F5F4F64E270E0872DC8
:1021B0000E945C100F900F90DF91CF911F910F91B3
:1021C000FF90EF90DF90CF90BF90AF909F908F9057
:1021D0007F900895005F1F4FD8CF7F928F929F927C
:1021E000AF92BF92CF92DF92EF92FF920F931F9325
:1021F000CF93DF9300D0CDB7DEB77C014B01742EB7
:10220000C52EFC01A688B788D08CCE0101960E940D
:10221000471A89819A810E9434038D2D0E94260FCE
:10222000072D1C2D8017910708F48C019801A4013B
:10223000B5018D2D0E946E100E943303F70186892F
:102240009789800F911F978B868BC8010F900F90F5
:10225000DF91CF911F910F91FF90EF90DF90CF9082
:10226000BF90AF909F908F907F900895CF93DF9312
:1022700000D0CDB7DEB779836A8322E030E0AE01CB
:102280004F5F5F4F60E170E00E945C100F900F9015
:10229000DF91CF910895CF93DF9300D0CDB7DEB714
:1022A00079836A8322E030E0AE014F5F5F4F64E0E4
:1022B00070E00E945C100F900F90DF91CF91089515
:1022C000DF92EF92FF920F931F93CF93DF9300D093
:1022D000CDB7DEB7FB01DC0157961C921E925697D4
:1022E0002281211109C02381211106C024812111DD
:1022F00003C02581222309F141155105F1F07A012E
:102300008F01FC01D08CCE0101960E94471A898171
:102310009A810E943403A8014E5F5F4F24E030E0B1
:102320006CE070E08D2D0E945C10B7018D2D0E9435
:1023300036110E94330381E001C080E090E00F90ED
:102340000F90DF91CF911F910F91FF90EF90DF9051
:102350000895CF93DF931F92CDB7DEB7909181049C
:10236000292F30E0322F2227260F371F90E0982F99
:102370008827498341E050E0BE016F5F7F4F820FA5
:10238000931F0E9461190F90DF91CF910895CF9311
:10239000DF931F92CDB7DEB790918104292F30E0F3
:1023A000322F2227260F371F90E0982F882741E0F1
:1023B00050E0BE016F5F7F4F820F931F0E94D418C1
:1023C00089810F90DF91CF910895AF92BF92CF9204
:1023D000DF92EF92FF920F931F93CF93DF9300D082
:1023E00000D000D0CDB7DEB7082F6B01CE0101962B
:1023F0000E94471A89819A810E9434039E012F5FAF
:102400003F4F7901590110E063E070E0812F0E9495
:10241000C711F50181935F018823D1F01F5F14304C
:1024200099F710E0F70181917F018D3161F08831DA
:1024300051F08A51823038F01F5F143099F70E94B2
:10244000330384E05CC060E170E0812F0E94C41817
:10245000E12EF12C83EE93E00197F1F7402F60E03D
:1024600070E0812F0E94A9114FEF62E070E0812F90
:102470000E94A911C114D10411F0B60113C08091BA
:1024800006019091070101968115F0EC9F0710F469
:1024900080E090EC90930701809306016091060123
:1024A00070910701812F0E944B1161E070E0812F34
:1024B0000E94C41827E02E9DC0012F9D900D11246D
:1024C0009C012F5C3A4F7901F9011182108222E0C0
:1024D00030E0AE014B5F5F4F68E270E0812F0E94F9
:1024E00021038D819E81982789279827F70193835F
:1024F00082831682158214820E943303812F2696CE
:102500000FB6F894DEBF0FBECDBFDF91CF911F9104
:102510000F91FF90EF90DF90CF90BF90AF90089514
:102520000F931F93CF93DF93EC018B01888D843041
:1025300010F40E94F00F80915505882329F0B8010E
:1025400082E00E94E51101C084E0888F843030F47D
:102550001D870C871A8E198E81E001C080E0DF9103
:10256000CF911F910F910895FF920F931F93CF93D7
:10257000DF9300D0CDB7DEB7F82ECE0101960E94D2
:10258000471A89819A810E9434038F2D0E94260F59
:102590008C0163E070E08F2D0E94C711F82E0E941D
:1025A000330387E1F81631F08CE1F81619F080E07A
:1025B00090E001C0C8010F900F90DF91CF911F9163
:1025C0000F91FF9008954F925F927F928F929F920A
:1025D000AF92BF92CF92DF92EF92FF920F931F9331
:1025E000CF93DF9300D0CDB7DEB7782E6B014A01D1
:1025F000A82EB12C27E0829FC0011124AC014F5CB2
:102600005A4F7A01FA0100811181CE0101960E9490
:10261000471A89819A810E9434030815190554F4D8
:10262000872D0E94E70DF70126818C01021B1109FD
:102630001183008301151105A9F463E070E0872D73
:102640000E94C711843109F480C0882309F47DC039
:1026500001E010E08C3111F400E010E011950195DB
:10266000110973C0801691060CF4840187E08A9DDD
:10267000F0018B9DF00D1124EF5CFA4FE280F380A6
:10268000C114D10459F12701F7E05F22872D0E9480
:10269000B40D840D951D20915505273319F4A8011B
:1026A000B6011AC09801240D351D21303840B8F309
:1026B00020E038E0490184189508A401B6010E9481
:1026C000D4182601480C591C6801C818D908872D50
:1026D0000E94B40DA601B2010E94D418E00EF11EB2
:1026E00087E08A9DF0018B9DF00D1124EF5CFA4F7D
:1026F000F382E28280819181801B910B91838083A0
:102700002681A801420F511D4A3F510510F4892B23
:10271000D9F487E08A9DF0018B9DF00D1124EF5CC8
:10272000FA4F1682F982EA8222E030E0AE014F5F72
:102730005F4F68E270E0872D0E945C1060E470E0FB
:10274000872D0E94C41801C046830E943303C8012C
:102750000F900F90DF91CF911F910F91FF90EF900D
:10276000DF90CF90BF90AF909F908F907F905F90C1
:102770004F900895CF93DF93FC01218D328D211569
:10278000310519F48FEF9FEF11C0EC014217530789
:1027900008F0A901888D0E94E3121816190694F713
:1027A000298D3A8D281B390B3A8F298FDF91CF91D4
:1027B00008950F931F93CF93DF931F92CDB7DEB78A
:1027C000FC01218D328D232B61F08C0141E050E022
:1027D000BE016F5F7F4F808D0E94E31218161906AD
:1027E0001CF08FEF9FEF08C0F801818D928D01974B
:1027F000928F818F898190E00F90DF91CF911F910F
:102800000F9108950F931F93CF93DF93CDB7DEB74A
:1028100028970FB6F894DEBF0FBECDBF8C01D8014C
:1028200059964D915C915A974115510551F0ED9192
:10283000FC91048CF58DE02D60E070E0C8010995F5
:10284000EECFF801808D0E949E0F892B51F148E058
:1028500050E0BE016F5F7F4FD80158968C910E9467
:10286000E31218161906FCF4D801509684E0FE0114
:10287000319601900D928A95E1F78D8190E0982F25
:1028800088272E81820F911DF801958B848B8F8173
:1028900090E0982F88272885820F911D928F818F35
:1028A00002C080E090E028960FB6F894DEBF0FBE1D
:1028B000CDBFDF91CF911F910F9108951F93CF93BB
:1028C000DF9300D0CDB7DEB7182FCE0101960E945E
:1028D000471A89819A810E94340363E070E0812F56
:1028E0000E94C711182F0E943303812F0F900F9061
:1028F000DF91CF911F9108951F93CF93DF9300D065
:10290000CDB7DEB7FC01108DCE0101960E94471AAB
:1029100089819A810E94340360E270E0812F0E94D5
:10292000C41862E070E0812F0E94C71184FD1CC0B2
:1029300062E070E0812F0E94C71183FF0AC048E166
:1029400062E070E0812F0E94A9110E94330380E0B1
:1029500014C00E943303CE0101960E94471A898158
:102960009A810E943403DDCF40E162E070E0812F64
:102970000E94A9110E94330381E090E00F900F9014
:10298000DF91CF911F9108950895EF92FF920F93D9
:102990001F93CF93DF9300D000D0CDB7DEB78C016B
:1029A0007B01FB018485843050F088ED91E0F801D3
:1029B0009183808312821382148215821BC0CE0100
:1029C00001960E94471A89819A810E94340324E06B
:1029D00030E0AE014F5F5F4F6CE070E0F70184853F
:1029E0000E9421030E943303BE016F5F7F4FC80125
:1029F0000E946018C8010F900F900F900F90DF9108
:102A0000CF911F910F91FF90EF900895CF92DF9299
:102A1000EF92FF920F931F93CF93DF936C017A0194
:102A20008B01C0E0D0E0CE15DF0581F0D8016D91BB
:102A30008D01D601ED91FC910190F081E02DC60150
:102A40000995892B11F02196EECF7E01C701DF9108
:102A5000CF911F910F91FF90EF90DF90CF9008954D
:102A6000FC01538D448D252F30E0842F90E0821B94
:102A7000930B541710F0CF96089501970895FC0119
:102A8000918D828D981761F0828DDF01A80FB11DA5
:102A90005D968C91928D9F5F9F73928F90E00895C9
:102AA0008FEF9FEF0895FC01918D828D981731F083
:102AB000828DE80FF11D858D90E008958FEF9FEFD7
:102AC0000895FC01918D228D892F90E0805C9F4FAD
:102AD000821B91098F739927089586E595E00E94DE
:102AE000611521E0892B09F420E0822F0895FC0173
:102AF000848DDF01A80FB11DA35ABF4F2C91848D87
:102B000090E001968F739927848FA689B7892C93BB
:102B1000A089B1898C91837080648C93938D848D0E
:102B2000981306C00288F389E02D80818F7D808311
:102B30000895EF92FF920F931F93CF93DF93EC01D1
:102B400081E0888F9B8D8C8D981305C0E889F98969
:102B5000808185FD26C0F62E0B8D10E00F5F1F4F84
:102B60000F731127E02E8C8DE8120CC00FB607FCF6
:102B7000FACFE889F989808185FFF5CFCE010E94DF
:102B80007715F1CF8B8DFE01E80FF11DE35AFF4F52
:102B9000F0829FB7F8940B8FEA89FB89808180626D
:102BA0000AC09FB7F894EE89FF896083E889F989A4
:102BB00080818370806480839FBF81E090E0DF919B
:102BC000CF911F910F91FF90EF900895CF93DF93D6
:102BD000EC01888D8823C9F0EA89FB89808185FD15
:102BE00005C0A889B9898C9186FD0FC00FB607FC76
:102BF000F5CF808185FFF2CFA889B9898C9185FFB7
:102C0000EDCFCE010E947715E7CFDF91CF910895E8
:102C100080E090E0892B29F00E946D1581110C94C1
:102C200000000895FC0120812EBD9B012150310937
:102C300041F051810DB407FEFDCF4EB55EBD41930D
:102C4000F5CF61507109FC01E60FF71F0DB407FEC7
:102C5000FDCF8EB5808308950E94D92C0F931F93CA
:102C6000CF93DF93EC0188819981009729F02A8125
:102C70003B812617370788F48B016F5F7F4F0E94D7
:102C8000132C009761F0998388831B830A832C811E
:102C90003D81232B11F4FC01108281E001C080E012
:102CA000DF91CF911F910F910895CF92DF92EF9214
:102CB000FF92611571058105910549F06B017C0159
:102CC0000E948327A70196010E94332903C060E078
:102CD00070E0CB01FF90EF90DF90CF9008950F93BD
:102CE0001F93CF93DF93EC010E94211C68877987A3
:102CF0008A879B87E881F9810284F385E02DCE01E4
:102D0000099597FF17C00E94211C088519852A85FF
:102D10003B85DC01CB01801B910BA20BB30B0C811B
:102D20001D812E813F8180179107A207B30710F301
:102D30008FEF9FEFDF91CF911F910F910895DC01ED
:102D4000ED91FC910190F081E02D0994EF92FF92BA
:102D50000F931F93CF93DF938C017B01C0E0D0E0F2
:102D6000F701EC0FFD1F6491662361F0D801ED912E
:102D7000FC910190F081E02DC8010995892B11F09B
:102D80002196EECFCE01DF91CF911F910F91FF9051
:102D9000EF9008956115710579F0FB010190002015
:102DA000E9F73197AF01461B570BDC01ED91FC9120
:102DB0000280F381E02D099480E090E008958F92E5
:102DC0009F92AF92BF92EF92FF920F931F93CF9378
:102DD000DF93CDB7DEB7A1970FB6F894DEBF0FBE75
:102DE000CDBF7C01FA01CB0119A2223008F42AE000
:102DF0008E010F5D1F4F822E912CA12CB12CBF0193
:102E0000A50194010E949C29F901CA0101501109F0
:102E10006A3014F4605D01C0695CD8016C93232BA7
:102E2000242B252B61F7B801C7010E94CA16A19671
:102E30000FB6F894DEBF0FBECDBFDF91CF911F91CB
:102E40000F91FF90EF90BF90AF909F908F9008955B
:102E50007F928F929F92AF92BF92CF92DF92EF922A
:102E6000FF920F931F93CF93DF938C016A017B0135
:102E7000722E9A01AB01C701B6010E94E02A882395
:102E800019F061E774E027C046015701E894B7F8EC
:102E90002FEF3FEF4FE75FE7C501B4010E94E02A43
:102EA00081110DC02FEF3FEF4FE75FE7C501B40180
:102EB0000E940F2818161CF465E774E00CC02FEF71
:102EC0003FEF4FE75FE4C701B6010E94DB2A181607
:102ED00094F469E774E0C801DF91CF911F910F91DD
:102EE000FF90EF90DF90CF90BF90AF909F908F902A
:102EF0007F900C94CA162FEF3FEF4FE75FECC701AE
:102F0000B6010E940F2887FDE4CF20E030E0A90140
:102F1000C701B6010E940F2887FF0AC06DE2C801F1
:102F20000E949F16EC01F7FAF094F7F8F09402C0B3
:102F3000C0E0D0E0B12C60E070E080E09FE37B1463
:102F400041F020E030E040E251E40E943A2AB3949C
:102F5000F6CFA70196010E94CE296B017C010E9449
:102F6000AC2A4B015C012AE0AB01BC01C8010E9404
:102F7000DF16C80FD91F7720C1F1C501B4010E9427
:102F800014289B01AC01C701B6010E94CD296B0139
:102F90007C016EE2C8010E949F16C80FD91F20E075
:102FA00030E040E251E4C701B6010E9475284B01B0
:102FB0005C010E94AC2A6B01E12CF12C2AE0B701E4
:102FC000A601C8010E94DF16C80FD91FC701B601AC
:102FD0000E9414289B01AC01C501B4010E94CD29B7
:102FE0006B017C017A947110DACFCE01DF91CF9121
:102FF0001F910F91FF90EF90DF90CF90BF90AF9017
:103000009F908F907F9008958F929F92AF92BF92E2
:10301000CF92DF92EF92FF920F931F93CF93DF93A4
:103020007C018B016C0182E0C80ED11C4701E5E0F8
:103030008E0E911CC0E0D0E0F60141916F0150E08E
:1030400060E070E02AE0C8010E94DF165C016EE2D9
:10305000C8010E949F168A0D9B1DC80FD91FC81456
:10306000D90451F7F701458150E060E070E02AE0B3
:10307000C8010E94DF168C0F9D1FDF91CF911F9119
:103080000F91FF90EF90DF90CF90BF90AF909F9007
:103090008F9008950F931F93CF93DF93EC010E94BD
:1030A000CA168C0163E574E0CE010E94CA16800F37
:1030B000911FDF91CF911F910F9108950C94CA1623
:1030C000DC0188ED91E08D939D9384E0FB010190FC
:1030D0000D928A95E1F708951F920F920FB60F9205
:1030E00011242F933F934F935F936F937F938F930D
:1030F0009F93AF93BF93EF93FF9386E595E00E9474
:103100007715FF91EF91BF91AF919F918F917F9133
:103110006F915F914F913F912F910F900FBE0F9044
:103120001F9018951F920F920FB60F9211242F9394
:103130008F939F93EF93FF93E0916605F09167055E
:103140008081E0916C05F0916D0582FD12C0908147
:1031500080916F058F5F8F7320917005821751F0FA
:10316000E0916F05F0E0EA5AFA4F958F80936F0572
:1031700001C08081FF91EF919F918F912F910F90CE
:103180000FBE0F901F901895CF93C82F462F61E068
:1031900070E00E94A91161E070E08C2F0E94C711BD
:1031A0008111F9CFCF910895AF92BF92CF92DF9264
:1031B000EF92FF920F931F93CF93DF9300D000D035
:1031C000CDB7DEB78C016B017A0180915505833351
:1031D000F1F45B016801C40ED51E0C151D0509F440
:1031E00060C00E94EE0E8FE00E941F0F812F0E9490
:1031F0001F0F802F0E941F0F0F5F1F4F80E00E9444
:103200001F0FF50181935F010E94E40EE6CF843326
:10321000F1F40E94EE0E19830A838F2D8F778B8332
:10322000EC8264E070E0CE0101960E941216A701C4
:1032300060E070E0C6010E94F42CE114F10421F07A
:10324000B701C6010E9412160E94E40E2AC00E9415
:10325000EE0E0F3F110509F020F419820A831B823C
:103260001DC017FD0BC019820A8333E01695079520
:103270003A95E1F7007E08600B8310C0C80126E094
:10328000969587952A95E1F719830A83807E011523
:10329000104C10F4806101C088618B8363E070E0A2
:1032A000C2CFC7010F900F900F900F90DF91CF9179
:1032B0001F910F91FF90EF90DF90CF90BF90AF9054
:1032C0000895AF92BF92CF92DF92EF92FF920F9349
:1032D0001F93CF93DF93CDB7DEB728970FB6F8943F
:1032E000DEBF0FBECDBF8C017B016A018091550509
:1032F0008333E1F45801A40EB51E0A151B0509F429
:103300008BC00E94EE0E80EF0E941F0F812F0E9443
:103310001F0F802F0E941F0F0F5F1F4FF70181911A
:103320007F010E941F0F0E94E40EE7CF843321F536
:103330000E94EE0E19830A838D2D80688B83CC82C8
:1033400064E070E0CE0101960E94121687010C0D18
:103350001D1DE016F10669F0F70181917F010E94C1
:103360001F0FF7CFB6016D5F7F4FCE0101960E9410
:1033700012160E94E40E50C00E94EE0E0F3F11057F
:1033800009F020F419820A8384E01CC017FD0BC0E9
:1033900019820A8333E0169507953A95E1F7007E86
:1033A0000C600B8310C0C80126E0969587952A957E
:1033B000E1F719830A83807E0115104C10F48461B3
:1033C00001C08C618B8326E0C216D10498F420E002
:1033D000822F90E08C159D0528F6E4E0F0E0EC0FDC
:1033E000FD1FE80FF91FD701A80FB91F8C9180832B
:1033F0002F5FEECF63E070E0CE0101960E941216BF
:1034000087010C0D1D1DF70181917F010E941F0F87
:10341000E016F106C1F7ADCFC60128960FB6F894B5
:10342000DEBF0FBECDBFDF91CF911F910F91FF90F7
:10343000EF90DF90CF90BF90AF900895CF93DF9340
:1034400080E80E940C0FC4E1D0E00E94F90E8823AE
:1034500051F061E070E080E090E00E941D0B219748
:10346000A1F780E001C081E0DF91CF910895CF9373
:10347000DF93EB010E946F1697FD04C0888381E003
:1034800090E002C080E090E0DF91CF91089520E5C8
:10349000FC01208321E02183089520E3FC012083A7
:1034A0003296862F82958F7090E1899F6019112442
:1034B0006A3014F4605D01C0695C6293682F811109
:1034C000F0CF08952F923F924F925F926F927F922A
:1034D0008F929F92AF92BF92CF92DF92EF92FF9224
:1034E0000F931F93CF93DF93CDB7DEB7E9970FB656
:1034F000F894DEBF0FBECDBF7C014A015B0119010C
:103500000E94211C2B013C0187010D5B1F4FC8014C
:103510000E94021418161906A4F00E94211CDC0156
:10352000CB0184199509A609B70988169906AA0638
:10353000BB06D8F062E370E080E090E00E941D0BD3
:10354000E6CF42E250E0BE016F5F7F4FC8010E94AC
:10355000BA138981823011F080E035C1F801848985
:10356000958983349105C1F702C08FEF2CC16D811D
:103570007E818F8198850E94E52A2B013C01F10113
:10358000608371838283938346E050E0B701685F74
:103590007F4FCE014D960E94DE2C892BE9F6F70174
:1035A00080819181A281B381481659066A067B0603
:1035B00098F284819581A681B78184159505A60529
:1035C000B70550F289899A89AB89BC898687978724
:1035D000A08BB18B4EEC50E060E070E0C8010E941F
:1035E000BA131FA66701F2E2CF0ED11CC70186965F
:1035F00099AB88ABF701BA96FBABEAAB4701FAE1AE
:103600008F0E911C8D969DAB8CABF7017296FFAB24
:10361000EEABCD9799AF88AF17019EE1290E311C13
:10362000F801818D928D181619060CF0CBC0C801D7
:103630000E94D9138333910509F4A5C0ACF48130FD
:10364000910569F11CF4892B59F3B6C083309105BB
:1036500071F1069709F0B0C0C8010E94D9135C014E
:1036600044E050E0B1012BC08A33910509F45FC0FA
:1036700034F48533910559F0C69771F19DC08B33B1
:10368000910509F46AC08F3F910551F295C0C801B8
:103690000E94D913C8010E94D9138FA7C1CFC801B6
:1036A0000E94D91344E050E06EA97FA911C0C8015F
:1036B0000E94D9135C0144E050E068AD79ADC801C7
:1036C0000E94BA13A50155274450510960E070E0EB
:1036D000C8010E94BA13A4CFC8010E94D9135C018B
:1036E000B401CE0183960E9460188DA19EA1AFA166
:1036F000B8A5892B8A2B8B2BA1F0ECA9FDA94080C2
:10370000518062807380B401CE0189960E94601856
:103710008BA59CA5ADA5BEA584159505A605B705E9
:1037200021F444E050E0B401D3CFA50149C0C80161
:103730000E94D91344E050E068A979A9C8010E9409
:10374000BA13F70166A177A180A591A50E94E52A89
:1037500066A377A380A791A763CFC8010E94D9135E
:1037600044E050E06AA97BA9C8010E94BA13F7019E
:1037700062A573A584A595A50E94E52A62A773A7F3
:1037800084A795A74DCFC8010E94D91344E050E00B
:10379000B601C8010E94BA13F70162A173A184A106
:1037A00095A10E94E52A62A373A384A395A366A7AB
:1037B00077A780AB91AB34CFC8010E94D913AC017D
:1037C000552784CF8FA5E9960FB6F894DEBF0FBEBC
:1037D000CDBFDF91CF911F910F91FF90EF90DF90C0
:1037E000CF90BF90AF909F908F907F906F905F90A1
:1037F0004F903F902F9008953FB7F89480916206C4
:1038000090916306A0916406B091650626B5A89BC9
:1038100005C02F3F19F00196A11DB11D3FBFBA2F62
:10382000A92F982F8827820F911DA11DB11DBC01C2
:10383000CD0142E0660F771F881F991F4A95D1F787
:1038400008952FB7F89460915E0670915F0680919D
:103850006006909161062FBF08951F920F920FB6D8
:103860000F9211242F933F938F939F93AF93BF9306
:1038700080915E0690915F06A0916006B09161060E
:1038800030915D0623E0230F2D3720F40196A11D12
:10389000B11D05C026E8230F0296A11DB11D20937E
:1038A0005D0680935E0690935F06A0936006B093DA
:1038B00061068091620690916306A0916406B091C2
:1038C00065060196A11DB11D809362069093630663
:1038D000A0936406B0936506BF91AF919F918F91BD
:1038E0003F912F910F900FBE0F901F901895CF937F
:1038F000DF93CDB7DEB7C254D1090FB6F894DEBF5F
:103900000FBECDBF789484B5826084BD84B58160DC
:1039100084BD85B5826085BD85B5816085BD80919A
:103920006E00816080936E00109281008091810012
:10393000826080938100809181008160809381000A
:10394000809180008160809380008091B1008460CC
:103950008093B1008091B00081608093B00080912D
:103960007A00846080937A0080917A0082608093EC
:103970007A0080917A00816080937A0080917A0049
:10398000806880937A001092C10061E086E00E9416
:10399000E10A61E087E00E94E10A61E088E00E94BC
:1039A000E10A61E089E00E94E10A61E080E10E94B1
:1039B000E10A61E081E10E94E10A61E082E10E94A6
:1039C000E10A61E083E10E94E10AE0916605F0917D
:1039D000670582E08083E0916205F09163051082C3
:1039E000E0916405F09165058FEC808310926E057F
:1039F000E0916A05F0916B0586E08083E0916805AF
:103A0000F0916905808180618083E0916805F09183
:103A10006905808188608083E0916805F09169057F
:103A2000808180688083E0916805F09169058081DC
:103A30008F7D808300E010E0E1E2FE2EF801F0923D
:103A4000570084910E94E7070E5F1F4F0630110553
:103A5000A9F70EE010E071E2F72EF801F09257009E
:103A600084910E94E7070F5F1F4F08311105A9F7E6
:103A700040912B0650912C066091270670912806E4
:103A800086E595E00E94061563E574E086E595E01D
:103A90000E94CA168091E40481112AC01092CC04BD
:103AA0001092CB0488EE93E0A0E0B0E08093CD04C8
:103AB0009093CE04A093CF04B093D0048AE491E015
:103AC0009093CA048093C90488ED91E09093D80440
:103AD0008093D7041092D9041092DA041092DB0478
:103AE0001092DC0484E08093E10481E08093E4049C
:103AF00086E894E090938504809384048091830405
:103B00008E010F5F1F4F81110AC360E372E080E0F6
:103B100090E00E941D0BFFB6F89480918204811101
:103B200027C0EFEEF0E08491E3E0F1E09491E82F1C
:103B3000F0E0EE0FFF1FE953FF4FA591B491EC9118
:103B4000E92321F461E08AE00E94B20A61E08AE0A0
:103B50000E94E10A8CB580618CBD8CB580648CBDFF
:103B600061E08DE00E94E10A61E08BE00E94E10AE1
:103B7000809182048F5F80938204FFBEEFEEF0E0BD
:103B8000E491F0E0EE0FFF1FEF52FF4F859194910B
:103B90009093800480937F04E3E0F1E0E491E0936C
:103BA0007E0461E08AE00E94E10A0E94E40EC801FE
:103BB0000E94471A89819A810E94340384E380938A
:103BC00055050E941E1A8823F9F088E00E940C0F08
:103BD0000E94F90E8830C1F480E10E940C0F0E940F
:103BE000F90E803189F480E00E940C0F0E94F90EDA
:103BF00081110AC041E050E0B8018FE190E00E94DD
:103C0000D4188981833091F187E3809355050E9410
:103C10001E1A882309F44FC088E00E940C0F0E94EE
:103C2000F90E883009F047C080E10E940C0F0E9415
:103C3000F90EF82E90E189133EC080E00E940C0F2F
:103C40000E94F90E811137C041E050E0B80189E3CC
:103C500090E00E94D4188981843069F5F092810443
:103C60000E94330381E08093830459C280E48093EF
:103C70008104F12C42E06EE170E08F2D0E94A911C9
:103C800042E06FE170E08F2D0E94A911F394F4E0FF
:103C9000FF12F0CF40E06EE170E08F2D0E94A9117D
:103CA00040E06FE170E08F2D0E94A911F39488E04D
:103CB000F812F0CFD5CF83E3809355050E941E1AEA
:103CC000882379F180E10E940C0F0E94F90E803167
:103CD00041F582E10E940C0F0E94F90E823109F534
:103CE00080E00E940C0F0E94F90E81111AC084E03E
:103CF0008093810485E5F82EFDAE41E050E0BE01E1
:103D0000635C7F4F8BE190E00E946119FCAE41E063
:103D100050E0BE01645C7F4F8AE190E00E9461192F
:103D20009FCF109255050E943303CE0181969FAF1D
:103D30008EAFDE01D7961D0119821A821B821C826A
:103D40001D8261E0809114060E94E10A60E080918A
:103D500014060E94B20A62E170E080E090E00E94E6
:103D60001D0B62E0809114060E94E10A28E230E017
:103D700040E050E061E0809114060E946209672BE8
:103D8000682B692B11F48DEF4AC020E530E040E04C
:103D900050E060E0809114060E946209672B682B56
:103DA000692B89F320E530E040E050E061E080914C
:103DB00014060E946209672B682B692B21F3E12C02
:103DC000F12C22E330E040E050E060E08091140606
:103DD0000E94620924E630E040E050E061E080911A
:103DE00014060E9462096623C9F0F70143E0F595C5
:103DF000E7954A95E1F7E00FF11F8081982F990F21
:103E000081E06E3208F480E0890F8083BFEFEB1A07
:103E1000FB0AE8E2EE16F104A1F604C08EEF8093EF
:103E20001606D7C069819A81EB80DC80862F890FC6
:103E30008E0D8D0D2D81821711F08FEFF0CF8091B7
:103E40001506853109F45AC0863109F457C08B3004
:103E500009F0BDC070E080E090E00E9414286093FB
:103E60002306709324068093250690932606F12C52
:103E70006D2DD7FE29C06F7770E080E090E00E9442
:103E800016282DEC3CEC4CEC5DE30E9475289B0160
:103E9000AC0160E070E080E89FE30E94CD294B0117
:103EA0005C01B701FF0C880B990B0E9416289B013F
:103EB000AC01C501B4010E94CE296B017C01F7FA67
:103EC000F094F7F8F0944FC070E080E090E00E942A
:103ED00016282DEC3CEC4CEC5DE30E9475284B0160
:103EE0005C01B701FF0C880B990B0E9416289B01FF
:103EF000AC01C501B4010E94CE2933C070E0762F19
:103F00006627690F711D072E000C880B990B0E9404
:103F100016282DEC3CEC4CEC5DE30E947528609378
:103F200023067093240680932506909326066E2D13
:103F30006F7770E0762F66276D0D711D072E000CD0
:103F4000880B990B0E941628E7FE05C02DEC3CEC6F
:103F50004CEC5DEB04C02DEC3CEC4CEC5DE30E94C2
:103F600075286B017C01C0921706D0921806E0926A
:103F70001906F0921A0620E030E040E151E4C70152
:103F8000B6010E94752820E030E040EA50E40E942B
:103F90003A2A20E030E040E052E40E94CE296093CB
:103FA0001B0670931C0680931D0690931E0623E348
:103FB00033E948E853E4C701B6010E94CE29609373
:103FC0001F0670932006809321069093220610927C
:103FD0001606809116068E3F09F454C034F48D3FC6
:103FE00009F056C068E372E04FC08F3F09F447C044
:103FF00081114EC064EB70E086E595E00E94A61644
:104000006AEF71E086E595E00E945E184091170620
:10401000509118066091190670911A064093150583
:1040200050931605609317057093180522E086E5F6
:1040300095E00E94281768E072E086E595E00E940E
:104040005E186DE072E086E595E00E945E18409192
:104050002306509124066091250670912606409310
:10406000110550931205609313057093140522E017
:1040700086E595E00E94281768E172E005C06AE1D4
:1040800072E002C069E272E086E595E00E944A189B
:104090006DE472E086E595E00E944A1860E177E2FF
:1040A00080E090E00E941D0B61EA70E086E595E0FB
:1040B0000E94A61661E672E086E595E00E944A1825
:1040C00063E970E086E595E00E94A616C8010E94AB
:1040D0005C0466E575E0C8010E94041863E574E0BD
:1040E00086E595E00E94CA1661E870E086E595E0F5
:1040F0000E94A6166AE672E086E595E00E944A18DC
:10410000FF24F39486E595E00E94611518161906C0
:104110000CF04FC28091100581114BC21EC2C80124
:104120000E94471A89819A810E94340346E050E038
:1041300060E071E089E090E00E94611988ED91E013
:104140009A8389831B821C821D821E8244E050E078
:10415000BE016D5F7F4F8FE090E00E9461190E9469
:104160003303E0908404F0908504D70192961D9269
:104170001D921D921C929597F70116A217A210A6E8
:1041800011A69A961D921D921D921C929D9780E6F3
:104190009AEEA0E0B0E086AB97ABA0AFB1AF80EAFB
:1041A0009FE0A0E0B0E082AF93AFA4AFB5AF3E9682
:1041B00084E1DF011D928A95E9F786E0E0E0F1E015
:1041C000D701189601900D928A95E1F74701B2E464
:1041D0008B0E911CF40110826FEC77E080E090E090
:1041E0000E945516DC01CB010196A11DB11DF701FE
:1041F00084839583A683B78380839183A283B383CB
:10420000C7018D5B9F4F23969FAF8EAF23970E9470
:104210004E1064E470E023968EAD9FAD23970E940C
:104220009012882309F481CD0E94211C2B013C01AE
:10423000212C312C48EEA42E43E0B42EC12CD12CDD
:10424000D4018C91833009F408C181111FC0F7019A
:1042500084819581A681B7810196A11DB11D8483BA
:104260009583A683B7830E94211C6419750986096A
:104270009709A60195010E949C29A90161E0C70147
:104280000E94DF0681E0D4018C93CFC08430E9F432
:10429000F70184819581A681B7810196A11DB11D89
:1042A00084839583A683B7830E94211C64197509B2
:1042B00086099709A60195010E949C29A90163E03E
:1042C000C7010E94DF06E2E02EC0813079F5D701F8
:1042D000DA964D915D916D917C91DD979801C701C2
:1042E0000E94621A21968FAF2197823009F096C002
:1042F00089819A81AB81BC81F70184839583A683F0
:10430000B7830E94211C6419750986099709A601C3
:1043100095010E949C29A90163E0C7010E94DF0664
:104320002196EFAD2197D401EC937FC0823009F044
:104330007CC0D701DA964D915D916D917C91DD97AE
:104340009801C7010E94621A21968FAF219785308C
:1043500009F05CC083E0F4018083F70182A193A19E
:10436000A4A1B5A1892B8A2B8B2B41F484E893E07F
:10437000A0E0B0E082A393A3A4A3B5A3F70186A114
:1043800097A1A0A5B1A5892B8A2B8B2B61F482A1C3
:1043900093A1A4A1B5A1B695A7959795879586A356
:1043A00097A3A0A7B1A7F70182A593A5A4A5B5A53A
:1043B000892B8A2B8B2BA9F482A193A1A4A1B5A14F
:1043C000AC01BD0123E076956795579547952A95F1
:1043D000D1F7841B950BA60BB70B82A793A7A4A7B5
:1043E000B5A7F70186A197A1A0A5B1A586A797A714
:1043F000A0ABB1AB82A593A5A4A5B5A582AB93ABA9
:10440000A4ABB5AB22242394312C0FC02196FFAD71
:104410002197F63019F4D4011C9207C02196BFAD44
:104420002197BF3F11F4F4011082F1E02F163104FF
:1044300009F406CF0E94211CDC01CB0184199509E7
:10444000A609B709F70126A937A940AD51AD28172C
:1044500039074A075B0708F0F3CE23968EAD9FAD70
:1044600023970E944E10F70184819581A681B78120
:104470000196A11DB11D84839583A683B7830E94F5
:10448000211CF701FE9660837183828393832A94B3
:10449000232809F04ACCC8010E94471A89819A81D1
:1044A0000E9434036091840470918504625F7F4FA1
:1044B000C8010E94601844E050E0BE016D5F7F4F6C
:1044C0008FE090E00E9461196091840470918504EE
:1044D0006A5E7F4FC8010E94601844E050E0BE0150
:1044E0006D5F7F4F81E090E00E94611960918404CC
:1044F000709185046E5E7F4FC8010E94601844E091
:1045000050E0BE016D5F7F4F85E090E00E94611931
:104510000E9433036091840470918504625E7F4F32
:10452000C8010E9460188B819C81AD81BE818093FF
:10453000F5059093F605A093F705B093F8050E9452
:10454000FC1B7F73809106019091070168277927F2
:104550007093070160930601E8CB86E595E00E9421
:104560003F159091ED049923F1F0E091EC048E3326
:1045700079F0AE2FB0E0A051BB4F8C93EF5FE032EB
:1045800018F4E093EC04BECDFFE1F093EC04BACD57
:10459000F0E0E051FB4F10821092ED041092EC0419
:1045A000F0921005AFCD8C3309F0ACCDF092ED0454
:1045B000A9CD69E074E086E595E00E944A1869E0BB
:1045C00074E086E595E00E944A1863E474E086E5AD
:1045D00095E00E944A1840E550E06DE773E085E001
:1045E00096E00E94E4017C0140E550E06DE773E055
:1045F00085E096E00E94E401EF2809F059C367EED8
:1046000071E086E595E00E944A188090110590902F
:104610001205A0901305B090140540901505509018
:10462000160560901705709018051AAA19AA1CAAF9
:104630001BAA1EAA1DAAE0902706F0902806E114E6
:10464000F10401F1C0902B06D0902C06B601CE01EA
:10465000C1960E942E1629A93AA981110DC02115D3
:10466000310519F0C9010E948A2B1AAA19AA1EAA9B
:104670001DAA1CAA1BAA06C0DEAACDAAB701C901A1
:104680000E94042D68E772E085E096E00E945E18C3
:104690006EE772E085E096E00E945E1862E972E0E3
:1046A00085E096E00E945E1868E972E085E096E099
:1046B0000E945E184DA95EA969A97AA985E096E0D5
:1046C0000E9437036CE972E085E096E00E945E1874
:1046D00069E570E080E090E00E945516665F7F4FCC
:1046E0008F4F9F4F0E94300966EA72E085E096E0A6
:1046F0000E945E1869E570E080E090E00E94551627
:10470000665F7F4F8F4F9F4F0E94300960EB72E0D2
:1047100085E096E00E945E1869E570E080E090E038
:104720000E945516665F7F4F8F4F9F4F0E94300942
:104730006AEB72E085E096E00E945E1869E570E041
:1047400080E090E00E945516665F7F4F8F4F9F4F2D
:104750000E94300964EC72E085E096E00E945E18E9
:1047600069E570E080E090E00E945516665F7F4F3B
:104770008F4F9F4F0E9430096EEC72E085E096E00B
:104780000E945E1869E570E080E090E00E94551696
:10479000665F7F4F8F4F9F4F0E94300968ED72E038
:1047A00085E096E00E945E1869E570E080E090E0A8
:1047B0000E945516665F7F4F8F4F9F4F0E943009B2
:1047C00062EE72E085E096E00E945E1869E570E0B6
:1047D00080E090E00E945516665F7F4F8F4F9F4F9D
:1047E0000E9430096CEE72E085E096E00E945E184F
:1047F00069E570E080E090E00E945516665F7F4FAB
:104800008F4F9F4F0E94300966EF72E085E096E07F
:104810000E945E1869E570E080E090E00E94551605
:10482000665F7F4F8F4F9F4F0E94300961E073E0BA
:1048300085E096E00E945E1869E570E080E090E017
:104840000E945516665F7F4F8F4F9F4F0E94300921
:104850006CE073E085E096E00E945E1869E570E028
:1048600080E090E00E945516665F7F4F8F4F9F4F0C
:104870000E94300967E173E085E096E00E945E18CF
:1048800069E570E080E090E00E945516665F7F4F1A
:104890008F4F9F4F0E94300962E273E085E096E0FF
:1048A0000E945E1869E570E080E090E00E94551675
:1048B000665F7F4F8F4F9F4F0E9430096DE273E01C
:1048C00085E096E00E945E1869E570E080E090E087
:1048D0000E945516665F7F4F8F4F9F4F0E94300991
:1048E00068E373E085E096E00E945E1822E0B30181
:1048F000A20185E096E00E9428176FE373E085E04F
:1049000096E00E945E1822E0B501A40185E096E0E1
:104910000E94281765E473E085E096E00E945E1827
:10492000C8010E945C0465E076E0C8010E9404189A
:1049300060E573E085E096E00E945E1861E672E053
:1049400085E096E00E945E18809110058823D1F0E2
:104950006EE573E086E595E00E945E1860EF74E016
:1049600086E595E00E944A18109210056BE673E008
:1049700085E096E00E945E1860EF74E085E096E0C6
:104980000E945E1863E773E085E096E00E944A1893
:104990006AE770E085E096E00E94A6166DE773E096
:1049A00085E096E00E944A1868E670E085E096E0AF
:1049B0000E94A61663E574E085E096E00E94CA16A0
:1049C00063E574E085E096E00E94CA16892B09F43D
:1049D0004CC180E2D8011D928A95E9F7780185E003
:1049E00096E00E946F1697FF15C085E0E1E5F4E0C0
:1049F000D10101900D928A95E1F7F101019000201B
:104A0000E9F731975F01A218B30809F459C0E12C06
:104A1000F12C3AC08D30910541F3F70181937F016C
:104A20008EAD9FADE817F907D1F6DFCFF101EE0D9E
:104A3000FF1D2081022E000C330B82179307B1F16A
:104A4000E114F104D1F16F019701A901415051091D
:104A5000D6016E916D01062E000C770B8617970715
:104A6000D1F44115510579F0D101F701E41BF50BA3
:104A7000E20DF31D60E070E09D908190891481F05B
:104A80006417750759F4790185E096E00E946F1666
:104A900097FD16C0CBCF4115510579F09A01D5CFBE
:104AA0006F5F7F4F6417750738F3EACF97012F5F69
:104AB0003F4FA216B30639F703C020E030E0E3CF42
:104AC000E6E1F1E0FBA7EAA71EA61DA680EE90E0B6
:104AD00098AB8FA7AAE2B0E0AC0FBD1FBAA3A9A301
:104AE00085E096E09CA38BA31DA21EA2B8A7AFA34E
:104AF0008AE089A7CE0181960E94FB057C01FC011A
:104B000080819181892B39F469E973E086E595E02C
:104B10000E944A1897C069EA73E086E595E00E9412
:104B20005E186FEA73E0C7010E948604BC0186E547
:104B300095E00E944A1863EB73E086E595E00E94D9
:104B40005E186EEB73E0C7010E948604BC0186E527
:104B500095E00E944A1867EC73E086E595E00E94B4
:104B60005E186FEC73E0C7010E948604BC0186E505
:104B700095E00E944A1865ED73E0C7010E94860423
:104B80009093EF048093EE046EED73E086E595E07C
:104B90000E945E186091EE047091EF0486E595E046
:104BA0000E944A18E090EE04F090EF0461E0D70113
:104BB00013968C91803309F460E086E00E94B20A7B
:104BC00061E0F7018481803309F460E087E00E94AE
:104BD000B20A61E0D70115968C91803309F460E048
:104BE00088E00E94B20A61E0F7018681803309F40F
:104BF00060E089E00E94B20A61E0D70119968C91C9
:104C0000803309F460E080E10E94B20A61E0F701BC
:104C10008285803309F460E081E10E94B20A61E09C
:104C2000D7011B968C91803309F460E082E10E94E9
:104C3000B20A61E0F7018485803309F460E083E122
:104C40000E94B20A86E191E09BA78AA7EDA5FEA586
:104C5000309759F08281938198AB8FA7E080F180E3
:104C6000CF010E948A2BF701F3CF89A99AA90E944C
:104C70008A2B68EE73E086E595E00E944A1885E08D
:104C800096E00E94480169EF73E086E595E00E9496
:104C90004A1869E074E086E595E00E944A1869E0E8
:104CA00074E086E595E00E944A180E94081644C800
:104CB0006AED71E0A6CC8091FF05909100060E94FC
:104CC0008A2B80912706909128060C948A2BCF93EB
:104CD000DF93EC01198218821B821A821D821C82CA
:104CE00060E070E00E942E162881398181110FC08A
:104CF0002115310519F0C9010E948A2B19821882E9
:104D00001D821C821B821A82DF91CF9108951D8221
:104D10001C8269E674E0C901DF91CF910C94042DE7
:104D2000CF92DF92EF92FF92E6E5F5E013821282D6
:104D300088EEC82E83E0D82EE12CF12CC482D582D7
:104D4000E682F7828AE791E09183808385EC90E0A8
:104D50009587848784EC90E09787868780EC90E045
:104D6000918B808B81EC90E0938B828B82EC90E036
:104D7000958B848B86EC90E0978B868B118E128EB0
:104D8000138E148EEDE2F6E088ED91E0918380833E
:104D90001282138214821582E3E3F6E0918380830A
:104DA0001282138214821582E9E3F6E091838083F4
:104DB0001282138214821582EFE3F6E091838083DE
:104DC0001282138214821582E5E4F6E091838083D7
:104DD0001282138214821582EBE4F6E091838083C1
:104DE0001282138214821582E3EFF5E091838083AF
:104DF0001282138214821582E9EFF5E09183808399
:104E00001282138214821582E1E5F6E09183808399
:104E10001282138214821582E7E5F6E09183808383
:104E2000128213821482158287E296E00E9467261E
:104E3000E4E1F6E085E0808386E18183E5E0F6E069
:104E400013821282C482D582E682F7828AEA91E0D6
:104E50009183808384E0848788EE93E096878587BA
:104E60008FEF95E0FF90EF90DF90CF900C94672646
:104E70008F929F92AF92BF92CF92DF92EF92FF926A
:104E8000CF93DF93EC01688179818A819B816115E1
:104E900071058105910521F464E279ED8BE597E0D8
:104EA0002DE133EF41E050E00E94332949015A01DE
:104EB0009B01AC01A7EAB1E40E9452296B017C017D
:104EC000ACEEB4EFA50194010E946029DC01CB0196
:104ED0008C0D9D1DAE1DBF1DB7FF03C00197A1091D
:104EE000B04888839983AA83BB83BC01CD019F7797
:104EF000DF91CF91FF90EF90DF90CF90BF90AF9078
:104F00009F908F9008958F929F92AF92BF92CF9271
:104F1000DF92EF92FF9260910801709109018091F8
:104F20000A0190910B01611571058105910521F42C
:104F300064E279ED8BE597E02DE133EF41E050E05D
:104F40000E94332949015A019B01AC01A7EAB1E44F
:104F50000E9452296B017C01ACEEB4EFA5019401D3
:104F60000E946029DC01CB018C0D9D1DAE1DBF1D73
:104F7000B7FF03C00197A109B0488093080190933F
:104F80000901A0930A01B0930B01BC01CD019F77E9
:104F9000FF90EF90DF90CF90BF90AF909F908F9059
:104FA0000895609308017093090180930A0190931A
:104FB0000B010895BB274A3031F4992322F4BDE256
:104FC000909581959F4F0C94E627BB27FB015527B1
:104FD000AA27880F991FAA1FA41710F0A41B839556
:104FE0005051B9F7A05DAA3308F0A95DA1930097CD
:104FF00079F7B111B1931192CB010C94FF27DC0129
:10500000FC01672F71917723E1F7329704C07C91FF
:105010006D9370836291AE17BF07C8F308950E9425
:10502000512808F481E00895E89409C097FB3EF404
:1050300090958095709561957F4F8F4F9F4F9923E5
:10504000A9F0F92F96E9BB279395F6958795779563
:105050006795B795F111F8CFFAF4BB0F11F460FF23
:105060001BC06F5F7F4F8F4F9F4F16C0882311F07B
:1050700096E911C0772321F09EE8872F762F05C08F
:10508000662371F096E8862F70E060E02AF09A952A
:10509000660F771F881FDAF7880F9695879597F91F
:1050A0000895990F0008550FAA0BE0E8FEEF1616B9
:1050B0001706E807F907C0F012161306E407F5070C
:1050C00098F0621B730B840B950B39F40A2661F080
:1050D000232B242B252B21F408950A2609F4A14023
:1050E000A6958FEF811D811D08950E9488280C943C
:1050F000F9280E94EB2838F00E94F22820F095232E
:1051000011F00C94E2280C94E82811240C942D2919
:105110000E940A2970F3959FC1F3950F50E0551F27
:10512000629FF001729FBB27F00DB11D639FAA27FC
:10513000F00DB11DAA1F649F6627B00DA11D661F4B
:10514000829F2227B00DA11D621F739FB00DA11D6C
:10515000621F839FA00D611D221F749F3327A00D26
:10516000611D231F849F600D211D822F762F6A2FC2
:1051700011249F5750409AF0F1F088234AF0EE0F27
:10518000FF1FBB1F661F771F881F91505040A9F754
:105190009E3F510580F00C94E2280C942D295F3F2E
:1051A000E4F3983ED4F3869577956795B795F79590
:1051B000E7959F5FC1F7FE2B880F911D9695879508
:1051C00097F9089597F99F6780E870E060E0089587
:1051D0009FEF80EC089500240A941616170618060F
:1051E0000906089500240A941216130614060506EB
:1051F0000895092E0394000C11F4882352F0BB0F7C
:1052000040F4BF2B11F460FF04C06F5F7F4F8F4FDE
:105210009F4F089557FD9058440F551F59F05F3F19
:1052200071F04795880F97FB991F61F09F3F79F0C8
:1052300087950895121613061406551FF2CF46954A
:10524000F1DF08C0161617061806991FF1CF8695CC
:105250007105610508940895E894BB2766277727B0
:10526000CB0197F90895052E97FB1EF400940E9438
:105270004A2957FD07D00E949C2907FC03D04EF411
:105280000C944A2950954095309521953F4F4F4FAA
:105290005F4F089590958095709561957F4F8F4FE2
:1052A0009F4F08950E94BE29A59F900DB49F900D19
:1052B000A49F800D911D11240895B7FF0C945229CD
:1052C0000E945229821B930B08952F923F924F9276
:1052D0005F926F927F928F929F92AF92BF92CF9286
:1052E000DF92EF92FF920F931F93CF93DF93CDB78F
:1052F000DEB7CA1BDB0B0FB6F894DEBF0FBECDBF07
:1053000009942A88398848885F846E847D848C84D7
:105310009B84AA84B984C884DF80EE80FD800C81E0
:105320001B81AA81B981CE0FD11D0FB6F894DEBFC3
:105330000FBECDBFED010895A1E21A2EAA1BBB1B23
:10534000FD010DC0AA1FBB1FEE1FFF1FA217B30751
:10535000E407F50720F0A21BB30BE40BF50B661F67
:10536000771F881F991F1A9469F76095709580952B
:1053700090959B01AC01BD01CF010895A29FB001A2
:10538000B39FC001A39F700D811D1124911DB29F79
:10539000700D811D1124911D08955058BB27AA2717
:1053A0000E94E5290C94F9280E94EB2838F00E940D
:1053B000F22820F039F49F3F19F426F40C94E828E1
:1053C0000EF4E095E7FB0C94E228E92F0E940A29ED
:1053D00058F3BA17620773078407950720F079F42A
:1053E000A6F50C942C290EF4E0950B2EBA2FA02DC7
:1053F0000B01B90190010C01CA01A0011124FF2782
:10540000591B99F0593F50F4503E68F11A16F0407C
:10541000A22F232F342F4427585FF3CF469537957B
:105420002795A795F0405395C9F77EF41F16BA0B40
:10543000620B730B840BBAF09150A1F0FF0FBB1FEE
:10544000661F771F881FC2F70EC0BA0F621F731F37
:10545000841F48F4879577956795B795F7959E3F94
:1054600008F0B0CF9395880F08F09927EE0F979525
:10547000879508950E944E2A0C94F9280E94F228DC
:1054800058F00E94EB2840F029F45F3F29F00C947B
:10549000E22851110C942D290C94E8280E940A2925
:1054A00068F39923B1F3552391F3951B550BBB2753
:1054B000AA2762177307840738F09F5F5F4F220F98
:1054C000331F441FAA1FA9F335D00E2E3AF0E0E88F
:1054D00032D091505040E695001CCAF72BD0FE2FD9
:1054E00029D0660F771F881FBB1F2617370748076D
:1054F000AB07B0E809F0BB0B802DBF01FF27935825
:105500005F4F3AF09E3F510578F00C94E2280C94DE
:105510002D295F3FE4F3983ED4F386957795679500
:10552000B795F7959F5FC9F7880F911D9695879559
:1055300097F90895E1E0660F771F881FBB1F621778
:1055400073078407BA0720F0621B730B840BBA0B36
:10555000EE1F88F7E09508950E94122988F09F5762
:1055600098F0B92F9927B751B0F0E1F0660F771F87
:10557000881F991F1AF0BA95C9F714C0B13091F07D
:105580000E942C29B1E008950C942C29672F782FC4
:105590008827B85F39F0B93FCCF386957795679542
:1055A000B395D9F73EF490958095709561957F4FAE
:1055B0008F4F9F4F08950E94512808F48FEF089550
:1055C0000E945128880B990B08956927962769270F
:1055D0007827872778270895EE0FFF1F0590F4910D
:1055E000E02D09940F931F93CF93DF9382309105A1
:1055F00010F482E090E0E0916806F091690620E006
:1056000030E0A0E0B0E0309719F140815181028193
:10561000138148175907C8F08417950769F4109744
:1056200031F012960C93129713961C9327C0009397
:1056300068061093690622C02115310519F042173A
:10564000530718F49A01BD01EF01DF01F801DBCF28
:1056500021153105F9F0281B390B2430310580F470
:105660008A819B816115710521F0FB0193838283FF
:1056700004C09093690680936806FE01329644C088
:10568000FE01E20FF31F8193919322503109398378
:1056900028833AC02091660630916706232B41F497
:1056A00020910E0130910F0130936706209366061A
:1056B00020910C0130910D012115310541F42DB7D8
:1056C0003EB74091100150911101241B350BE09120
:1056D0006606F0916706E217F307A0F42E1B3F0B56
:1056E0002817390778F0AC014E5F5F4F2417350754
:1056F00048F04E0F5F1F50936706409366068193F4
:10570000919302C0E0E0F0E0CF01DF91CF911F91D3
:105710000F910895CF93DF93009709F481C0FC01A6
:10572000329713821282A0916806B0916906109791
:1057300081F420813181820F931F20916606309180
:1057400067062817390751F5F0936706E093660658
:1057500067C0ED0120E030E0CE17DF0740F44A815A
:105760005B819E0141155105F1F0EA01F5CFD3832C
:10577000C28340815181840F951FC817D90759F4FE
:1057800088819981840F951F0296918380838A81F5
:105790009B81938382832115310529F4F093690657
:1057A000E09368063DC0E901FB83EA834991599182
:1057B000C40FD51FEC17FD0761F480819181840F20
:1057C000951F0296E90199838883828193819B8347
:1057D0008A83E0E0F0E012968D919C9113970097F8
:1057E00019F0FD01DC01F7CF8D919C9111979D017E
:1057F0002E5F3F4F820F931F209166063091670600
:105800002817390769F4309729F410926906109225
:10581000680602C013821282B0936706A0936606E0
:10582000DF91CF910895A0E0B0E0E9E1FCE20C94B3
:105830006929EC01009721F4CB010E94F22AB4C03F
:10584000FC01E60FF71F9C0122503109E217F30714
:1058500008F4A8C0D9010D911C91119706171707DC
:10586000B0F00530110508F49BC0C80104978617F5
:10587000970708F495C002501109061B170B0193F6
:1058800011936D937C93CF010E948A2B89C05B0199
:10589000A01AB10A4C01800E911EA0916806B09129
:1058A0006906612C712CE12CF12C109709F446C08B
:1058B0008D919C911197A815B905B1F56C0142E045
:1058C000C40ED11CCA14DB0478F14C018A189B0861
:1058D000640142E0C40ED11C1296BC90129713963C
:1058E000AC91B5E0CB16D10440F0B282A383918293
:1058F0008082D9016D937C9309C00E5F1F4F800F8A
:10590000911FF90191838083EB2DFA2FE114F104AB
:1059100031F0D7011396FC93EE93129741C0F093A8
:105920006906E09368063CC06816790608F43C01F5
:105930007D0112960D90BC91A02DB7CF8091660687
:105940009091670688169906E1F466167706C8F402
:1059500080910C0190910D01009741F48DB79EB795
:105960004091100150911101841B950BE817F90724
:10597000C8F4F0936706E0936606F90171836083CB
:105980000FC0CB010E94F22A7C01009759F0A801B8
:10599000BE010E94EB2CCE010E948A2BC70104C0DD
:1059A000CE0102C080E090E0CDB7DEB7EEE00C940F
:1059B000852981E090E0F8940C940B2DFB01DC012B
:1059C00004C08D910190801921F441505040C8F7D6
:1059D000881B990B0895FB01DC0102C001900D9218
:1059E00041505040D8F70895DC0101C06D934150FB
:1059F0005040E0F70895FB01DC018D910190801982
:105A00000110D9F3990B0895FB01DC0101900D926F
:105A10000020E1F7089510E0C2E9D0E004C0FE01E3
:105A20000E94EC2A2196C339D107C9F7F894FFCF19
:105A3000DEADBEEFFEED00C00100000000006A0612
:105A4000800000000000B10201005E0000000000C4
:105A500000002C162C1622012C162C162C162C1697
:105A60002C16F2002C162C162C162C162C162C1676
:105A70002C162C162C1600000000C20DED10220171
:105A8000C414D80DD9138F0F90120C104E10601142
:105A90007D0E7C140214BA13EB00DB00D700D30098
:105AA000000000002C1600000000991506153015A6
:105AB000E61561153F155315000000002C1606155C
:105AC000220121012C162C162C16000000002C1689
:105AD00006152201210100000000BD0037039501D9
