:10000000C4C10000F3C10000F1C10000EFC1000055
:10001000EDC10000EBC10000E9C10000E7C1000034
:10002000E5C10000E3C10000E1C10000DFC1000044
:10003000DDC10000DBC10000D9C10000D7C1000054
:10004000D5C10000D3C10000D1C10000CFC1000064
:10005000CDC10000CBC10000C9C100000C949D1BA4
:10006000C5C100000C94671B0C943D1BBFC1000070
:10007000BDC10000BBC10000B9C10000B7C1000094
:10008000B5C10000B3C10000B1C10000AFC10000A4
:10009000ADC10000ABC10000A9C10000A7C10000B4
:1000A000A5C10000A3C10000A1C100009FC10000C4
:1000B0009DC100009BC1000099C1000097C10000D4
:1000C00095C1000093C1000091C100008FC10000E4
:1000D0008DC100008BC1000089C1000087C10000F4
:1000E00085C1000000002200250028002B002E0002
:1000F0003100340002010000050108010B0100007D
:100100002100240027002A002D00300033000101C7
:100110000000040107010A014661696C65642074EE
:100120006F20636F6E6669677572652045746865D8
:10013000726E657400636F6E6E656374696E672EB0
:100140002E2E005D3A200073657269616C5F6461F8
:1001500074615F726376645F66726F6D5F736C610A
:1001600076655B007D0073657269616C5F646174C4
:10017000615F726376645F66726F6D5F636C6F75EB
:10018000645B305D3A207B0041757468436F646541
:100190003A20004369443A2000436F6E6E656374F1
:1001A000696F6E3A20636C6F736500486F73743AC1
:1001B000200020485454502F312E30002673657291
:1001C00069616C5F646174613D002C002C00392E04
:1001D000332E382E302E5255485F4D454741002C66
:1001E000002C002C00267061796C6F61643D002644
:1001F000643D003F703D333300504F535420002086
:100200007365636F6E64732E2E2E00736C6565705C
:10021000696E6720666F722000646973636F6E6E2B
:1002200065637465642E2E2E00646973636F6E6E51
:10023000656374696E672E2E2E0073006D20006852
:100240002000642000757074696D653A20005D00BF
:100250004552525F4E4F5F5245504C595F534C418F
:1002600056455B0045746865726E65742E6C6F63ED
:10027000616C495028293A20006861726477617284
:10028000652069643A2000696E697469616C697AF5
:10029000652873756363657373290000002000236C
:1002A00000260029002C002F00320000010000036E
:1002B00001060109010505050507050808080802EA
:1002C0000202020A0A0808040404040101010101EF
:1002D0000101010303030303030303040707070CDE
:1002E0000C0C0C0C0C0C0C02020202060606060694
:1002F0000606060B0B0B0B0B0B0B0B010210202041
:100300000808102040102040800201020108040269
:1003100001010204081020408080402010080402DF
:100320000180040201804020100804020108040238
:10033000010102040810204080010204081020403E
:100340008000000A0B02090C0D0E080703040100CF
:10035000000000000000000000000000000000009D
:10036000000000000000000000000000001211105A
:10037000000000000000000000000000000000007D
:1003800000000000000000002C1C11241FBECFEF55
:10039000D1E2DEBFCDBF00E00CBF13E0A0E0B2E0D1
:1003A000E4E9F3E600E00BBF02C007900D92A43928
:1003B000B107D9F728E0A4E9B3E001C01D92A43148
:1003C000B207E1F711E0C5ECD1E000E006C02197EB
:1003D0000109802FFE010E94C32CC43CD10780E09C
:1003E0000807A9F70E94C31C0C94C83109CE8CBD24
:1003F0009DBD0895FC01818D928D0895089520E39F
:10040000FC0120833296862F82958F706F706A3040
:1004100030F4605D6293682F8111F5CF0895695CB7
:10042000F9CFDC01ED91FC910190F081E02D199460
:10043000EF92FF920F931F93CF93DF938C017B0179
:10044000D0E0C0E0F701EC0FFD1F6491662361F07E
:10045000D801ED91FC910190F081E02DC801199532
:10046000892B11F02196EECFCE01DF91CF911F9114
:100470000F91FF90EF900895AF92BF92CF92DF92CD
:10048000EF92FF920F931F93CF93DF936C017B0149
:100490008B01040F151FEB015E01AE18BF08C017DA
:1004A000D10759F06991D601ED91FC910190F0814D
:1004B000E02DC6011995892B79F7C501DF91CF9100
:1004C0001F910F91FF90EF90DF90CF90BF90AF9072
:1004D0000895FC01538D448D252F30E0842F90E04A
:1004E000821B930B541710F0CF960895019708952F
:1004F000FC01918D828D981761F0A28DAE0FBF2FF8
:10050000B11D5D968C91928D9F5F9F73928F90E04D
:1005100008958FEF9FEF0895FC01918D828D9817BC
:1005200031F0828DE80FF11D858D90E008958FEFF9
:100530009FEF0895FC01918D228D892F90E0805CC2
:100540009F4F821B91098F739927089585E197E04A
:10055000F1DF21E0892B09F420E0822F0895FC01CE
:10056000A48DA80FB92FB11DA35ABF4F2C91848D14
:1005700090E001968F739927848FA689B7892C9371
:10058000A089B1898C91837080648C93938D848DC4
:10059000981306C00288F389E02D80818F7D8083C7
:1005A0000895EF92FF920F931F93CF93DF93EC0187
:1005B00081E0888F9B8D8C8D98131AC0E889F9890A
:1005C000808185FF15C09FB7F894EE89FF8960830D
:1005D000E889F98980818370806480839FBF81E08E
:1005E00090E0DF91CF911F910F91FF90EF900895D0
:1005F000F62E0B8D10E00F5F1F4F0F731127E02EAB
:100600008C8D8E110BC00FB607FCFACFE889F989E3
:10061000808185FFF5CFCE01A2DFF2CFEB8DEC0F0D
:10062000FD2FF11DE35AFF4FF0829FB7F8940B8F17
:10063000EA89FB8980818062D0CFCF93DF93EC0180
:10064000888D8823B1F0AA89BB89E889F9898C91C2
:1006500085FD03C0808186FD0CC00FB607FCF7CF77
:100660008C9185FFF2CF808185FFEDCFCE0177DFC2
:10067000EACFDF91CF91089580E090E0892B21F0BF
:1006800065DF81110E94000080E090E0892B49F035
:1006900080E090E0892B29F00E94000081110E94E7
:1006A000000080E090E0892B49F080E090E0892B09
:1006B00029F00E94000081110E94000080E090E07B
:1006C000892B49F080E090E0892B29F00E940000FE
:1006D00081110C94000008958150823108F05AC0B5
:1006E000E82FF0E08827E858FC4F8F4F0C94C32C7C
:1006F00098039C038A0390039403CA039F03A503F2
:10070000A903AF03B303B703BD03C103CA03C50302
:10071000CB03CF03809180008F7780938000089572
:10072000809180008F7DF9CF80918000877FF5CF09
:1007300084B58F7784BD089584B58F7DFBCF80917C
:10074000B0008F778093B00008958091B0008F7DC6
:10075000F9CF809190008F778093900008958091D9
:1007600090008F7DF9CF80919000877FF5CF8091A9
:10077000A0008F778093A00008958091A0008F7DC6
:10078000F9CF8091A000877FF5CF809120018F77EE
:10079000809320010895809120018F7DF9CF809171
:1007A0002001877FF5CF1F93CF93DF93282F30E071
:1007B000F901EF5BFC4F8491F901E550FD4FD491B5
:1007C000F901EB54FD4FC491CC23A1F0162F8111F8
:1007D00083DFEC2FF0E0EE0FFF1FEC51FF4FA591F0
:1007E000B4918FB7F894EC91111108C0D095DE2325
:1007F000DC938FBFDF91CF911F910895DE2BF8CF4F
:10080000CF93DF9390E0FC01E550FD4F24918B5492
:100810009D4FFC0184918823C9F090E0880F991FB7
:10082000FC01E250FF4FA591B491FC01EC51FF4F48
:10083000C591D49161110DC09FB7F8948C9120950A
:1008400082238C938881282328839FBFDF91CF91B7
:100850000895623051F49FB7F8943C91822F8095AF
:1008600083238C93E8812E2BEFCF8FB7F894EC91F4
:100870002E2B2C938FBFEACF3FB7F8948091B10312
:100880009091B203A091B303B091B40326B5A89B95
:1008900005C02F3F19F00196A11DB11D3FBFBA2F12
:1008A000A92F982F8827BC01CD01620F711D811DD2
:1008B000911D42E0660F771F881F991F4A95D1F757
:1008C00008952F923F924F925F926F927F928F92F4
:1008D0009F92AF92BF92CF92DF92EF92FF920F93CF
:1008E0001F93CF93DF93C82F062F49015A01C4DF0E
:1008F0006B017C01D0E0CE018F5B9C4F2C01FE018F
:10090000E550FD4F3F01CB54DD4F10E0F2018491E3
:10091000F3013490FE012490222019F18111DCDED4
:10092000E22DF0E0EE0FFF1FE556FD4FA591B491CB
:100930008C91382231E020E009F430E0832F922FAF
:100940000817190789F498DF6C197D098E099F092A
:1009500086169706A806B906C8F660E070E0CB01D7
:1009600008C090E080E0ECCF87DF6C197D098E092C
:100970009F09DF91CF911F910F91FF90EF90DF9032
:10098000CF90BF90AF909F908F907F906F905F902F
:100990004F903F902F9008958F929F92AF92BF9269
:1009A000CF92DF92EF92FF924B015C0165DF6B010A
:1009B0007C0162DF6C197D098E099F09683E7340D6
:1009C00081059105B0F321E0821A9108A108B108D0
:1009D00088EEC80E83E0D81EE11CF11C811491043E
:1009E000A104B10431F7FF90EF90DF90CF90BF905A
:1009F000AF909F908F9008952FB7F8946091AD03BA
:100A00007091AE038091AF039091B0032FBF089512
:100A10000F931F93CF93DF93EC01EEDF6887798705
:100A20008A879B87E881F9810284F385E02DCE01D6
:100A3000199597FF14C0E0DF088519852A853B8545
:100A4000601B710B820B930B0C811D812E813F81EA
:100A5000601771078207930728F38FEF9FEFDF91ED
:100A6000CF911F910F910895CF93DF93EB01D0DFCA
:100A700097FD06C0888381E090E0DF91CF910895D3
:100A800090E080E0FACFFC0120812EBD9B01215037
:100A9000310941F051810DB407FEFDCF4EB55EBD69
:100AA0004193F5CF61507109860F971F0DB407FE72
:100AB000FDCF2EB5FC0120830895E091B603F0919F
:100AC000B70380819091B503892B80830895E091CD
:100AD000B603F091B70390818091B5038095892387
:100AE000808308958EBD00000DB407FEFDCF8EB546
:100AF0000895AF92BF92CF92DF92EF92FF920F9341
:100B00001F93CF93DF9300D000D01F921F92CDB7D9
:100B1000DEB78C017B016A01809114078333B1F445
:100B20005801A40EB51EA016B10609F463C0CFDFAC
:100B300080EFD8DF812FD6DF802FD4DF0F5F1F4FEC
:100B4000F70181917F01CEDFB8DFEDCF5B01A40E0D
:100B5000B51E8433A9F4BBDF19830A838D2D806809
:100B60008B83CC8264E070E0CE0101968CDFAE1402
:100B7000BF0409F43EC0F70181917F01B3DFF7CFD5
:100B8000A6DF0F3F110509F028F419820A8384E0DB
:100B90008B830CC017FD17C019820A8333E01695AA
:100BA00007953A95E1F7007E0C600B8386E0C81646
:100BB000D10490F5F701DE011496EA15FB0599F0D2
:100BC00081918D93FACFC80126E0969587952A9555
:100BD000E1F7807E19830A830115104C10F48461BB
:100BE000D7CF8C61D5CFB6016D5F7F4FCE01019617
:100BF0004ADF63DFC60128960FB6F894DEBF0FBE4A
:100C0000CDBFDF91CF911F910F91FF90EF90DF90BB
:100C1000CF90BF90AF90089563E070E0CE01019651
:100C200032DFF70181917F015DDFAE14BF04C9F7A8
:100C3000E0CFCF93DF931F92CDB7DEB7898341E03A
:100C400050E0BE016F5F7F4F90E080E052DF0F9079
:100C5000DF91CF91089590E020911407233339F468
:100C60000C96982F990F990F990F80E00895489648
:100C7000F8CFDA01E091B903F0E0FE2FEE27E60F9E
:100C8000F71F90E0982F8827A901BD018E0F9F1FA5
:100C900030CFCF93DF931F921F92CDB7DEB779830A
:100CA0006A8322E030E0AE014F5F5F4F60E170E0A9
:100CB000E0DF0F900F90DF91CF910895CF93DF93F6
:100CC0001F921F92CDB7DEB779836A8322E030E0AE
:100CD000AE014F5F5F4F64E070E0CBDF0F900F908D
:100CE000DF91CF910895CF93DF931F92CDB7DEB7F9
:100CF0002091B90330E0322F2227260F371F90E0D2
:100D0000982F8827498341E050E0BE016F5F7F4FF5
:100D1000820F931FEEDE0F90DF91CF910895CF9356
:100D2000DF931F92CDB7DEB76983DC01ED91FC91B3
:100D30000280F381E02D41E050E0BE016F5F7F4F04
:100D400019950F90DF91CF910895FC019485FB01D7
:100D50008485981303C081E0983008F080E00895FE
:100D6000CF93DF931F92CDB7DEB76983DC01ED919E
:100D7000FC910280F381E02D41E050E0BE016F5F05
:100D80007F4F19950F90DF91CF9108950895FF92AD
:100D90000F931F93CF93DF93EB01FC01178A168A01
:100DA0002A81211109C02B81211106C02C8121111A
:100DB00003C02D812223E9F041155105D1F08A01AC
:100DC000FC01F08C80E591E012DBAE014E5F5F4FDD
:100DD00024E030E06CE070E08F2D4BDFB8018F2D08
:100DE00058DF81E090E0DF91CF911F910F91FF904C
:100DF000089580E0F7CFFC01848595850895FC0176
:100E000084899589089528E932E0FC0131832083A3
:100E1000FB014089518962897389FC0142835383B4
:100E2000648375830895DC01ED91FC91048CF58D4C
:100E3000E02D199490E080E008958091A403811141
:100E40000BC01092A1031092A0031092A303109262
:100E5000A20381E08093A40380EA93E00895809147
:100E6000980381110BC01092950310929403109275
:100E700097031092960381E08093980384E993E0AE
:100E80000895DB01109749F0ED91FC9111970190C5
:100E9000F081E02DBC01CD01199490E080E008952F
:100EA0000F931F93CF93DF931F92CDB7DEB78C01C3
:100EB000FC01828181110AC0808191811982BE0169
:100EC0006F5F7F4FD1DD8981F8018283F8018281D4
:100ED0000F90DF91CF911F910F9108950F931F9362
:100EE000CF93DF931F92CDB7DEB78C01C801D8DF57
:100EF0008D3021F044F48950823048F4F801838128
:100F000082831382F3CF8032C9F38F3231F00F9096
:100F1000DF91CF911F910F910895F8018381811185
:100F20000AC0808191811982BE016F5F7F4F9CDD75
:100F30008981F8018383F80183818A3279F08F32C5
:100F400031F7F801838182831382C801A9DF8823E6
:100F5000F1F2C801A5DF8A30A1F7C8CF1382F801EA
:100F6000838182831382C8019BDF882381F2C801B9
:100F700097DF8A32A1F7F801838181110AC080814D
:100F800091811982BE016F5F7F4F6EDD8981F8010B
:100F90008383F80183818F3211F713821282A6CFE7
:100FA0001F93CF93DF93EC01162F98DFCE0178DFEC
:100FB000811308C08B818A831B8281E0DF91CF91EE
:100FC0001F91089580E0FACFFC0176876587089528
:100FD000DC01ED91FC91068CF78DE02D199591E0E7
:100FE00089270895862F089581E08627089521E0B6
:100FF000FC018485883008F020E0822F0895FB01F1
:1010000001900020E9F73197AF01461B570BDC0137
:10101000ED91FC910280F381E02D19948F929F92C3
:10102000AF92BF92EF92FF920F931F93CF93DF93F4
:10103000CDB7DEB7A1970FB6F894DEBF0FBECDBF18
:101040007C01FA01CB0119A2223008F42AE08E01BA
:101050000F5D1F4F822E912CB12CA12CBF01A50139
:1010600094010E94912BF901CA016A3004F5605D78
:10107000D8016E938D01232B242B252B79F790E03B
:1010800080E0109719F0BD01C701B9DFA1960FB636
:10109000F894DEBF0FBECDBFDF91CF911F910F91AE
:1010A000FF90EF90BF90AF909F908F900895695CF4
:1010B000DFCF8F929F92AF92BF92CF92DF92EF924B
:1010C000FF920F931F93CF93DF937C018B016C01F1
:1010D00082E0C80ED11C4701E5E08E0E911CD0E0E5
:1010E000C0E0F60141916F0150E070E060E02AE05D
:1010F000C80194DF5C016EE2C80193D98A0D9B1D83
:10110000C80FD91FC814D90461F7F701458150E011
:1011100070E060E02AE0C80181DF8C0F9D1FDF9145
:10112000CF911F910F91FF90EF90DF90CF90BF90E4
:10113000AF909F908F9008952F923F924F925F9221
:101140006F927F928F929F92AF92BF92CF92DF92D7
:10115000EF92FF921F93CF93DF93EC016A017B0123
:10116000722EAB019601CB01B6010E94BF2C6AE939
:1011700072E0811126C046015701E894B7F82FEFBD
:101180003FEF4FE75FE7C501B4010E94BF2C81111B
:101190000CC02FEF3FEF4FE75FE7C501B4010E949E
:1011A0004C2A6EE972E0181664F02FEF3FEF4FE71C
:1011B0005FE4C701B6010E94BB2C1816ACF462EACA
:1011C00072E0CE01DF91CF911F91FF90EF90DF9001
:1011D000CF90BF90AF909F908F907F906F905F90D7
:1011E0004F903F902F900BCF2FEF3FEF4FE75FECEB
:1011F000C701B6010E944C2A87FDE1CF20E030E014
:10120000A901C701B6010E944C2A312C212C87FF6D
:1012100008C06DE2CE0105D91C01F7FAF094F7F889
:10122000F09410E060E070E080E09FE3711641F020
:1012300020E030E040E251E40E94272C1F5FF6CF0F
:10124000A70196010E94C32B2B013C010E948F2C09
:101250004B015C012AE0BC01A401CE01DFDE7C0170
:10126000E20CF31C1123B1F1C501B4010E94502A14
:101270009B01AC01C301B2010E94C22B4B015C0176
:101280006EE2CE01CED8E80EF91E115018F120E022
:1012900030E040E251E4C501B4010E94B12A2B01C3
:1012A0003C010E948F2C4B01B12CA12C2AE0B501EE
:1012B000A401CE01B3DEE80EF91EC501B4010E94FF
:1012C000502A9B01AC01C301B2010E94C22B4B0109
:1012D0005C01DBCFC701DF91CF911F91FF90EF90B1
:1012E000DF90CF90BF90AF909F908F907F906F9046
:1012F0005F904F903F902F9008950F931F93CF933F
:10130000DF938C01D0E0C0E06115710511F077DE4C
:10131000EC0161E973E0C80172DE8C0F9D1FDF9163
:10132000CF911F910F9108950F931F93CF93DF9348
:10133000EC017ED88C0161E973E0CE0160DE800FA4
:10134000911FDF91CF911F910F9108956115710544
:1013500009F055CE90E080E00895AF92BF92CF9211
:10136000DF92EF92FF920F931F93CF93DF9300D002
:101370001F92CDB7DEB78C016B017A018091140703
:101380008333B9F45B016801C40ED51EC016D106C3
:1013900059F19DDB8FE0A6DB812FA4DB802FA2DB40
:1013A0000F5F1F4F80E09EDBF50181935F0185DBBE
:1013B000EDCF843349F58BDB19830A838F2D8F772B
:1013C0008B83EC8264E070E0CE0101965CDBA701C8
:1013D00070E060E0C6010E94E92EE114F10419F00A
:1013E000B701C60150DB69DBC7010F900F900F906A
:1013F0000F90DF91CF911F910F91FF90EF90DF90B1
:10140000CF90BF90AF90089562DB0F3F110509F0B8
:1014100030F419820A831B8263E070E0D5CF17FD98
:101420000BC019820A8333E0169507953A95E1F7C8
:10143000007E08600B83F0CFC80126E09695879563
:101440002A95E1F7807E19830A830115104C18F460
:1014500080618B83E1CF8861FCCFCF93DF931F92B4
:10146000CDB7DEB72091B90330E0322F2227260F07
:10147000371F90E0982F882741E050E0BE016F5F52
:101480007F4F820F931F69DF89810F90DF91CF918A
:101490000895CF93C82F462F61E070E024DC61E00F
:1014A00070E08C2FDADF8111FACFCF910895CF93BE
:1014B000C82F80E591E00E94F70168E070E08C2F72
:1014C000CF91E7CFCF93C82F80E591E00E94F7013D
:1014D00060E170E08C2FCF91DCCFCF93DF93EC01F4
:1014E000888D883018F4EEDF88E0888FDF91CF9107
:1014F0000895CF93C82F80E591E00E94F70163E043
:1015000070E08C2FCF91A9CFCF93DF93EC018C8526
:101510008830C8F4EEDF843189F0882379F088318F
:1015200069F021E08C3159F4E881F9810084F1857A
:10153000E02DCE01199521E0892B09F420E0822FBE
:10154000DF91CF91089580E0FBCFCF92DF92EF92B1
:10155000FF92CF93DF93EC018C85883050F4A7DFA6
:101560004BDA6B017C018C85C4DF811109C088E0F6
:101570008C87DF91CF91FF90EF90DF90CF9008950F
:1015800061E070E080E090E007DA36DAAB01BC01A0
:101590004C195D096E097F098D859E85B0E0A0E03C
:1015A000481759076A077B07F0F28C858BDFDFCF7E
:1015B000CF93FC01C08D80E591E00E94F70160E2CD
:1015C00070E08C2F66DF62E070E08C2F46DF84FDD8
:1015D00014C062E070E08C2F40DF83FF09C048E157
:1015E00062E070E08C2F7FDB80E090E0CF91089587
:1015F00080E591E00E94F701E6CF40E162E070E013
:101600008C2F71DB81E0F1CFCF93DF931F92CDB7A9
:10161000DEB741E050E0BE016F5F7F4F90E080E0B9
:101620009CDE89810F90DF91CF910895CF93DF9356
:10163000C4E1D0E0E9DF882359F061E070E080E0A8
:1016400090E0AAD92197B1F780E0DF91CF9108957A
:1016500081E0FBCF1F93CF93DF931F92CDB7DEB70F
:10166000182F80E591E00E94F701812FF4DA27E03E
:10167000129FF0011124E452F94F22813381377017
:1016800041E050E0BE016F5F7F4F820F931F65DE28
:1016900089810F90DF91CF911F910895FC01808D7A
:1016A000883038F4218D328D232B19F0D3DF90E070
:1016B00008958FEF9FEF0895CF93DF93FC0124856A
:1016C000283028F08FEF9FEFDF91CF910895EC0144
:1016D0000190F081E02D0084F185E02D1995892B92
:1016E00089F38C85B7DF90E0EFCFDA01E091B903A1
:1016F000F0E0FE2FEE27E60FF71F90E0982F8827E7
:10170000A901BD018E0F9F1F28CE8F929F92AF928D
:10171000BF92CF92DF92EF92FF920F931F93CF93DE
:10172000DF93CDB7DEB760970FB6F894DEBF0FBE7C
:10173000CDBF7C0190911407911115C018E0812F45
:1017400060960FB6F894DEBF0FBECDBFDF91CF918C
:101750001F910F91FF90EF90DF90CF90BF90AF90CF
:101760009F908F90089508E0933309F404E06B0193
:1017700080E591E00E94F7019E012F5F3F4F5901E4
:10178000490110E063E070E0812F67DEF40181938E
:101790004F018823B9F01F5F0113F4CF00E0F5017A
:1017A00081915F018D3149F0883139F08A51823061
:1017B00020F00F5F1013F3CFC1CF60E170E0802FF6
:1017C00068DE102FA12EB12C83EE93E00197F1F784
:1017D00042E870E060E0812F86DA4FEF62E070E06F
:1017E000812F81DAB601C114D10491F480911202E3
:1017F0009091130201968115F0EC9F0708F456C0F2
:10180000909313028093120260911202709113025E
:10181000812F54DA86E0EEE1F2E0DE0119960190C4
:101820000D928A95E1F7F70183818F778C87848108
:101830008D8785818E87A7014E5F5F4F24E030E062
:101840006CE070E0812F15DAB601812F22DA26E0F4
:1018500030E0AE01475F5F4F66E070E0812F09DA4C
:1018600061E070E0812F15DE27E02A9DC0012B9DED
:10187000900D11249C012452394F7901F9011182F4
:10188000108222E030E0AE01415F5F4F68E270E01D
:10189000812F2BDF8F859889982789279827F70133
:1018A0009383828316821582148249CF80E090EC64
:1018B000A7CFCF92DF92EF92FF920F931F93CF9318
:1018C000DF9300D000D0CDB7DEB78C016B017A0179
:1018D000FC01808D883008F4F5DD88E992E09A8378
:1018E0008983F60182819381A481B5818B839C8356
:1018F000AD83BE83B701CE01019607DFF801808F6B
:101900008830A0F4F586E486128E118E81E026964A
:101910000FB6F894DEBF0FBECDBFDF91CF911F9100
:101920000F91FF90EF90DF90CF90089580E0EFCF80
:101930007F928F929F92AF92BF92CF92DF92EF925F
:10194000FF920F931F93CF93DF931F921F92CDB7F8
:10195000DEB7782E8B014A01590122E030E0AE015A
:101960004F5F5F4F64E270E0C0DEE980FA80FE24E2
:10197000EF24FE24E00EF11E97013770409114070A
:10198000072D10E0433309F03FC0085F1F4F102FB1
:101990000027110F110F110FC901800F911F47333D
:1019A000B1F1A9014A0D5B1D4130584080F160E062
:1019B00078E06B01C21AD30AA601B4019AD8A50136
:1019C0004C195D09B4016C0D7D1DC80192D8EA0C5B
:1019D000FB1CF982EA8222E030E0AE014F5F5F4FEC
:1019E00064E270E0872D45D90F900F90DF91CF9181
:1019F0001F910F91FF90EF90DF90CF90BF90AF902D
:101A00009F908F907F900895005F1F4FC0CFA501DA
:101A1000B401DCCFEF92FF921F93CF93DF931F921D
:101A20001F92CDB7DEB7182F22E030E0AE014F5F36
:101A30005F4F60E270E059DEE980FA80FE24EF2417
:101A4000FE2422E030E0AE014F5F5F4F60E270E0C5
:101A5000812F4BDE89819A81982789279827E8165C
:101A6000F90689F487E0189FF0011124E452F94F38
:101A7000F582E482C7010F900F90DF91CF911F9103
:101A8000FF90EF9008957C01DCCF1F93CF93DF93FD
:101A9000182F80E591E00E94F701812FBBDFEC0158
:101AA00063E070E0812FD9DC873121F08C3111F0B7
:101AB000D0E0C0E0CE01DF91CF911F910895CF9388
:101AC000DF93EC018C85883050F413DD873111F001
:101AD0008C3129F48C85D9DF8115984098F3DF91FA
:101AE000CF910895FC018485883008F4CECF90E032
:101AF00080E008959F92AF92BF92CF92DF92EF92D3
:101B0000FF920F931F93CF93DF938C015B01942E71
:101B1000E52EFC01C688D788F08C80E591E00E9414
:101B2000F7018F2D77DFC92DDE2D8C179D0708F467
:101B3000EC019E01A501B6018F2DFADEF801868920
:101B400097898C0F9D1F978B868BCE01DF91CF914C
:101B50001F910F91FF90EF90DF90CF90BF90AF90CB
:101B60009F9008958F929F92AF92BF92CF92DF92F3
:101B7000EF92FF920F931F93CF936C015B018A0149
:101B8000FC01C485C830C0F57A014130584018F0D6
:101B9000E12C88E0F82E80E591E00E94F7018C2F7F
:101BA00039DF4C0163E070E08C2F57DC873111F096
:101BB0008C3129F58E149F0470F380E591E00E942A
:101BC000F7019701A50170E060E08C2FB1DE60E2C3
:101BD00070E08C2F5EDC62E070E08C2F3EDC84FDD8
:101BE00016C063E070E08C2F38DC81110BC081E0FF
:101BF00090E0F6019383828310E000E00FC0F12CA7
:101C0000E12CDBCF80E591E00E94F701E4CF40E1D9
:101C100062E070E08C2F67D8EF2849F3C801CF91BC
:101C20001F910F91FF90EF90DF90CF90BF90AF90FA
:101C30009F908F900895FF920F931F93CF93DF9300
:101C40001F921F92CDB7DEB7F82E22E030E0AE0132
:101C50004F5F5F4F66E270E048DD09811A8110270F
:101C60000127102722E030E0AE014F5F5F4F66E2B0
:101C700070E08F2D3ADD89819A81982789279827EE
:101C80000817190749F4C8010F900F90DF91CF9101
:101C90001F910F91FF9008958C01E4CF1F93CF9374
:101CA000DF93182F87E0189FE0011124C452D94F09
:101CB00088819981009759F480E591E00E94F701AD
:101CC000812FB9DF2E81821B910999838883DF914F
:101CD000CF911F910895FC018485883008F4DECFF0
:101CE00090E080E008954F925F927F928F929F9252
:101CF000AF92BF92CF92DF92EF92FF920F931F931A
:101D0000CF93DF931F921F92CDB7DEB7782E6B0172
:101D10004A01A82EB12C27E0829FC0011124FC01AA
:101D2000E452F94F7F010081118180E591E00E942A
:101D3000F701081519054CF4872D7DDFF701268181
:101D40008C01021B1109118300830115110521F576
:101D500063E070E0872D81DB843159F0882349F0FE
:101D600001E010E08C3111F410E000E011950195D4
:101D70001109C8010F900F90DF91CF911F910F9122
:101D8000FF90EF90DF90CF90BF90AF909F908F909B
:101D90007F905F904F900895801691060CF4840117
:101DA00087E08A9DF0018B9DF00D1124E452F94FDC
:101DB000E280F380C114D10441F12701F7E05F22F2
:101DC000872D0E942B06840D951D20911407273323
:101DD00009F450C09801240D351D2130384008F415
:101DE00049C020E038E0490184189508A401B601F3
:101DF000B4DA2601480C591C6801C818D908872D87
:101E00000E942B06A601B201A8DAE00EF11E87E0BF
:101E10008A9DF0018B9DF00D1124E452F94FF3825D
:101E2000E28220813181201B310B31832083868126
:101E3000800F912F911D8A3F910510F4232BE9F417
:101E400087E08A9DF0018B9DF00D1124E452F94F3B
:101E50001682F982EA8222E030E0AE014F5F5F4FE6
:101E600068E270E0872D0E94390660E470E0872DFB
:101E700010DB7FCFA801B601C7CF86837ACFCF937F
:101E8000DF93FC01218D328D2115310529F48FEF6F
:101E90009FEFDF91CF910895EC01808D421753079A
:101EA00008F0A90120DF181619068CF7298D3A8D44
:101EB000281B390B3A8F298FECCF0F931F93CF93A9
:101EC000DF931F92CDB7DEB7FC01218D328D232B1E
:101ED00041F48FEF9FEF0F90DF91CF911F910F9102
:101EE00008958C0141E050E0BE016F5F7F4FFC011F
:101EF000808DF9DE1816190664F7F801818D928D30
:101F00000197928F818F898190E0E5CFCF93DF9306
:101F10001F92CDB7DEB741E050E0BE016F5F7F4F4B
:101F2000FC018485E0DE1816190634F4898190E0FE
:101F30000F90DF91CF9108958FEF9FEFF9CFFC01C4
:101F40008485883008F4CFCE90E080E008958F92A9
:101F50009F92AF92BF92CF92DF92EF92FF920F9338
:101F60001F93CF93DF9300D000D000D01F92CDB746
:101F7000DEB790911407911115C018E0812F2A96B1
:101F80000FB6F894DEBF0FBECDBFDF91CF911F918A
:101F90000F91FF90EF90DF90CF90BF90AF909F9008
:101FA0008F90089528E0F22E933311F494E0F92EE7
:101FB0006B01082F80E591E00E94F7019E012F5FE1
:101FC0003F4F5901490110E063E070E0812F45DA8D
:101FD000F40181934F018823B9F01F5FF112F4CF10
:101FE000F12CF50191915F019D3149F0983139F063
:101FF0009A51923020F0F3941F11F3CFBECF60E1DD
:1020000070E08F2D46DA1F2DE12EF12C83EE93E048
:102010000197F1F7402F70E060E0812F0E94730676
:102020004FEF62E070E0812F0E947306B601CD2869
:1020300089F4809112029091130201968115F0ECBF
:102040009F0788F19093130280931202609112020D
:1020500070911302812F0E945E0661E070E0812F73
:1020600018DA27E02E9DC0012F9D900D11249C01B0
:102070002452394F7901F9011182108222E030E0B7
:10208000AE01475F5F4F68E270E0812F2EDB8985EC
:102090009A85982789279827F70193838283168248
:1020A000158214826BCF80E090ECCCCF0F931F93FE
:1020B000CF93DF93EC018B01888D883008F402DA2E
:1020C000B80182E044DF888F883050F41D870C8788
:1020D0001A8E198E81E0DF91CF911F910F91089593
:1020E00080E0F9CFCF92DF92EF92FF921F93CF93D0
:1020F000DF93EC017B016A018C85883038F4F9D9D3
:10210000882311F08C85D3D988E08C87F7018281F0
:102110009381A481B5810097A105B10551F490E0A8
:1021200080E0DF91CF911F91FF90EF90DF90CF90F3
:1021300008958F3F9F4FAF4FBF4F89F370E060E02E
:1021400081E205DF182F8C87883048F780E591E021
:102150000E94F701A7014E5F5F4F24E030E06CE082
:1021600070E0812F0E943906B601812F0E94490636
:1021700064E070E0812F8DD90E94FC046B017C012A
:102180008C85B7D9873109F18C31F9F0882339F280
:102190000E94FC04AB01BC014C195D096E097F096A
:1021A0008D859E85B0E0A0E084179507A607B70748
:1021B00038F061E070E080E090E00E94CC04E0CF75
:1021C0008C8580D988E08C87AACF81E090E0A9CF68
:1021D0000F931F93CF93DF931F921F92CDB7DEB75C
:1021E000FC0124852830D8F48C0180E591E00E9420
:1021F000F70122E030E0AE014F5F5F4F60E170E039
:10220000F801848572DA89819A819827892798272D
:102210000F900F90DF91CF911F910F91089590E053
:1022200080E0F6CF0F931F93CF93DF931F921F92FF
:10223000CDB7DEB7FC0124852830D8F48C0180E5C9
:1022400091E00E94F70122E030E0AE014F5F5F4F66
:1022500064E070E0F801848548DA89819A819827E2
:10226000892798270F900F90DF91CF911F910F91A1
:10227000089590E080E0F6CFDC0188E992E08D934C
:102280009D9384E0FB0101900D928A95E1F70895FA
:10229000EF92FF920F931F93CF93DF9300D01F9283
:1022A000CDB7DEB78C017B01FB0184858830A8F0B7
:1022B00088E992E0F801918380831282138214826C
:1022C0001582C8010F900F900F900F90DF91CF9162
:1022D0001F910F91FF90EF90089580E591E00E948B
:1022E000F70124E030E0AE014F5F5F4F6CE070E03B
:1022F000F7018485FAD9BE016F5F7F4FC801BCDF4B
:10230000E0CF0F931F93CF93DF9300D000D01F92A5
:102310001F92CDB7DEB78C01D80159964D915C91D3
:102320005A974115510551F0ED91FC91048CF58DB2
:10233000E02D70E060E0C8011995EECFF801808DC6
:10234000ADDC892BA9F148E050E0BE016F5F7F4F03
:10235000D80158968C91C7DC18161906F4F4D801E8
:10236000509684E0FE01319601900D928A95E1F736
:102370008D8190E0982F88272E81820F911DF80182
:10238000958B848B8F81282F30E0322F22278885F0
:10239000820F932F911D928F818F28960FB6F894FC
:1023A000DEBF0FBECDBFDF91CF911F910F9108957A
:1023B00090E080E0F2CF4F925F926F927F928F9287
:1023C0009F92AF92BF92CF92DF92EF92FF920F93C4
:1023D0001F93CF93DF93CDB7DEB763970FB6F89413
:1023E000DEBF0FBECDBF7C016B013A01FB0120E0D7
:1023F00090E080E06AE03191332309F45FC040ED62
:10240000430F4A3008F04BC0689FA001699F500DF0
:102410001124CA01C097830F911D37FD9A958F3FF4
:10242000910549F340F3F70142815381648175813D
:102430008091DE079091DF07A091E007B091E1075E
:10244000481759076A077B0709F4F2C18701085F3B
:102450001F4F0E94FC046F7077277C5FC80126DE47
:10246000813009F0EAC188E992E09A838983F70113
:1024700082819381A481B5818B839C83AD83BE834C
:1024800045E350E0BE016F5F7F4FC8010E94C70661
:10249000892BA1F5D12CC12CC8011FD817C03E3201
:1024A00009F0C1CF233009F4BECFD301A20FB11D73
:1024B00012968C932F5F90E080E09DCF233009F03F
:1024C000B2CFF3018583CC24C394D12CC60163968B
:1024D0000FB6F894DEBF0FBECDBFDF91CF911F9135
:1024E0000F91FF90EF90DF90CF90BF90AF909F90B3
:1024F0008F907F906F905F904F9008950E94FC04A2
:10250000F7017783668342E050E0B7016A5F7F4F4F
:10251000C801F0DA81E090E09A83898342E050E0DC
:10252000BE016F5F7F4FC801E5DA80E091E09A83DA
:10253000898342E050E0BE016F5F7F4FC801DADA65
:102540001A82198242E050E0BE016F5F7F4FC801DE
:10255000D1DA42E050E0BE016F5F7F4FC801CADAB6
:1025600042E050E0BE016F5F7F4FC801C3DA560101
:10257000F60180818823F1F06501F60181912F0138
:10258000882311F08E32A1F446018A189B08181492
:10259000190464F48D8641E050E0BE01635F7F4F13
:1025A000C801A8DAA401B501C801A4DA5201E0CF3C
:1025B0006201E3CF1D8641E050E0BE01635F7F4FC3
:1025C000C80198DAC12CDD24D394DA82C98242E0B2
:1025D00050E0BE016F5F7F4FC8018CDADA82C9829A
:1025E00042E050E0BE016F5F7F4FC80183DAC8014F
:1025F0000E94D80A892B09F44DCFF3E0AF2EB12CFD
:10260000230122E0420E511CC9C0F70142815381CF
:1026100064817581808D918DA28DB38D4817590786
:102620006A077B0709F0FAC0848D958DC59709F07C
:10263000F5C081A192A15DEFC52EDD24DA940C973F
:102640000CF4A2C04CE050E0BE016F5F7F4FC801A8
:1026500016DC8B819C819827892798279A8B898BF8
:10266000F7014681578129813A814217530709F0C2
:10267000DAC097FFD8C08F7092703BEFC32EDD2475
:10268000DA94892B09F080C06F80788476246724DF
:1026900076242AEFC22EDD24DA946114710409F441
:1026A00073C0D12CC12C8D819E81982789279827B2
:1026B000C816D906E0F441E050E0BE01635F7F4FE9
:1026C000C801DDDB4D85442329F050E070E060E077
:1026D000C801D5DB8D858111EECF44E050E070E07C
:1026E00060E0C801CCDBFFEFCF1ADF0ADCCF912C12
:1026F000812C41E050E0BE016D5E7F4FC801BFDB21
:102700004B89842F807C09F065C0442329F050E078
:1027100070E060E0C801B3DB8B898111EACF42E051
:1027200050E0BE01615F7F4FC801A9DB42E050E08D
:10273000BE01635F7F4FC801A2DB44E050E070E060
:1027400060E0C8019CDB42E050E0BE016F5E7F4F5D
:10275000C80195DB8F85988949895A8981159140EF
:1027600009F040C0CD84DE84DC24CD24DC2481E06B
:10277000C816D104B9F54115544009F046C044E0EB
:1027800050E0B201C8017BDB21E0A21AB10809F4D4
:1027900083CEFFEFCF16DF0609F07ECE0E94FC0449
:1027A0003B014C01C801ADDD181619060CF42DCF04
:1027B0000E94FC04661977098809990969387341F0
:1027C0008105910538F562E370E080E090E00E94B9
:1027D000CC04E8CF41E050E070E060E0C8014FDB9E
:1027E0001B8A9ACF54274527542770E060E0C80120
:1027F00046DBFFEF8F1A9F0A6814790409F079CF3E
:1028000096EFC92EDD24DA94BFCFE7EFCE2EDD247C
:10281000DA94BACFCC24CA94DC2CB6CF6EEFC62E95
:10282000DD24DA94B1CF4CEFC42EDD24DA94ACCFA2
:102830008EEFC82EDD24DA9449CED12CC12C46CEA1
:10284000CF92DF92EF92FF920F931F93CF93DF937C
:10285000CDB7DEB7AF970FB6F894DEBF0FBECDBFD2
:102860007C016A0108E912E01A8309831C861B8631
:1028700088EE93E0A0E0B0E08D879E87AF87B88BAD
:1028800088E292E09A878987188F0F8B198E1A8EAB
:102890001B8E1C8E88E089A31BA70AA71CA61DA659
:1028A0001EA61FA68091D2079091D307A091D407AE
:1028B000B091D5078EA39FA3A8A7B9A78B839C83AC
:1028C000AD83BE8318861F82AE01465D5F4FCE0189
:1028D000019671DD81309105B1F4D701ED91FC9144
:1028E0000488F589E02D1DA30CA38CA59DA5AEA59C
:1028F000BFA58EA39FA3A8A7B9A7A601BE016C5D23
:102900007F4FC7011995AF960FB6F894DEBF0FBE83
:10291000CDBFDF91CF911F910F91FF90EF90DF908E
:10292000CF900895CF92DF92EF92FF920F931F9373
:10293000CF93DF93CDB7DEB7AF970FB6F894DEBF76
:102940000FBECDBF8C016B017A0188E992E09A83BA
:1029500089831B821C821D821E821C861B8648EE78
:1029600053E060E070E04D875E876F87788B28E2E8
:1029700032E03A872987988F8F8B198E1A8E1B8E9B
:102980001C8E28E029A39BA78AA71CA61DA61EA60D
:102990001FA6D8011C968C91883060F40E94790A99
:1029A000882321F0F80184850E94570A88E0D80125
:1029B0001C968C938091D2079091D307A091D40755
:1029C000B091D5078EA39FA3A8A7B9A78B839C839B
:1029D000AD83BE8318861F82AE01465D5F4FB60190
:1029E000CE010196E8DC0097C1F0D801ED91FC9191
:1029F0000684F785E02D88E992E09DA38CA38CA541
:102A00009DA5AEA5BFA58EA39FA3A8A7B9A7A70103
:102A1000BE016C5D7F4FC8011995AF960FB6F89453
:102A2000DEBF0FBECDBFDF91CF911F910F91FF9001
:102A3000EF90DF90CF9008957F928F929F92AF9208
:102A4000BF92CF92DF92EF92FF920F931F93CF939B
:102A5000DF93CDB7DEB7A6970FB6F894DEBF0FBEF3
:102A6000CDBF8C01762E942E852E20E2A22ECE0193
:102A700001967C01DC01EA2D1D92EA95E9F76801D7
:102A8000F3E4CF0ED11C88E992E09AA389A38FEFDB
:102A90008BA38CA38DA38EA343E450E0BE016F5D96
:102AA0007F4FC6010E94C706019609F4BEC081E0AF
:102AB00089838A8386E0B82EBB821C82D801149653
:102AC0006D917D918D919C9117970E94CB2C6D8378
:102AD0007E838F83988789869A8680E890E09C879A
:102AE0008B874CE150E0B701C60104D8FE01379650
:102AF0008AE1DF011D928A95E9F74801B8E08B0E63
:102B0000911CF401D70101900D92BA94E1F740E1D4
:102B100050E0B701C6010E947A0DF7011192AA9404
:102B2000E9F796E0A92EB12C40E250E0B701C601CA
:102B30000E947A0DF1E0AF1AB108B1F783E68983FC
:102B400092E89A8393E59B838C8385E38D8381E070
:102B50008E837F829DE3988797E099878A8786E0B6
:102B6000F401DE011B9601900D928A95E1F78CE04D
:102B7000898B8A8B66EA72E0CE0143960E94F92E19
:102B8000D8011B966C91CE0149960E94FF01F80175
:102B90006485CE014B960E94FF01D8011D966C9171
:102BA000CE014D960E94FF014EE150E0B701C601F3
:102BB0000E947A0DB3E07B121EC082E3898384E019
:102BC0008A83F80196859B8397859C8390899D8352
:102BD00091899E8396E39F838887828D8987838DE1
:102BE0008A87848D8B87858D8C874CE050E0B70178
:102BF000C6010E947A0D87E3898386E08A8391E08B
:102C00009B8393E09C838D838FE08E838AE38F8305
:102C10008BE388878FEF898749E050E0B701C601D1
:102C20000E947A0DC6010E94D80AA6960FB6F894A3
:102C3000DEBF0FBECDBFDF91CF911F910F91FF90EF
:102C4000EF90DF90CF90BF90AF909F908F907F904C
:102C500008950F931F93CF93DF93EC01888199819F
:102C6000009759F02A813B812617370730F081E021
:102C7000DF91CF911F910F9108958B016F5F7F4F6F
:102C80000E94F72D009759F0998388831B830A834C
:102C90002C813D81232B59F7FC011082E8CF80E085
:102CA000E7CFCF92DF92EF92FF920F931F93CF93D4
:102CB000DF9300D01F92CDB7DEB77C01862F4AE0AC
:102CC0009E012F5F3F4F6901B90190E00E94192AD0
:102CD000F60101900020E9F73197EC19FD09D1F0D8
:102CE000D70114960D911C910E0F1F1FB801C7013B
:102CF000B0DF882381F0F7012081318184819581C3
:102D0000B601820F931F0E94F92ED70115961C93CE
:102D10000E93149781E00F900F900F900F90DF911A
:102D2000CF911F910F91FF90EF90DF90CF9008957A
:102D30003F924F925F926F927F928F929F92AF924B
:102D4000BF92CF92DF92EF92FF920F931F93CF9398
:102D5000DF93CDB7DEB7EA970FB6F894DEBF0FBEAC
:102D6000CDBF7C012A013B0169010E94FC044B019B
:102D70005C0187010D5B1F4FC801C3DA18161906E5
:102D80009CF00E94FC04681979098A099B0946167F
:102D900057066806790608F462C162E370E080E0D5
:102DA00090E00E94CC04E8CF42E250E0BE016F5FA9
:102DB0007F4FC80164D889818230D1F0312C832DB6
:102DC000EA960FB6F894DEBF0FBECDBFDF91CF916C
:102DD0001F910F91FF90EF90DF90CF90BF90AF9039
:102DE0009F908F907F906F905F904F903F9008954D
:102DF000F801848995898334910501F76D817E817D
:102E00008F8198850E94CB2C4B015C01F60180825A
:102E10009182A282B38246E050E0B701685F7F4FA3
:102E2000CE014D960E94D32E892B41F6F701808169
:102E30009181A281B38188169906AA06BB0608F47F
:102E4000BDCF84819581A681B78188159905AA0592
:102E5000BB0508F4B3CF89899A89AB89BC89868779
:102E60009787A08BB18B4EEC50E070E060E0C8011A
:102E700006D8312CC701829698AB8FA7F701B6967A
:102E8000FAABE9AB08969CAB8BAB67019AE1C90E34
:102E9000D11CBD96FEABEDABC701429698AF8FAB90
:102EA000FD97FAAFE9AF4701FEE18F0E911CF801E3
:102EB000818D928D181619060CF081CFC8010E94E1
:102EC0005D0F8333910509F4B0C014F5813091058D
:102ED00009F462C044F4892B51F3C8010E945D0FCC
:102EE000AC01552773C08330910509F460C0069783
:102EF000A1F7C8010E945D0FB82E44E050E0B40174
:102F0000C8010E943F0FEB2DE450FF0BAF015EC0E4
:102F10008A33910509F45DC074F585339105A1F1FB
:102F2000C697D9F6C8010E945D0F5C01B601CE01BB
:102F30008996A2D98BA59CA5ADA5BEA5892B8A2B68
:102F40008B2BA9F0EDA9FEA940805180628073808F
:102F5000B601CE01839690D98DA19EA1AFA1B8A54F
:102F6000A501481659066A067B0609F0BACF44E067
:102F700050E0B60118C08B33910509F440C08F3F73
:102F8000910509F494CFA9CFC8010E945D0FC80133
:102F90000E945D0F382E8BCFC8010E945D0F44E068
:102FA00050E06FA978ADC8010E943F0F80CFC801E3
:102FB0000E945D0FB82E44E050E069AD7AADC801C3
:102FC0000E943F0F8B2D8450990BAC0170E060E0A4
:102FD000EACFC8010E945D0F44E050E069A97AA9D8
:102FE000C8010E943F0FF70166A177A180A591A5B6
:102FF0000E94CB2C66A377A380A791A758CFC801C6
:103000000E945D0F44E050E06BA97CA9C8010E94BA
:103010003F0FF70162A573A584A595A50E94CB2C4F
:1030200062A773A784A795A742CFC8010E945D0F2E
:1030300044E050E06FA578A9C8010E943F0FF70156
:1030400062A173A184A195A10E94CB2C62A373A35A
:1030500084A395A366A777A780AB91AB28CF332431
:103060003A94ADCE0F931F93CF93DF938B01FC0166
:10307000C281D381209759F06A817B8101151105A6
:1030800019F06115710549F46017710759F4CE0103
:10309000DF91CF911F910F910895C8010E94F02EEA
:1030A000892BA9F30990D881C02DE4CF0F931F93EA
:1030B000CF93DF93D7DFEC01892BE1F00C811D81E9
:1030C0000130110559F46E817F816115710531F070
:1030D0008DEA92E00E94F02E892B61F001501109D7
:1030E0000230110538F48E819F81DF91CF911F91BD
:1030F0000F91089590E080E0F8CFCF92DF92EF92A9
:10310000FF920F931F93CF93DF938C017B01DC0120
:103110001596CD91DC916E01C617D70708F46B01A7
:10312000C60106960E94D22CFC0190E080E0309708
:10313000B9F0D382C282D80113968D919C911497D5
:10314000918380831496FC93EE931397CC0FDD1F2D
:103150001696DC93CE931597CF010696F582E482FE
:10316000DF91CF911F910F91FF90EF90DF90CF9063
:103170000895DC011396ED91FC91309789F044811C
:1031800055819B01240F351FA281B381A217B3077C
:1031900038F0CF010696840F951F35832483089558
:1031A000ACCFFF920F931F93CF93DF93EC01F62EDA
:1031B00088819981DC011396ED91FC91309701F1A2
:1031C000448155819A012F5F3F4F6281738162175D
:1031D0007307B0F0DF011696A40FB51F3583248363
:1031E000FC928C819D81892BD9F08C819D810196E7
:1031F0009D838C83DF91CF911F910F91FF90089554
:103200006C817D816F5F7F4F78DF8C016A817B816C
:103210006115710541F4892B61F41B830A83E5CFA5
:10322000BB83AA83E2CF0097C1F34C815D810E94EA
:10323000E02EEC81FD81E00FF11FF082EECFCF9206
:10324000DF92FF920F931F93CF93DF9300D000D0B4
:10325000CDB7DEB78C01FC01868197819A83898383
:103260001C821B821E821D826801F2E0CF0ED11CDF
:10327000C6010E946E07C6010E945007F82E87E221
:10328000F81619F0E2E2FE122BC0F8018581848362
:103290001582C6010E945007882309F444C0F80132
:1032A000958194831582F81609F43DC08C3589F414
:1032B000C6010E945007E6EBF2E09081992319F0D5
:1032C00089130CC08181882371F1F8019581948361
:1032D0001582682FCE01019664DFDBCF3296EDCFE9
:1032E000FFE2FF15A4F589E38F1534F4EEE5EF1541
:1032F00084F4FAE7FF1584F0F80185818483158250
:103300006F2DCE0101964DDFC6010E945007F82EA9
:10331000E7CF80E48F15DCF4EAE5EF156CF783ED79
:103320008F0D823048F360E0CE0101963ADF8B8149
:103330009C8126960FB6F894DEBF0FBECDBFDF91FD
:10334000CF911F910F91FF90DF90CF900895FBE2F6
:10335000FF12E5CFD1CFAF92BF92CF92DF92EF9223
:10336000FF920F931F93CF93DF9300D000D0CDB780
:10337000DEB77C01DC0118968C91811104C00E949B
:103380001D078C0185C08150F7018087C080D180E6
:10339000B60184E090E00E9441078C01009709F497
:1033A00089C0DC011196DC92CE9213961C921E927B
:1033B00012976701B2E0CB0ED11C6BE7C6010E94E9
:1033C000D0078823E1F26DE7C6010E94D007811182
:1033D0005BC0C70134DF5C01892B89F26AE3C60157
:1033E0000E94D007882359F21A821982BE016F5FAA
:1033F0007F4FC70163D0882309F4C1CFB501C8014D
:1034000031DE009759F5F801608171818AE090E022
:103410000E944107009741F0DC0111961C921E9218
:1034200015961C921E921497D8011296ED91FC915C
:10343000309729F4F8019383828308C0F901208131
:10344000318121153105D1F791838083009709F4EB
:1034500096CFDC011396BC92AE92129726E0FE0145
:103460003196DC01149601900D922A95E1F76DE7F3
:10347000C6010E94D007811107C06CE2C6010E94FC
:10348000D0078111A6CF7BCFF70180858F5F808722
:10349000C80126960FB6F894DEBF0FBECDBFDF91F0
:1034A000CF911F910F91FF90EF90DF90CF90BF9041
:1034B000AF9008950E941D078C017BCF8F929F9241
:1034C000AF92BF92CF92DF92EF92FF920F931F9332
:1034D000CF93DF9300D000D0CDB7DEB77C016B0176
:1034E0005C0182E0A80EB11CC5010E946E07C501F7
:1034F0000E9450078B35F1F08B3709F4ABC0C50142
:103500000E94500711E0873219F0823209F010E072
:10351000C70195DE009709F47FC021E030E0112358
:1035200009F4A1C022E030E0F601318320839383C7
:10353000828373C0F7018085811104C00E942F0728
:103540008C0165C08150808780809180B40184E0C7
:1035500090E00E9441078C01009709F48AC0FC01A9
:1035600091828082138212826BE5C5010E94D0078E
:10357000882321F36DE5C5010E94D007811143C066
:103580001A821982BE016F5F7F4FC70197DF8823C0
:10359000A9F2F8016081718188E090E00E94410702
:1035A000DC01892B39F011961C921E9213961C9205
:1035B0001E921297F801228133812115310521F4E1
:1035C000B383A28308C09C01F90180819181009797
:1035D000D1F7B183A083109709F4B0CF86E0FE0144
:1035E0003196129601900D928A95E1F76DE5C5012D
:1035F0000E94D007811107C06CE2C5010E94D0076C
:103600008111BECF9BCFF70180858F5F8087F80146
:1036100080819181892BA9F410E0812F26960FB625
:10362000F894DEBF0FBECDBFDF91CF911F910F91F8
:10363000FF90EF90DF90CF90BF90AF909F908F90D2
:10364000089586E090E0F6019183808313830283DE
:1036500011E0E3CFC7017FDEFC0120813181232B04
:10366000D9F227E030E0F60131832083938382830F
:10367000EFCF0E942F078C0177CF1F920F920FB6CA
:103680000F9211240BB60F922F933F934F935F939A
:103690006F937F938F939F93AF93BF93EF93FF931A
:1036A00085E197E00E94AF02FF91EF91BF91AF914A
:1036B0009F918F917F916F915F914F913F912F914A
:1036C0000F900BBE0F900FBE0F901F9018951F927A
:1036D0000F920FB60F9211240BB60F922F938F9368
:1036E0009F93EF93FF93E0912507F0912607808148
:1036F000E0912B07F0912C0782FD1DC090818091F5
:103700002E078F5F8F7320912F07821741F0E09172
:103710002E07F0E0EB5EF84F958F80932E07FF9118
:10372000EF919F918F912F910F900BBE0F900FBE35
:103730000F901F9018958081F2CF1F920F920FB6B5
:103740000F9211242F933F938F939F93AF93BF9327
:103750008091AD039091AE03A091AF03B091B003FF
:103760003091AC0323E0230F2D3758F50196A11DAE
:10377000B11D2093AC038093AD039093AE03A0934F
:10378000AF03B093B0038091B1039091B203A091C5
:10379000B303B091B4030196A11DB11D8093B10391
:1037A0009093B203A093B303B093B403BF91AF91CE
:1037B0009F918F913F912F910F900FBE0F901F906F
:1037C000189526E8230F0296A11DB11DD2CFCF92E6
:1037D000DF92EF92FF920F931F93E82FF92F05C00E
:1037E000015011092109310961F190819623941743
:1037F000B9F305C0015011092109310911F1908176
:1038000096239413F7CFC12CD12CE12CF12C0AC0B4
:103810008FEFC81AD80AE80AF80A0C151D052E05FC
:103820003F0579F080818623841791F36C2D7D2DDF
:103830008E2D9F2D1F910F91FF90EF90DF90CF90D5
:10384000089560E070E080E090E01F910F91FF909C
:10385000EF90DF90CF900895E5E1F7E013821282B8
:1038600048EE53E060E070E04483558366837783DD
:1038700088E592E09183808385EC90E0958784874A
:1038800084EC90E09787868780EC90E0918B808B2A
:1038900081EC90E0938B828B82EC90E0958B848B13
:1038A00086EC90E0978B868B118E128E138E148E81
:1038B000E2EBF7E088E992E0918380831282138241
:1038C00014821582E8EBF7E09183808312821382E1
:1038D00014821582EEEBF7E09183808312821382CB
:1038E00014821582E4ECF7E09183808312821382C4
:1038F00014821582EAECF7E09183808312821382AE
:1039000014821582E6EDF7E09183808312821382A0
:1039100014821582E0EDF7E0918380831282138296
:1039200014821582ECEDF7E091838083128213827A
:1039300014821582E2EEF7E0918380831282138273
:1039400014821582EAE0F8E0918380831282138268
:1039500014821582EBEFF7E01382128244835583C1
:10396000668377838AE692E09183808388E0848708
:1039700088EE93E096878587E8EEF7E085E0808320
:1039800086E181830895CF93DF93CDB7DEB7CD571E
:10399000D1400FB6F894DEBF0FBECDBF789484B58A
:1039A000826084BD84B5816084BD85B5826085BD3B
:1039B00085B5816085BD80916E00816080936E00C9
:1039C00010928100809181008260809381008091BB
:1039D000810081608093810080918000816080936C
:1039E00080008091B10084608093B1008091B0002C
:1039F00081608093B00080919100826080939100FB
:103A0000809191008160809391008091900081600D
:103A1000809390008091A10082608093A1008091AA
:103A2000A10081608093A1008091A00081608093BB
:103A3000A000809121018260809321018091210169
:103A40008160809321018091200181608093200119
:103A500080917A00846080937A0080917A008260FD
:103A600080937A0080917A00816080937A008091BF
:103A70007A00806880937A001092C100E091250757
:103A8000F091260782E08083E0912107F0912207E0
:103A90001082E0912307F09124078FEC808310922D
:103AA0002D07E0912907F0912A0786E08083E091B5
:103AB0002707F0912807808180618083E0912707A4
:103AC000F0912807808188608083E0912707F0913A
:103AD0002807808180688083E0912707F09128077C
:103AE00080818F7D808361E086E00E94000461E038
:103AF00087E00E94000460E088E00E94000461E02A
:103B000089E00E94000461E087E10E94000461E016
:103B100088E10E94000461E089E10E94000461E004
:103B20008AE10E94000461E08BE10E94000461E0F0
:103B30008CE10E94000461E08DE10E94000461E0DC
:103B40008EE10E94000461E08FE10E94000461E0C8
:103B500080E20E94000461E081E20E94000461E0D2
:103B600082E20E94000461E083E20E94000461E0BE
:103B700084E20E94000461E085E20E94000461E0AA
:103B800086E20E94000461E087E20E94000461E096
:103B900088E20E94000461E089E20E94000461E082
:103BA0008AE20E94000461E08BE20E94000461E06E
:103BB0008CE20E94000461E08DE20E94000461E05A
:103BC0008EE20E94000461E08FE20E94000461E046
:103BD00080E30E94000461E081E30E94000461E050
:103BE00086E30E94000461E087E30E94000461E034
:103BF00088E30E94000461E089E30E94000461E020
:103C00008AE30E94000461E08BE30E94000461E00B
:103C10008CE30E94000461E08DE30E94000461E0F7
:103C20008EE30E94000461E08FE30E94000461E0E3
:103C300080E40E94000461E081E40E94000461E0ED
:103C400082E40E94000461E083E40E94000461E0D9
:103C500084E40E94000461E085E40E9400048091F5
:103C60001B0481112AC0109203041092020488EEF2
:103C700093E0A0E0B0E08093040490930504A09347
:103C80000604B093070488E292E0909301048093C5
:103C9000000488E992E090930F0480930E04109240
:103CA000100410921104109212041092130488E070
:103CB0008093180481E080931B048DEB93E0909334
:103CC000BC038093BB038091BA0381119BC060E366
:103CD00072E080E090E00E94CC041FB7F8948091DD
:103CE000B803811127C0EAEEF2E08491E0E3F3E04B
:103CF0009491E82FF0E0EE0FFF1FE250FF4FA591E7
:103D0000B491EC91E92321F461E085E30E94D303AF
:103D100061E085E30E9400048CB580618CBD8CB5A8
:103D200080648CBD61E084E30E94000461E083E371
:103D30000E9400048091B8038F5F8093B8031FBF77
:103D4000EFEBF2E0E491F0E0EE0FFF1FEC51FF4FDC
:103D5000859194919093B7038093B603E5E0F3E0E7
:103D6000E491E093B50361E08AE00E9400040E94C0
:103D70005D0580E591E00E94F70184E380931407DC
:103D800080E80E9419060E94160B882309F40BC2D2
:103D900088E00E9419060E94040B883009F003C2D3
:103DA00080E10E9419060E94040B803109F0FBC1DA
:103DB00080E00E9419060E94040B182F8111F3C1A4
:103DC00041E050E0BE016F5F7F4F8FE190E00E94C5
:103DD000AD098981833009F0E6C180E48093B9039D
:103DE00042E06EE170E0812F0E94730642E06FE1D5
:103DF00070E0812F0E9473061F5F183089F781E001
:103E00008093BA0380E591E00E94F70146E050E01C
:103E100060E072E089E090E00E94790588E992E034
:103E20009A8389831B821C821D821E8244E050E09B
:103E3000BE016D5F7F4F8FE090E00E947905009199
:103E4000BB031091BC03D80192961D921D921D9246
:103E50001C929597F80116A217A210A611A69A9681
:103E60001D921D921D921C929D9780E69AEEA0E0F5
:103E7000B0E086AB97ABA0AFB1AF80EA9FE0A0E027
:103E8000B0E082AF93AFA4AFB5AF3E9684E1DF015F
:103E90001D928A95E9F786E0E0E0F2E0D8011896F5
:103EA00001900D928A95E1F7F801EE5BFF4FC6583D
:103EB000DE4FF983E883CA57D14010820E94C4299B
:103EC0002FEC37E040E050E00E94652BDC01CB0195
:103ED0000196A11DB11DF80184839583A683B78344
:103EE00080839183A283B3835801F3E4AF0EB11CA6
:103EF000C5010E946D0A64E470E0C5010E9456107D
:103F0000882309F4C1C10E94FC042B013C0148EE46
:103F1000C42E43E0D42EE12CF12C52E0252E912C1E
:103F2000812CC658DE4FA881B981CA57D1408C91E7
:103F30008330E1F18111AFC1F80184819581A681BF
:103F4000B7810196A11DB11D84839583A683B78394
:103F50000E94FC046419750986099709A701960156
:103F60000E94912BA90161E0C8010E941C1581E00B
:103F7000C658DE4FA881B981CA57D1408C93F1E071
:103F80008F16910471F20E94FC0464197509860968
:103F90009709D801D6962D913D914D915C91D99775
:103FA000261737074807590708F0B9CFC5010E94FF
:103FB0006D0AF80184819581A681B7810196A11DC2
:103FC000B11D84839583A683B7830E94FC04F80106
:103FD000FE9660837183828393838A94892809F093
:103FE00053C180E591E00E94F7010091BB0310915D
:103FF000BC03B801625F7F4FCE0101960E943C1165
:1040000044E050E0BE016D5F7F4F8FE090E00E9482
:104010007905B8016A5E7F4FCE0101960E943C117E
:1040200044E050E0BE016D5F7F4F81E090E00E9470
:104030007905B8016E5E7F4FCE0101960E943C115A
:1040400044E050E0BE016D5F7F4F85E090E00E944C
:104050007905B801625E7F4FCE0101960E943C1146
:104060008B819C81AD81BE818093D2079093D307D1
:10407000A093D407B093D5070E943C047F7380912E
:1040800012029091130268277927709313026093AC
:1040900012021E012FEB221A2EEF320AAE014F5FE1
:1040A0005F4FC858DE4F59834883C857D14080912D
:1040B0001102882309F43DC2D10111961C921E926F
:1040C00013961C921E92129715961C921E9214978C
:1040D00070E060E0C1010E942916F1012081318168
:1040E0008111B8C12115310519F0C9010E946E2D49
:1040F000D10111961C921E9215961C921E92149735
:1041000013961C921E92129710E000E041E2F42EEA
:10411000F801F09257006491C1010E9451160E5FA0
:104120001F4F06301105A1F70EE010E031E2F32E2B
:10413000F801F09257006491C1010E9451160F5F7F
:104140001F4F08311105A1F7D10114966D917C9193
:1041500015972D913C9140E0842F90E086179707AA
:1041600030F4F901E80FF91F2115310521F41092FF
:104170002304E3E2F4E05081552309F473C1861768
:10418000970730F4F901E80FF91F2115310521F4E3
:1041900010922304E3E2F4E050818456994FFC012D
:1041A00050834F5FD9CF87E38093140780E80E9444
:1041B00019060E94160B882329F188E00E9419062F
:1041C0000E94040B8830F1F480E10E9419060E94DD
:1041D000040B182F8031B1F480E00E9419060E9470
:1041E000040B81110FC041E050E0BE016F5F7F4FB3
:1041F00089E390E00E94AD098981843019F410931D
:10420000B903FDCD83E38093140780E80E9419066B
:104210000E94160B8823B1F180E10E9419060E94CA
:10422000040B803179F582E10E9419060E94040B8B
:10423000823141F580E00E9419060E94040B811131
:1042400021C084E08093B90315E5C958DE4F188377
:10425000C757D14041E050E0BE0169587E4F8BE125
:1042600090E00E947905CA58DE4F1883C657D140A6
:1042700041E050E0BE016A587E4F8AE190E00E9422
:104280007905BDCD1092140768E171E085E197E0F2
:104290000E949409FECE843019F5F801848195813D
:1042A000A681B7810196A11DB11D84839583A68344
:1042B000B7830E94FC046419750986099709A70150
:1042C00096010E94912BA90163E0C8010E941C1570
:1042D000C658DE4FA881B981CA57D1402C924FCE23
:1042E000813079F5F80142AD53AD64AD75AD9E01F5
:1042F0002F5F3F4FC8010E949816382EF2E08F13AF
:104300009EC089819A81AB81BC81F80184839583A9
:10431000A683B7830E94FC0464197509860997096E
:10432000A70196010E94912BA90163E0C8010E9498
:104330001C15C658DE4FA881B981CA57D1403C929E
:104340001ECE823009F01BCEF80142AD53AD64ADF4
:1043500075AD9E012F5F3F4FC8010E949816382E01
:10436000F5E08F1361C0E3E0C658DE4FA881B98144
:10437000CA57D140EC93F80182A193A1A4A1B5A1A1
:10438000892B8A2B8B2B41F424E833E040E050E06A
:1043900022A333A344A355A3F80186A197A1A0A506
:1043A000B1A5892B8A2B8B2B61F482A193A1A4A1A7
:1043B000B5A1B695A7959795879586A397A3A0A72E
:1043C000B1A7F80182A593A5A4A5B5A5892B8A2B31
:1043D0008B2BA9F482A193A1A4A1B5A1AC01BD012D
:1043E00023E076956795579547952A95D1F7841BD5
:1043F000950BA60BB70B82A793A7A4A7B5A7F801A7
:1044000086A197A1A0A5B1A586A797A7A0ABB1ABA0
:1044100082A593A5A4A5B5A582AB93ABA4ABB5AB80
:1044200088248394912CABCDF6E08F1308C0C65836
:10443000DE4FA881B981CA57D1401C92A0CDBFEFF1
:104440003B129DCDC658DE4FE881F981CA57D14055
:10445000108295CD1582148260EC72E0C9010E9431
:10446000F92E52CE8456994FDC011C921092110203
:1044700067E872E085E197E00E94940969E772E0DD
:1044800085E197E00E9418026CE976E085E197E00B
:104490000E947D0988E992E09A8389831B821C82AD
:1044A0001D821E8280E591E00E94F70144E050E009
:1044B000BE016D5F7F4F8FE090E00E94AD098E815D
:1044C0001F928F938D811F928F938C811F928F9358
:1044D0008B811F928F9381EE92E09F938F9304E2E2
:1044E00014E01F930F930E94002F10939B060093DC
:1044F0009A0664E672E085E197E00E9418026091F6
:104500009A0670919B0685E197E00E947D098DEEE9
:1045100092E09093100280930F02F10180819181CB
:104520000FB6F894DEBF0FBECDBF009711F00E940A
:104530006E2D0E94FC040091960610919706209122
:10454000980630919906601B710B820B930B6132B8
:104550007E4481059105A8F00E94FC0460939606B4
:10456000709397068093980690939906E0910F02B6
:10457000F09110028081803309F073C083E0809352
:104580000E0280910E02813009F0DDC061E086E00C
:104590000E94D30360910F02709110028AE695E0A9
:1045A0000E94F92E1F921F921F928DE78F938AE629
:1045B00095E09F938F931F928BE78F938FEE92E0FE
:1045C0009F938F9341E050E04C0F5D1F5F934F939B
:1045D0000E94002FCE0101967C010FB6F894DEBF39
:1045E0000FBECDBF14EF412E5524539402EC602E24
:1045F0007724739480E9882E992493949EE5A92EBC
:10460000BB24B3942AEFC22ED12CF70181917F01F4
:10461000882309F495C08E3231F582E390E09093BF
:10462000350480933404009134041091350461E022
:1046300087E00E94D3030230110540F0C801880FC3
:10464000991F880F991F05970197F1F760E087E0A0
:104650000E94D30363E070E080E090E00E94CC040D
:10466000D4CF81E08CCF8B3719F484E690E0D7CF9C
:10467000803319F486E990E0D2CF813319F488ECC5
:1046800090E0CDCF823329F4D0923504C092340427
:10469000CACF2CE231E08333D9F1843329F4B092CC
:1046A0003504A0923404BFCF853329F490923504A9
:1046B00080923404B8CF863329F470923504609226
:1046C0003404B1CF873329F4509235044092340436
:1046D000AACF46E252E0883321F1893319F488E504
:1046E00092E09DCF8D3739F4AAE8B2E0B09335045B
:1046F000A093340498CF8B3239F4ECEBF2E0F093D2
:104700003504E09334048FCF8D3239F42EEE32E04D
:10471000309335042093340486CF8C3239F440E250
:1047200053E050933504409334047DCF8A3219F41A
:1047300082E593E074CF109235041092340473CF65
:1047400082E080930E0280910E02823009F022C135
:1047500060E086E00E94D303E3E0F3E06491EDEBD8
:10476000F2E0E491F0E0EE0FFF1FE556FD4F85917A
:10477000949100E412E42FE030E0462F28D8AB01FA
:10478000BC01411551056105710529F04F5F5F4F6F
:104790006F4F7F4F7F70CA019A0128523109213330
:1047A000310588F58EE280933604209136042B374C
:1047B00019F481E08093690580916905882369F087
:1047C0008091670590916805FC01E55CFB4F2083B3
:1047D000019690936805809367052D3709F0A7C06F
:1047E000E0916705F0916805E55CFB4F1082EBE313
:1047F000F4E0DF0190E08D91882309F483C08B37CA
:10480000D1F79F5FF8CF4A5551094133510510F454
:104810008BE7C9CF9C012C5831092133310510F4A5
:1048200080E3C1CF9C012E5B31092133310510F4A7
:1048300081E3B9CF9C01205F31092133310510F4A8
:1048400082E3B1CF9C01225231402133310510F473
:1048500083E3A9CF9C01245531402133310510F465
:1048600084E3A1CF9C01265831402133310510F457
:1048700085E399CF9C01285B31402133310510F449
:1048800086E391CF9C012A5E31402133310510F43B
:1048900087E389CF9C012C5132402133310510F43C
:1048A00088E381CF9C012E5432402133310510F42E
:1048B00089E379CF9C01205832402133310510F42F
:1048C0008DE771CF9C01225B32402133310510F41A
:1048D0008BE269CF9C01245E32402133310510F414
:1048E0008DE261CF9C01265133402133310510F414
:1048F0008CE259CF88549340C19710F48AE253CF89
:1049000085E451CF80E02191222321F02534D9F78D
:104910008F5FF9CF913029F4811103C083E0809338
:104920000E02109269051092680510926705809139
:10493000370490913804A0913904B0913A0401965B
:10494000A11DB11D8093370490933804A0933904BE
:10495000B0933A0489359240A105B105D8F083E0BF
:1049600080930E028BE780933B0460E572E085E163
:1049700097E00E941802E0910F02F091100260810E
:1049800085E197E00E9411026EE472E085E197E014
:104990000E94940980910E02833009F039C365E3C7
:1049A00071E085E197E00E94940980E197E2A0E040
:1049B000B0E08093FF0790930008A0930108B093A4
:1049C000020840E550E068EF72E08BEF97E00E944C
:1049D00092148C0140E550E068EF72E08BEF97E0B5
:1049E0000E94921461EC72E0012B11F46EEC72E003
:1049F00085E197E00E947D09E0910F02F09110029D
:104A00003296DE011196CD01C858DE4F28813981DA
:104A1000C857D140821B930B21912C3211F02D935A
:104A2000F2CFE1E0F0E0EC0FFD1FE80FF91F10827C
:104A3000AE014F5F5F4F7A0190E080E08C010F5F25
:104A40001F4F0634110509F057C10E94FC046B0189
:104A50007C0128EE33E040E050E063D6C658DE4FDC
:104A6000288339834A835B83CA57D14000919A06D1
:104A700010919B0680900A0290900B02A0900C026D
:104A8000B0900D024090060250900702609008021C
:104A90007090090269EF71E08BEF97E00E941802B5
:104AA00064E173E08BEF97E00E94A60963EF71E089
:104AB0008BEF97E00E9418026FEE71E08BEF97E0AA
:104AC0000E9418026CE976E08BEF97E00E94A6093D
:104AD00065EE71E08BEF97E00E94180222E0B301CF
:104AE000A2018BEF97E00E949C0863EE71E08BEFD0
:104AF00097E00E94180222E0B501A4018BEF97E035
:104B00000E949C0861EE71E08BEF97E00E94180212
:104B1000B8018BEF97E00E94A6096FED71E08BEF73
:104B200097E00E9418026EEC71E08BEF97E00E9414
:104B300018026CEC71E08BEF97E00E9418022AE0FB
:104B4000C658DE4F488159816A817B81CA57D1405E
:104B50008BEF97E00E940E086AEC71E08BEF97E014
:104B60000E941802BE016F5F7F4F8BEF97E00E949B
:104B7000A6096CEB71E08BEF97E00E9418026BE3E3
:104B800074E08BEF97E00E94A60962EB71E08BEF77
:104B900097E00E9494096BEA71E08BEF97E00E9426
:104BA000180268EF72E08BEF97E00E947D0969E9D7
:104BB00071E08BEF97E00E94940961E973E08BEF5D
:104BC00097E00E94FF0780E2D1011D928A95E9F7E4
:104BD00081015101B0E2AB0EB11C8BEF97E00E9456
:104BE000080597FD09C08D30910531F0F8018193DA
:104BF0008F01AE16BF0689F75E01FFE8AF1AFEEF20
:104C0000BF0A85E0EFE8F3E0D50101900D928A95A7
:104C1000E1F7F50101900020E9F731973F016A18AB
:104C20007B0809F0B6C082E592E0C659DE4F998351
:104C30008883CA56D140C359DE4F19821882CD5697
:104C4000D14088E091E0C159DE4F99838883CF56E7
:104C5000D1402AE631E02C0F3D1FCF59DE4F39837A
:104C60002883C156D1408BEF97E0CD59DE4F998311
:104C70008883C356D140CB59DE4F1882C556D140E8
:104C8000CA59DE4F1882C656D140C959DE4F398302
:104C90002883C756D1408AE0C759DE4F8883C9565A
:104CA000D140CE018F599E4F0E94AB198C01DC017F
:104CB0008D919C91892B09F08CC082E592E0C659B8
:104CC000DE4F99838883CA56D140C359DE4FE881AD
:104CD000F981CD56D140309709F4D1C082819381BA
:104CE000C159DE4F99838883CF56D140008111810D
:104CF000CF01F4D6F801EFCF9701C858DE4FA88155
:104D0000B981C857D1402A1B3B0B2830310590F0A0
:104D10009C01295031092D30310560F0C19704976D
:104D200048F0F701818161E0813309F060E0802F74
:104D30000E94D303FFEFEF1AFF0AC8017FCE01E004
:104D400010E08BEF97E00E9408059C0197FD6BCF68
:104D5000B501600F711FFB018081082E000C990BBB
:104D60008217930779F10115110599F0A8012B011C
:104D70008A0101501109DB018E91BD01082E000C42
:104D8000990B2817390741F001151105D1F2A80137
:104D9000EFCF10E000E0D5CF0115110581F2D5016C
:104DA000F201E01BF10B90E080E08D909190891072
:104DB00004C0019680179107C0F38017910739F757
:104DC0008A01BFCF0F5F1F4F6016710609F0B9CF80
:104DD0002ACF63E971E085E197E00E9418026AE258
:104DE00073E0C8010E945618BC0185E197E00E945B
:104DF0007D0968E871E085E197E00E9418026EE2A3
:104E000073E0C8010E945618BC0185E197E00E943A
:104E10007D0967E373E0C8010E9456189093100261
:104E200080930F0266E671E085E197E00E94180228
:104E300060910F027091100285E197E00E94A6092F
:104E400064E671E085E197E00E94940967E471E00F
:104E500085E197E00E94180260913C0485E197E0AB
:104E60000E94110263E471E085E197E00E9418025C
:104E70006BE374E085E197E00E947D091ECFC65880
:104E8000DE4F688179818A819B81CA57D14020E8B1
:104E900031E541E050E045D420E13EE040E050E023
:104EA00040D429013A014B015C0165E472E085E1DF
:104EB00097E00E941802C701B60120E03CE546E2F7
:104EC00055E02FD4BA01A9012AE085E197E00E94BC
:104ED0000E0862E472E085E197E00E9418022AE081
:104EE000B301A20185E197E00E940E086FE372E032
:104EF00085E197E00E941802C501B4012CE330E07F
:104F000040E050E00ED449016B017C012AE0BA0177
:104F1000A40185E197E00E940E086CE372E085E150
:104F200097E00E9418022AE0B701A60185E197E008
:104F30000E940E086AE372E085E197E00E949409FE
:104F400010920E0210923B04109237041092380413
:104F50001092390410923A04F101108211821282E7
:104F60001382148261E08091E8070E94000460E0EF
:104F70008091E8070E94D30362E170E080E090E056
:104F80000E94CC0462E08091E8070E94000428E2BD
:104F900030E040E050E061E08091E8070E94610469
:104FA000672B682B692BB9F58DEF8093EA07809109
:104FB000EA078E3F09F49CC10CF041C16AE773E037
:104FC0008D3F09F490C169E272E085E197E00E94AB
:104FD00094098BEF97E00E94A50A69E172E085E1F0
:104FE00097E00E9494096BE072E085E197E00E94EF
:104FF00018022AE044E150E060E070E085E197E0CB
:105000000E940E086FEF71E085E197E00E9494091D
:105010000E943C034CC820E530E040E050E060E0F6
:105020008091E8070E946104672B682B692B09F4C3
:10503000BBCF20E530E040E050E061E08091E80740
:105040000E946104672B682B692B09F4ADCF10E037
:1050500000E022E330E040E050E060E08091E807CB
:105060000E94610424E630E040E050E061E080917D
:10507000E8070E946104662351F1F80173E0F59599
:10508000E7957A95E1F7E20DF31D8081880F91E0B5
:105090006E3208F490E0890F80830F5F1F4F083253
:1050A0001105B9F6D1016C9111964C911197129698
:1050B0000C91129713961C911397862F840F800FD3
:1050C000810F14969C91891721F08FEF6ECF8EEF90
:1050D0006CCF8091E907853109F479C0863109F4F4
:1050E000A8C08B3009F060C070E090E080E0D8D1BB
:1050F0006093F7077093F8078093F9079093FA0786
:10510000602F70E090E080E0CDD16B017C0117FF53
:105110004EC01F77612F70E090E080E0C3D12DEC8E
:105120003CEC4CEC5DE31DD29B01AC0160E070E017
:1051300080E89FE327D3A701960125D36B017C016B
:10514000F7FAF094F7F8F094C092EB07D092EC07DE
:10515000E092ED07F092EE0720E030E040E151E40C
:10516000C701B601FED120E030E040EA50E46FD341
:1051700020E030E040E052E406D36093EF07709304
:10518000F0078093F1079093F20723E333E948E8AF
:1051900053E4C701B601F7D26093F3077093F407A5
:1051A0008093F5079093F6071092EA0700CF612FDE
:1051B00070E090E080E076D12DEC3CEC4CEC5DE3CF
:1051C000D0D1A7019601DFD26B017C01BDCF262F84
:1051D00030E0322F2227B901640F711D072E000C19
:1051E000880B990B5FD12DEC3CEC4CEC5DE3B9D115
:1051F0006093F7077093F8078093F9079093FA0785
:10520000602F70E0762F662766277F77610F711D0C
:10521000072E000C880B990B45D12DEC3CEC4CEC87
:105220005DEB07FD04C02DEC3CEC4CEC5DE399D14B
:10523000CBCF862F90E0982F8827BC01CDCF8F3F12
:1052400009F44FC08111BFCE60E473E085E197E0BF
:105250000E94A6094091EB075091EC076091ED0781
:105260007091EE0722E085E197E00E949C0863E5DB
:1052700073E085E197E00E94A6094091F7075091FD
:10528000F8076091F9077091FA0722E085E197E04D
:105290000E949C0869E573E085E197E00E947D0922
:1052A0008091F7079091F807A091F907B091FA075C
:1052B00080930A0290930B02A0930C02B0930D020C
:1052C0008091EB079091EC07A091ED07B091EE076C
:1052D0008093060290930702A0930802B0930902FC
:1052E00072CE6CE573E085E197E00E947D096BCE9C
:1052F0006BE673E0F8CF8F929F92AF92BF92CF92FE
:10530000DF92EF92FF92CF93DF93EC016881798176
:105310008A819B81611571058105910521F464E203
:1053200079ED8BE597E02DE133EF41E050E0CDD111
:1053300049015A019B01AC01A7EAB1E4E2D16B013A
:105340007C01ACEEB4EFA5019401E7D1C60ED71EE7
:10535000E81EF91EF7FE06C081E0C81AD108E10870
:1053600080E8F80AC882D982EA82FB82C701B601C6
:105370009F77DF91CF91FF90EF90DF90CF90BF901C
:10538000AF909F908F9008958F929F92AF92BF920F
:10539000CF92DF92EF92FF9260911402709115020A
:1053A0008091160290911702611571058105910592
:1053B00021F464E279ED8BE597E02DE133EF41E0F4
:1053C00050E083D149015A019B01AC01A7EAB1E445
:1053D00098D16B017C01ACEEB4EFA50194019DD195
:1053E000C60ED71EE81EF91EF7FE06C081E0C81AD9
:1053F000D108E10880E8F80AC0921402D0921502A0
:10540000E0921602F0921702C701B6019F77FF9053
:10541000EF90DF90CF90BF90AF909F908F900895C6
:1054200060931402709315028093160290931702F2
:105430000895BB274A3031F4992322F4BDE29095B8
:1054400081959F4F01C0BB27FB015527AA27880FD5
:10545000991FAA1FA41710F0A41B83955051B9F7E8
:10546000A05DAA3308F0A95DA193009779F7B11167
:10547000B1931192CB0100C0DC01FC01672F719147
:105480007723E1F7329704C07C916D93708362912A
:10549000AE17BF07C8F3089540D008F481E008951F
:1054A000E89409C097FB3EF49095809570956195BE
:1054B0007F4F8F4F9F4F9923A9F0F92F96E9BB2774
:1054C0009395F695879577956795B795F111F8CFF0
:1054D000FAF4BB0F11F460FF1BC06F5F7F4F8F4F5B
:1054E0009F4F16C0882311F096E911C0772321F051
:1054F0009EE8872F762F05C0662371F096E8862FE9
:1055000070E060E02AF09A95660F771F881FDAF73F
:10551000880F9695879597F90895990F0008550F6C
:10552000AA0BE0E8FEEF16161706E807F907C0F029
:1055300012161306E407F50798F0621B730B840B31
:10554000950B39F40A2661F0232B242B252B21F40B
:1055500008950A2609F4A140A6958FEF811D811DAB
:1055600008950BD078C069D028F06ED018F095233C
:1055700009F05AC05FC01124A2C07ED0A0F3959F4D
:10558000D1F3950F50E0551F629FF001729FBB272A
:10559000F00DB11D639FAA27F00DB11DAA1F649FD6
:1055A0006627B00DA11D661F829F2227B00DA11D89
:1055B000621F739FB00DA11D621F839FA00D611D0F
:1055C000221F749F3327A00D611D231F849F600D30
:1055D000211D822F762F6A2F11249F5750408AF069
:1055E000E1F088234AF0EE0FFF1FBB1F661F771FF5
:1055F000881F91505040A9F79E3F510570F014C08C
:105600005EC05F3FECF3983EDCF386957795679537
:10561000B795F795E7959F5FC1F7FE2B880F911D12
:105620009695879597F9089597F99F6780E870E0B8
:1056300060E008959FEF80EC089500240A94161608
:10564000170618060906089500240A941216130670
:10565000140605060895092E0394000C11F48823FE
:1056600052F0BB0F40F4BF2B11F460FF04C06F5F1A
:105670007F4F8F4F9F4F089557FD9058440F551FF0
:1056800059F05F3F71F04795880F97FB991F61F0C4
:105690009F3F79F087950895121613061406551F3B
:1056A000F2CF4695F1DF08C0161617061806991FA7
:1056B000F1CF86957105610508940895E894BB279C
:1056C00066277727CB0197F90895052E97FB16F4E7
:1056D00000940FD057FD05D024D007FC02D046F42B
:1056E00008C050954095309521953F4F4F4F5F4FE3
:1056F000089590958095709561957F4F8F4F9F4F3E
:10570000089531D0A59F900DB49F900DA49F800D5A
:10571000911D11240895B7FFF4CFF3DF821B930B83
:105720000895A1E21A2EAA1BBB1BFD010DC0AA1FE2
:10573000BB1FEE1FFF1FA217B307E407F50720F0FA
:10574000A21BB30BE40BF50B661F771F881F991F75
:105750001A9469F760957095809590959B01AC01BE
:10576000BD01CF010895A29FB001B39FC001A39FC7
:10577000700D811D1124911DB29F700D811D11248A
:10578000911D08955058BB27AA270ED064CF55DF2E
:1057900030F05ADF20F031F49F3F11F41EF44ACF6D
:1057A0000EF4E095E7FB40CFE92F66DF80F3BA17F0
:1057B000620773078407950718F071F49EF57ECF92
:1057C0000EF4E0950B2EBA2FA02D0B01B90190011C
:1057D0000C01CA01A0011124FF27591B99F0593F60
:1057E00050F4503E68F11A16F040A22F232F342FA8
:1057F0004427585FF3CF469537952795A795F040F6
:105800005395C9F77EF41F16BA0B620B730B840B0A
:10581000BAF09150A1F0FF0FBB1F661F771F881FC2
:10582000C2F70EC0BA0F621F731F841F48F487951A
:1058300077956795B795F7959E3F08F0B3CF939509
:10584000880F08F09927EE0F9795879508950CD04B
:1058500002CFFADE40F0F1DE30F021F45F3F19F0C4
:10586000E3CE51112CCFE6CE07DF98F39923C9F38D
:105870005523B1F3951B550BBB27AA276217730756
:10588000840738F09F5F5F4F220F331F441FAA1F0A
:10589000A9F333D00E2E3AF0E0E830D091505040CA
:1058A000E695001CCAF729D0FE2F27D0660F771F78
:1058B000881FBB1F261737074807AB07B0E809F05A
:1058C000BB0B802DBF01FF2793585F4F2AF09E3FEF
:1058D000510568F0A9CEF3CE5F3FECF3983EDCF3C0
:1058E000869577956795B795F7959F5FC9F7880F68
:1058F000911D9695879597F90895E1E0660F771FBA
:10590000881FBB1F621773078407BA0720F0621B4A
:10591000730B840BBA0BEE1F88F7E0950895B4DE85
:1059200088F09F5790F0B92F9927B751A0F0D1F088
:10593000660F771F881F991F1AF0BA95C9F712C012
:10594000B13081F0BBDEB1E00895B8CE672F782F7B
:105950008827B85F39F0B93FCCF38695779567957E
:10596000B395D9F73EF490958095709561957F4FEA
:105970008F4F9F4F0895D1DD08F48FEF0895CDDD4F
:10598000880B990B0895EE0FFF1F881F8BBF0790A0
:10599000F691E02D1994692796276927782787279C
:1059A000782708950F931F93CF93DF93823091054B
:1059B00010F482E090E0E0911208F091130830E0DA
:1059C00020E0B0E0A0E0309799F42115310509F40A
:1059D0004AC0281B390B24303105D8F58A819B81B8
:1059E0006115710589F1FB0193838283FE0111C06A
:1059F000408151810281138148175907E0F048170F
:105A0000590799F4109761F012960C931297139618
:105A10001C933296CF01DF91CF911F910F91089582
:105A20000093120810931308F4CF2115310551F09B
:105A30004217530738F0A901DB019A01BD01DF01CC
:105A4000F801C1CFEF01F9CF9093130880931208AA
:105A5000CDCFFE01E20FF31F8193919322503109C4
:105A600039832883D7CF2091100830911108232B38
:105A700041F420911A0230911B02309311082093B7
:105A8000100820911802309119022115310541F4B6
:105A90002DB73EB740911C0250911D02241B350BBF
:105AA000E0911008F0911108E217F307A0F42E1B03
:105AB0003F0B2817390778F0AC014E5F5F4F241772
:105AC000350748F04E0F5F1F5093110840931008A0
:105AD000819391939FCFF0E0E0E09CCFCF93DF9351
